Component: ARM Compiler 5.06 update 6 (build 750) Tool: armlink [4d35ed]

==============================================================================

Section Cross References

    main.o(i.Draw_Logo) refers to oled.o(i.OLED_ShowChar) for OLED_ShowChar
    main.o(i.Draw_Logo) refers to delay.o(i.delay_ms) for delay_ms
    main.o(i.Draw_Logo) refers to oled.o(i.OLED_Clear) for OLED_Clear
    main.o(i.Draw_Logo) refers to main.o(.data) for Logo
    main.o(i.Draw_Main) refers to ff.o(i.f_unlink) for f_unlink
    main.o(i.Draw_Main) refers to ff.o(i.f_opendir) for f_opendir
    main.o(i.Draw_Main) refers to ff.o(i.f_readdir) for f_readdir
    main.o(i.Draw_Main) refers to strlen.o(.text) for strlen
    main.o(i.Draw_Main) refers to oled.o(i.OLED_ShowString) for OLED_ShowString
    main.o(i.Draw_Main) refers to strncpy.o(.text) for strncpy
    main.o(i.Draw_Main) refers to main.o(i.Scan_Key) for Scan_Key
    main.o(i.Draw_Main) refers to main.o(.bss) for lFileName
    main.o(i.Draw_Main) refers to main.o(.data) for select
    main.o(i.Draw_Main) refers to oled.o(i.OLED_Clear) for OLED_Clear
    main.o(i.Draw_Main) refers to oled.o(i.OLED_DrawBMP) for OLED_DrawBMP
    main.o(i.Draw_Main) refers to delay.o(i.delay_ms) for delay_ms
    main.o(i.Draw_Main) refers to usart.o(i.usart_config) for usart_config
    main.o(i.Draw_Main) refers to strstr.o(.text) for strstr
==============================================================================

Removing Unused input sections from the image.

    Removing main.o(.rev16_text), (4 bytes).
    Removing main.o(.revsh_text), (4 bytes).
    Removing main.o(.rrx_text), (6 bytes).
    Removing cmsis-dap.o(.rev16_text), (4 bytes).
    Removing cmsis-dap.o(.revsh_text), (4 bytes).
    Removing cmsis-dap.o(.rrx_text), (6 bytes).
    Removing cmsis-dap.o(i.BoardInit), (108 bytes).
    Removing cmsis-dap.o(i.LedConnectedToggle), (20 bytes).
    Removing cmsis-dap.o(i.LedRunningToggle), (20 bytes).
    Removing cmsis-dap.o(i.SysTick_Init), (108 bytes).
    Removing cmsis-dap.o(i.USBD_Error_Event), (22 bytes).
    Removing sys.o(.rev16_text), (4 bytes).
    Removing sys.o(.revsh_text), (4 bytes).
    Removing sys.o(.rrx_text), (6 bytes).
    Removing sys.o(.emb_text), (6 bytes).
    Removing sys.o(i.INTX_DISABLE), (4 bytes).
    Removing sys.o(i.INTX_ENABLE), (4 bytes).
    Removing sys.o(i.WFI_SET), (4 bytes).
==============================================================================

Image Symbol Table

    Local Symbols

    Symbol Name                              Value     Ov Type        Size  Object(Section)

    ../clib/../cmprslib/zerorunl2.c          0x00000000   Number         0  __dczerorl2.o ABSOLUTE
    ../clib/microlib/division.c              0x00000000   Number         0  uldiv.o ABSOLUTE
    ../clib/microlib/division.c              0x00000000   Number         0  uidiv.o ABSOLUTE
    ../clib/microlib/init/entry.s            0x00000000   Number         0  entry8b.o ABSOLUTE
    ../clib/microlib/init/entry.s            0x00000000   Number         0  entry7a.o ABSOLUTE
    ../clib/microlib/init/entry.s            0x00000000   Number         0  entry7b.o ABSOLUTE
    ../clib/microlib/init/entry.s            0x00000000   Number         0  entry9b.o ABSOLUTE
    ../clib/microlib/init/entry.s            0x00000000   Number         0  entry11a.o ABSOLUTE
    ../clib/microlib/init/entry.s            0x00000000   Number         0  entry11b.o ABSOLUTE
    ../clib/microlib/init/entry.s            0x00000000   Number         0  entry2.o ABSOLUTE
    ../clib/microlib/init/entry.s            0x00000000   Number         0  entry.o ABSOLUTE
    ../clib/microlib/init/entry.s            0x00000000   Number         0  entry10b.o ABSOLUTE
    ../clib/microlib/init/entry.s            0x00000000   Number         0  entry10a.o ABSOLUTE
    ../clib/microlib/init/entry.s            0x00000000   Number         0  entry9a.o ABSOLUTE
    ../clib/microlib/init/entry.s            0x00000000   Number         0  entry8a.o ABSOLUTE
    ../clib/microlib/init/entry.s            0x00000000   Number         0  entry5.o ABSOLUTE
    ../clib/microlib/longlong.c              0x00000000   Number         0  llsshr.o ABSOLUTE
    ../clib/microlib/longlong.c              0x00000000   Number         0  llushr.o ABSOLUTE
    ../clib/microlib/longlong.c              0x00000000   Number         0  llshl.o ABSOLUTE
    ../clib/microlib/malloc/malloc.c         0x00000000   Number         0  mallocr.o ABSOLUTE
    ../clib/microlib/malloc/malloc.c         0x00000000   Number         0  malloc.o ABSOLUTE
    ../clib/microlib/malloc/malloc.c         0x00000000   Number         0  malloca.o ABSOLUTE
    ../clib/microlib/malloc/malloc.c         0x00000000   Number         0  mallocra.o ABSOLUTE
    ../clib/microlib/malloc/mvars.c          0x00000000   Number         0  mvars.o ABSOLUTE
    ../clib/microlib/printf/printf.c         0x00000000   Number         0  printf2.o ABSOLUTE
    ../clib/microlib/printf/printf.c         0x00000000   Number         0  printf5.o ABSOLUTE
    ../clib/microlib/printf/printf.c         0x00000000   Number         0  printf8.o ABSOLUTE
    ../clib/microlib/printf/printf.c         0x00000000   Number         0  printf6.o ABSOLUTE
    ../clib/microlib/printf/printf.c         0x00000000   Number         0  printfa.o ABSOLUTE
    ../clib/microlib/printf/printf.c         0x00000000   Number         0  printf4.o ABSOLUTE
    ../clib/microlib/printf/printf.c         0x00000000   Number         0  printf3.o ABSOLUTE
    ../clib/microlib/printf/printf.c         0x00000000   Number         0  printf1.o ABSOLUTE
    ../clib/microlib/printf/printf.c         0x00000000   Number         0  printf0.o ABSOLUTE
    ../clib/microlib/printf/printf.c         0x00000000   Number         0  printfb.o ABSOLUTE
    ../clib/microlib/printf/printf.c         0x00000000   Number         0  printf7.o ABSOLUTE
    ../clib/microlib/printf/stubs.s          0x00000000   Number         0  stubs.o ABSOLUTE
    ../clib/microlib/string/memcpy.c         0x00000000   Number         0  memcpya.o ABSOLUTE
    ../clib/microlib/string/memcpy.c         0x00000000   Number         0  memcpyb.o ABSOLUTE
    ../clib/microlib/string/memset.c         0x00000000   Number         0  memseta.o ABSOLUTE
    ../clib/microlib/string/strlen.c         0x00000000   Number         0  strlen.o ABSOLUTE
    ../clib/microlib/string/strncpy.c        0x00000000   Number         0  strncpy.o ABSOLUTE
    ../clib/microlib/string/strstr.c         0x00000000   Number         0  strstr.o ABSOLUTE
    ../clib/microlib/stubs.s                 0x00000000   Number         0  useno.o ABSOLUTE
    ../clib/microlib/stubs.s                 0x00000000   Number         0  iusefp.o ABSOLUTE
    ../fplib/microlib/fpadd.c                0x00000000   Number         0  dadd.o ABSOLUTE
    ../fplib/microlib/fpdiv.c                0x00000000   Number         0  ddiv.o ABSOLUTE
    ../fplib/microlib/fpepilogue.c           0x00000000   Number         0  depilogue.o ABSOLUTE
    ../fplib/microlib/fpfix.c                0x00000000   Number         0  dfixul.o ABSOLUTE
    ../fplib/microlib/fpfix.c                0x00000000   Number         0  dfixui.o ABSOLUTE
    ../fplib/microlib/fpflt.c                0x00000000   Number         0  dfltui.o ABSOLUTE
    ../fplib/microlib/fpmul.c                0x00000000   Number         0  dmul.o ABSOLUTE
    ..\CMSIS\CoreSupport\core_cm3.c          0x00000000   Number         0  core_cm3.o ABSOLUTE
    ..\CORE\startup_stm32f10x_hd.s           0x00000000   Number         0  startup_stm32f10x_hd.o ABSOLUTE
    ..\CORE\system_stm32f10x.c               0x00000000   Number         0  system_stm32f10x.o ABSOLUTE
    ..\HARDWARE\DAP\DAP.c                    0x00000000   Number         0  dap.o ABSOLUTE
    ..\HARDWARE\DAP\DAP_vendor.c             0x00000000   Number         0  dap_vendor.o ABSOLUTE
    ..\HARDWARE\DAP\JTAG_DP.c                0x00000000   Number         0  jtag_dp.o ABSOLUTE
    ..\HARDWARE\DAP\SWO.c                    0x00000000   Number         0  swo.o ABSOLUTE
    ..\HARDWARE\DAP\SW_DP.c                  0x00000000   Number         0  sw_dp.o ABSOLUTE
    ..\HARDWARE\DAP_UART\DMA_STM32F10x.c     0x00000000   Number         0  dma_stm32f10x.o ABSOLUTE
    ..\HARDWARE\DAP_UART\GPIO_STM32F10x.c    0x00000000   Number         0  gpio_stm32f10x.o ABSOLUTE
    ..\HARDWARE\DAP_UART\USART_STM32F10x.c   0x00000000   Number         0  usart_stm32f10x.o ABSOLUTE
    ..\HARDWARE\DAP_USB\src\usb_config.c     0x00000000   Number         0  usb_config.o ABSOLUTE
    ..\HARDWARE\DAP_USB\src\usbd_STM32F103.c 0x00000000   Number         0  usbd_stm32f103.o ABSOLUTE
    ..\HARDWARE\DAP_USB\src\usbd_user_cdc_acm.c 0x00000000   Number         0  usbd_user_cdc_acm.o ABSOLUTE
    ..\HARDWARE\DAP_USB\src\usbd_user_hid.c  0x00000000   Number         0  usbd_user_hid.o ABSOLUTE
    ..\HARDWARE\Mass_Storage\src\fsmc_nand.c 0x00000000   Number         0  fsmc_nand.o ABSOLUTE
    ..\HARDWARE\Mass_Storage\src\hw_config.c 0x00000000   Number         0  hw_config.o ABSOLUTE
    ..\HARDWARE\Mass_Storage\src\mass_mal.c  0x00000000   Number         0  mass_mal.o ABSOLUTE
    ..\HARDWARE\Mass_Storage\src\memory.c    0x00000000   Number         0  memory.o ABSOLUTE
    ..\HARDWARE\Mass_Storage\src\scsi_data.c 0x00000000   Number         0  scsi_data.o ABSOLUTE
    ..\HARDWARE\Mass_Storage\src\usb_bot.c   0x00000000   Number         0  usb_bot.o ABSOLUTE
    ..\HARDWARE\Mass_Storage\src\usb_desc.c  0x00000000   Number         0  usb_desc.o ABSOLUTE
    ..\HARDWARE\Mass_Storage\src\usb_endp.c  0x00000000   Number         0  usb_endp.o ABSOLUTE
    ..\HARDWARE\Mass_Storage\src\usb_istr.c  0x00000000   Number         0  usb_istr.o ABSOLUTE
    ..\HARDWARE\Mass_Storage\src\usb_prop.c  0x00000000   Number         0  usb_prop.o ABSOLUTE
    ..\HARDWARE\Mass_Storage\src\usb_pwr.c   0x00000000   Number         0  usb_pwr.o ABSOLUTE
    ..\HARDWARE\Mass_Storage\src\usb_scsi.c  0x00000000   Number         0  usb_scsi.o ABSOLUTE
    ..\HARDWARE\OLED\oled.c                  0x00000000   Number         0  oled.o ABSOLUTE
    ..\HARDWARE\STM32_USB-FS-Device_Driver\src\otgd_fs_cal.c 0x00000000   Number         0  otgd_fs_cal.o ABSOLUTE
    ..\HARDWARE\STM32_USB-FS-Device_Driver\src\otgd_fs_dev.c 0x00000000   Number         0  otgd_fs_dev.o ABSOLUTE
    ..\HARDWARE\STM32_USB-FS-Device_Driver\src\otgd_fs_int.c 0x00000000   Number         0  otgd_fs_int.o ABSOLUTE
    ..\HARDWARE\STM32_USB-FS-Device_Driver\src\otgd_fs_pcd.c 0x00000000   Number         0  otgd_fs_pcd.o ABSOLUTE
    ..\HARDWARE\STM32_USB-FS-Device_Driver\src\usb_core.c 0x00000000   Number         0  usb_core.o ABSOLUTE
    ..\HARDWARE\STM32_USB-FS-Device_Driver\src\usb_init.c 0x00000000   Number         0  usb_init.o ABSOLUTE
    ..\HARDWARE\STM32_USB-FS-Device_Driver\src\usb_int.c 0x00000000   Number         0  usb_int.o ABSOLUTE
    ..\HARDWARE\STM32_USB-FS-Device_Driver\src\usb_mem.c 0x00000000   Number         0  usb_mem.o ABSOLUTE
    ..\HARDWARE\STM32_USB-FS-Device_Driver\src\usb_regs.c 0x00000000   Number         0  usb_regs.o ABSOLUTE
    ..\HARDWARE\STM32_USB-FS-Device_Driver\src\usb_sil.c 0x00000000   Number         0  usb_sil.o ABSOLUTE
    ..\HARDWARE\SWD\SWD_flash.c              0x00000000   Number         0  swd_flash.o ABSOLUTE
    ..\HARDWARE\SWD\SWD_host.c               0x00000000   Number         0  swd_host.o ABSOLUTE
    ..\HARDWARE\SWD\SWD_opt.c                0x00000000   Number         0  swd_opt.o ABSOLUTE
    ..\HARDWARE\W25QXX\w25qxx.c              0x00000000   Number         0  w25qxx.o ABSOLUTE
    ..\HARDWARE\algo\STM32F10x_128.c         0x00000000   Number         0  stm32f10x_128.o ABSOLUTE
    ..\HARDWARE\algo\STM32F10x_OPT.c         0x00000000   Number         0  stm32f10x_opt.o ABSOLUTE
    ..\HARDWARE\another\hex2bin.c            0x00000000   Number         0  hex2bin.o ABSOLUTE
    ..\HARDWARE\another\key.c                0x00000000   Number         0  key.o ABSOLUTE
    ..\HARDWARE\another\led.c                0x00000000   Number         0  led.o ABSOLUTE
    ..\HARDWARE\ff9\src\diskio.c             0x00000000   Number         0  diskio.o ABSOLUTE
    ..\HARDWARE\ff9\src\ff.c                 0x00000000   Number         0  ff.o ABSOLUTE
    ..\HARDWARE\ff9\src\option\ccsbcs.c      0x00000000   Number         0  ccsbcs.o ABSOLUTE
    ..\HARDWARE\ff9\src\option\syscall.c     0x00000000   Number         0  syscall.o ABSOLUTE
    ..\STM32F10x_FWLib\src\misc.c            0x00000000   Number         0  misc.o ABSOLUTE
    ..\STM32F10x_FWLib\src\stm32f10x_dma.c   0x00000000   Number         0  stm32f10x_dma.o ABSOLUTE
    ..\STM32F10x_FWLib\src\stm32f10x_exti.c  0x00000000   Number         0  stm32f10x_exti.o ABSOLUTE
    ..\STM32F10x_FWLib\src\stm32f10x_flash.c 0x00000000   Number         0  stm32f10x_flash.o ABSOLUTE
    ..\STM32F10x_FWLib\src\stm32f10x_fsmc.c  0x00000000   Number         0  stm32f10x_fsmc.o ABSOLUTE
    ..\STM32F10x_FWLib\src\stm32f10x_gpio.c  0x00000000   Number         0  stm32f10x_gpio.o ABSOLUTE
    ..\STM32F10x_FWLib\src\stm32f10x_rcc.c   0x00000000   Number         0  stm32f10x_rcc.o ABSOLUTE
    ..\STM32F10x_FWLib\src\stm32f10x_spi.c   0x00000000   Number         0  stm32f10x_spi.o ABSOLUTE
    ..\STM32F10x_FWLib\src\stm32f10x_tim.c   0x00000000   Number         0  stm32f10x_tim.o ABSOLUTE
    ..\STM32F10x_FWLib\src\stm32f10x_usart.c 0x00000000   Number         0  stm32f10x_usart.o ABSOLUTE
    ..\SYSTEM\SPI\spi.c                      0x00000000   Number         0  spi.o ABSOLUTE
    ..\SYSTEM\delay\delay.c                  0x00000000   Number         0  delay.o ABSOLUTE
    ..\SYSTEM\sys\sys.c                      0x00000000   Number         0  sys.o ABSOLUTE
    ..\SYSTEM\usart\usart.c                  0x00000000   Number         0  usart.o ABSOLUTE
    ..\USER\CMSIS-DAP.c                      0x00000000   Number         0  cmsis-dap.o ABSOLUTE
    ..\USER\main.c                           0x00000000   Number         0  main.o ABSOLUTE
    ..\\CMSIS\\CoreSupport\\core_cm3.c       0x00000000   Number         0  core_cm3.o ABSOLUTE
    ..\\CORE\\system_stm32f10x.c             0x00000000   Number         0  system_stm32f10x.o ABSOLUTE
    ..\\HARDWARE\\DAP\\DAP.c                 0x00000000   Number         0  dap.o ABSOLUTE
    ..\\HARDWARE\\DAP\\DAP_vendor.c          0x00000000   Number         0  dap_vendor.o ABSOLUTE
    ..\\HARDWARE\\DAP\\JTAG_DP.c             0x00000000   Number         0  jtag_dp.o ABSOLUTE
    ..\\HARDWARE\\DAP\\SWO.c                 0x00000000   Number         0  swo.o ABSOLUTE
    ..\\HARDWARE\\DAP\\SW_DP.c               0x00000000   Number         0  sw_dp.o ABSOLUTE
    ..\\HARDWARE\\DAP_UART\\DMA_STM32F10x.c  0x00000000   Number         0  dma_stm32f10x.o ABSOLUTE
    ..\\HARDWARE\\DAP_UART\\GPIO_STM32F10x.c 0x00000000   Number         0  gpio_stm32f10x.o ABSOLUTE
    ..\\HARDWARE\\DAP_UART\\USART_STM32F10x.c 0x00000000   Number         0  usart_stm32f10x.o ABSOLUTE
    ..\\HARDWARE\\DAP_USB\\src\\usbd_STM32F103.c 0x00000000   Number         0  usbd_stm32f103.o ABSOLUTE
    ..\\HARDWARE\\DAP_USB\\src\\usbd_user_cdc_acm.c 0x00000000   Number         0  usbd_user_cdc_acm.o ABSOLUTE
    ..\\HARDWARE\\DAP_USB\\src\\usbd_user_hid.c 0x00000000   Number         0  usbd_user_hid.o ABSOLUTE
    ..\\HARDWARE\\Mass_Storage\\src\\fsmc_nand.c 0x00000000   Number         0  fsmc_nand.o ABSOLUTE
    ..\\HARDWARE\\Mass_Storage\\src\\hw_config.c 0x00000000   Number         0  hw_config.o ABSOLUTE
    ..\\HARDWARE\\Mass_Storage\\src\\mass_mal.c 0x00000000   Number         0  mass_mal.o ABSOLUTE
    ..\\HARDWARE\\Mass_Storage\\src\\memory.c 0x00000000   Number         0  memory.o ABSOLUTE
    ..\\HARDWARE\\Mass_Storage\\src\\scsi_data.c 0x00000000   Number         0  scsi_data.o ABSOLUTE
    ..\\HARDWARE\\Mass_Storage\\src\\usb_bot.c 0x00000000   Number         0  usb_bot.o ABSOLUTE
    ..\\HARDWARE\\Mass_Storage\\src\\usb_desc.c 0x00000000   Number         0  usb_desc.o ABSOLUTE
    ..\\HARDWARE\\Mass_Storage\\src\\usb_endp.c 0x00000000   Number         0  usb_endp.o ABSOLUTE
    ..\\HARDWARE\\Mass_Storage\\src\\usb_istr.c 0x00000000   Number         0  usb_istr.o ABSOLUTE
    ..\\HARDWARE\\Mass_Storage\\src\\usb_prop.c 0x00000000   Number         0  usb_prop.o ABSOLUTE
    ..\\HARDWARE\\Mass_Storage\\src\\usb_pwr.c 0x00000000   Number         0  usb_pwr.o ABSOLUTE
    ..\\HARDWARE\\Mass_Storage\\src\\usb_scsi.c 0x00000000   Number         0  usb_scsi.o ABSOLUTE
    ..\\HARDWARE\\OLED\\oled.c               0x00000000   Number         0  oled.o ABSOLUTE
    ..\\HARDWARE\\STM32_USB-FS-Device_Driver\\src\\usb_core.c 0x00000000   Number         0  usb_core.o ABSOLUTE
    ..\\HARDWARE\\STM32_USB-FS-Device_Driver\\src\\usb_init.c 0x00000000   Number         0  usb_init.o ABSOLUTE
    ..\\HARDWARE\\STM32_USB-FS-Device_Driver\\src\\usb_int.c 0x00000000   Number         0  usb_int.o ABSOLUTE
    ..\\HARDWARE\\STM32_USB-FS-Device_Driver\\src\\usb_mem.c 0x00000000   Number         0  usb_mem.o ABSOLUTE
    ..\\HARDWARE\\STM32_USB-FS-Device_Driver\\src\\usb_regs.c 0x00000000   Number         0  usb_regs.o ABSOLUTE
    ..\\HARDWARE\\STM32_USB-FS-Device_Driver\\src\\usb_sil.c 0x00000000   Number         0  usb_sil.o ABSOLUTE
    ..\\HARDWARE\\SWD\\SWD_host.c            0x00000000   Number         0  swd_host.o ABSOLUTE
    ..\\HARDWARE\\W25QXX\\w25qxx.c           0x00000000   Number         0  w25qxx.o ABSOLUTE
    ..\\HARDWARE\\another\\hex2bin.c         0x00000000   Number         0  hex2bin.o ABSOLUTE
    ..\\HARDWARE\\another\\key.c             0x00000000   Number         0  key.o ABSOLUTE
    ..\\HARDWARE\\another\\led.c             0x00000000   Number         0  led.o ABSOLUTE
    ..\\HARDWARE\\ff9\\src\\diskio.c         0x00000000   Number         0  diskio.o ABSOLUTE
    ..\\STM32F10x_FWLib\\src\\misc.c         0x00000000   Number         0  misc.o ABSOLUTE
    ..\\STM32F10x_FWLib\\src\\stm32f10x_dma.c 0x00000000   Number         0  stm32f10x_dma.o ABSOLUTE
    ..\\STM32F10x_FWLib\\src\\stm32f10x_exti.c 0x00000000   Number         0  stm32f10x_exti.o ABSOLUTE
    ..\\STM32F10x_FWLib\\src\\stm32f10x_flash.c 0x00000000   Number         0  stm32f10x_flash.o ABSOLUTE
    ..\\STM32F10x_FWLib\\src\\stm32f10x_fsmc.c 0x00000000   Number         0  stm32f10x_fsmc.o ABSOLUTE
    ..\\STM32F10x_FWLib\\src\\stm32f10x_gpio.c 0x00000000   Number         0  stm32f10x_gpio.o ABSOLUTE
    ..\\STM32F10x_FWLib\\src\\stm32f10x_rcc.c 0x00000000   Number         0  stm32f10x_rcc.o ABSOLUTE
    ..\\STM32F10x_FWLib\\src\\stm32f10x_spi.c 0x00000000   Number         0  stm32f10x_spi.o ABSOLUTE
    ..\\STM32F10x_FWLib\\src\\stm32f10x_tim.c 0x00000000   Number         0  stm32f10x_tim.o ABSOLUTE
    ..\\STM32F10x_FWLib\\src\\stm32f10x_usart.c 0x00000000   Number         0  stm32f10x_usart.o ABSOLUTE
    ..\\SYSTEM\\SPI\\spi.c                   0x00000000   Number         0  spi.o ABSOLUTE
    ..\\SYSTEM\\delay\\delay.c               0x00000000   Number         0  delay.o ABSOLUTE
    ..\\SYSTEM\\sys\\sys.c                   0x00000000   Number         0  sys.o ABSOLUTE
    ..\\SYSTEM\\usart\\usart.c               0x00000000   Number         0  usart.o ABSOLUTE
    ..\\USER\\CMSIS-DAP.c                    0x00000000   Number         0  cmsis-dap.o ABSOLUTE
    ..\\USER\\main.c                         0x00000000   Number         0  main.o ABSOLUTE
    RL_ARM.s                                 0x00000000   Number         0  usbd_core_cdc.o ABSOLUTE
    RL_ARM.s                                 0x00000000   Number         0  usbd_hid.o ABSOLUTE
    RL_ARM.s                                 0x00000000   Number         0  usbd_cdc_acm.o ABSOLUTE
    RL_ARM.s                                 0x00000000   Number         0  usbd_core.o ABSOLUTE
    RL_ARM.s                                 0x00000000   Number         0  usbd_core_hid.o ABSOLUTE
    SRC\\usbd_core.c                         0x00000000   Number         0  usbd_core.o ABSOLUTE
    SRC\usbd_cdc_acm.c                       0x00000000   Number         0  usbd_cdc_acm.o ABSOLUTE
    SRC\usbd_core.c                          0x00000000   Number         0  usbd_core.o ABSOLUTE
    SRC\usbd_core_cdc.c                      0x00000000   Number         0  usbd_core_cdc.o ABSOLUTE
    SRC\usbd_core_hid.c                      0x00000000   Number         0  usbd_core_hid.o ABSOLUTE
    SRC\usbd_hid.c                           0x00000000   Number         0  usbd_hid.o ABSOLUTE
    cdrcmple.s                               0x00000000   Number         0  cdrcmple.o ABSOLUTE
    dc.s                                     0x00000000   Number         0  dc.o ABSOLUTE
    handlers.s                               0x00000000   Number         0  handlers.o ABSOLUTE
    init.s                                   0x00000000   Number         0  init.o ABSOLUTE
    RESET                                    0x08000000   Section      304  startup_stm32f10x_hd.o(RESET)
    .ARM.Collect$$$$00000000                 0x08000130   Section        0  entry.o(.ARM.Collect$$$$00000000)
    .ARM.Collect$$$$00000001                 0x08000130   Section        4  entry2.o(.ARM.Collect$$$$00000001)
    .ARM.Collect$$$$00000004                 0x08000134   Section        4  entry5.o(.ARM.Collect$$$$00000004)
    .ARM.Collect$$$$00000008                 0x08000138   Section        0  entry7b.o(.ARM.Collect$$$$00000008)
    .ARM.Collect$$$$0000000A                 0x08000138   Section        0  entry8b.o(.ARM.Collect$$$$0000000A)
    .ARM.Collect$$$$0000000B                 0x08000138   Section        8  entry9a.o(.ARM.Collect$$$$0000000B)
    .ARM.Collect$$$$0000000D                 0x08000140   Section        0  entry10a.o(.ARM.Collect$$$$0000000D)
    .ARM.Collect$$$$0000000F                 0x08000140   Section        0  entry11a.o(.ARM.Collect$$$$0000000F)
    .ARM.Collect$$$$00002712                 0x08000140   Section        4  entry2.o(.ARM.Collect$$$$00002712)
    __lit__00000000                          0x08000140   Data           4  entry2.o(.ARM.Collect$$$$00002712)
    .text                                    0x08000144   Section       36  startup_stm32f10x_hd.o(.text)
    .text                                    0x08000168   Section        0  uldiv.o(.text)
    .text                                    0x080001ca   Section        0  memcpya.o(.text)
    .text                                    0x080001ee   Section        0  memseta.o(.text)
    .text                                    0x08000212   Section        0  strstr.o(.text)
    .text                                    0x08000236   Section        0  strncpy.o(.text)
    .text                                    0x0800024e   Section        0  strlen.o(.text)
    .text                                    0x0800025c   Section        0  dmul.o(.text)
    .text                                    0x08000340   Section        0  ddiv.o(.text)
    .text                                    0x0800041e   Section        0  dfltui.o(.text)
    .text                                    0x08000438   Section        0  dfixui.o(.text)
    .text                                    0x0800046a   Section        0  llshl.o(.text)
    .text                                    0x08000488   Section        0  llushr.o(.text)
    .text                                    0x080004a8   Section        0  depilogue.o(.text)
    .text                                    0x080004a8   Section        0  iusefp.o(.text)
    .text                                    0x08000564   Section       36  init.o(.text)
    .text                                    0x08000588   Section        0  __dczerorl2.o(.text)
    i.Bot_Abort                              0x080005de   Section        0  usb_bot.o(i.Bot_Abort)
    i.ByteSwap                               0x0800061e   Section        0  usb_regs.o(i.ByteSwap)
    i.CBW_Decode                             0x0800062c   Section        0  usb_bot.o(i.CBW_Decode)
    i.CTR_HP                                 0x080008f0   Section        0  usb_int.o(i.CTR_HP)
    i.CTR_LP                                 0x080009b8   Section        0  usb_int.o(i.CTR_LP)
    i.Char2toByte                            0x08000c40   Section        0  hex2bin.o(i.Char2toByte)
    i.ChartoByte                             0x08000c5a   Section        0  hex2bin.o(i.ChartoByte)
    i.ClearDTOG_RX                           0x08000c80   Section        0  usb_regs.o(i.ClearDTOG_RX)
    i.ClearDTOG_TX                           0x08000cb4   Section        0  usb_regs.o(i.ClearDTOG_TX)
    i.ClearTrace                             0x08000ce8   Section        0  swo.o(i.ClearTrace)
    ClearTrace                               0x08000ce9   Thumb Code    26  swo.o(i.ClearTrace)
    i.Clear_Status_Out                       0x08000d18   Section        0  usb_regs.o(i.Clear_Status_Out)
    i.DAP_Connect                            0x08000d40   Section        0  dap.o(i.DAP_Connect)
    DAP_Connect                              0x08000d41   Thumb Code    64  dap.o(i.DAP_Connect)
    i.DAP_Delay                              0x08000d84   Section        0  dap.o(i.DAP_Delay)
    DAP_Delay                                0x08000d85   Thumb Code    58  dap.o(i.DAP_Delay)
    i.DAP_Disconnect                         0x08000dcc   Section        0  dap.o(i.DAP_Disconnect)
    DAP_Disconnect                           0x08000dcd   Thumb Code    22  dap.o(i.DAP_Disconnect)
    i.DAP_Dummy_Transfer                     0x08000de8   Section        0  dap.o(i.DAP_Dummy_Transfer)
    DAP_Dummy_Transfer                       0x08000de9   Thumb Code    56  dap.o(i.DAP_Dummy_Transfer)
    i.DAP_HostStatus                         0x08000e20   Section        0  dap.o(i.DAP_HostStatus)
    DAP_HostStatus                           0x08000e21   Thumb Code    66  dap.o(i.DAP_HostStatus)
    i.DAP_Info                               0x08000e6c   Section        0  dap.o(i.DAP_Info)
    DAP_Info                                 0x08000e6d   Thumb Code   120  dap.o(i.DAP_Info)
    i.DAP_JTAG_Configure                     0x08000ee8   Section        0  dap.o(i.DAP_JTAG_Configure)
    DAP_JTAG_Configure                       0x08000ee9   Thumb Code    82  dap.o(i.DAP_JTAG_Configure)
    i.DAP_JTAG_IDCode                        0x08000f40   Section        0  dap.o(i.DAP_JTAG_IDCode)
    DAP_JTAG_IDCode                          0x08000f41   Thumb Code    78  dap.o(i.DAP_JTAG_IDCode)
    i.DAP_JTAG_Sequence                      0x08000f98   Section        0  dap.o(i.DAP_JTAG_Sequence)
    DAP_JTAG_Sequence                        0x08000f99   Thumb Code    90  dap.o(i.DAP_JTAG_Sequence)
    i.DAP_JTAG_Transfer                      0x08000ff4   Section        0  dap.o(i.DAP_JTAG_Transfer)
    DAP_JTAG_Transfer                        0x08000ff5   Thumb Code   936  dap.o(i.DAP_JTAG_Transfer)
    i.DAP_JTAG_TransferBlock                 0x080013a4   Section        0  dap.o(i.DAP_JTAG_TransferBlock)
    DAP_JTAG_TransferBlock                   0x080013a5   Thumb Code   408  dap.o(i.DAP_JTAG_TransferBlock)
    i.DAP_JTAG_WriteAbort                    0x08001544   Section        0  dap.o(i.DAP_JTAG_WriteAbort)
    DAP_JTAG_WriteAbort                      0x08001545   Thumb Code    70  dap.o(i.DAP_JTAG_WriteAbort)
    i.DAP_ProcessCommand                     0x08001590   Section        0  dap.o(i.DAP_ProcessCommand)
    i.DAP_ProcessVendorCommand               0x08001706   Section        0  dap_vendor.o(i.DAP_ProcessVendorCommand)
    i.DAP_ResetTarget                        0x08001786   Section        0  dap.o(i.DAP_ResetTarget)
    DAP_ResetTarget                          0x08001787   Thumb Code    16  dap.o(i.DAP_ResetTarget)
    i.DAP_SWD_Configure                      0x08001798   Section        0  dap.o(i.DAP_SWD_Configure)
    DAP_SWD_Configure                        0x08001799   Thumb Code    34  dap.o(i.DAP_SWD_Configure)
    i.DAP_SWD_Transfer                       0x080017c0   Section        0  dap.o(i.DAP_SWD_Transfer)
    DAP_SWD_Transfer                         0x080017c1   Thumb Code   918  dap.o(i.DAP_SWD_Transfer)
    i.DAP_SWD_TransferBlock                  0x08001b60   Section        0  dap.o(i.DAP_SWD_TransferBlock)
    DAP_SWD_TransferBlock                    0x08001b61   Thumb Code   368  dap.o(i.DAP_SWD_TransferBlock)
    i.DAP_SWD_WriteAbort                     0x08001cd8   Section        0  dap.o(i.DAP_SWD_WriteAbort)
    DAP_SWD_WriteAbort                       0x08001cd9   Thumb Code    44  dap.o(i.DAP_SWD_WriteAbort)
    i.DAP_SWJ_Clock                          0x08001d04   Section        0  dap.o(i.DAP_SWJ_Clock)
    DAP_SWJ_Clock                            0x08001d05   Thumb Code   106  dap.o(i.DAP_SWJ_Clock)
    i.DAP_SWJ_Pins                           0x08001d7c   Section        0  dap.o(i.DAP_SWJ_Pins)
    DAP_SWJ_Pins                             0x08001d7d   Thumb Code   484  dap.o(i.DAP_SWJ_Pins)
    i.DAP_SWJ_Sequence                       0x08001f7c   Section        0  dap.o(i.DAP_SWJ_Sequence)
    DAP_SWJ_Sequence                         0x08001f7d   Thumb Code    40  dap.o(i.DAP_SWJ_Sequence)
    i.DAP_Setup                              0x08001fa4   Section        0  dap.o(i.DAP_Setup)
    i.DAP_Transfer                           0x08001ff4   Section        0  dap.o(i.DAP_Transfer)
    DAP_Transfer                             0x08001ff5   Thumb Code    62  dap.o(i.DAP_Transfer)
    i.DAP_TransferBlock                      0x08002038   Section        0  dap.o(i.DAP_TransferBlock)
    DAP_TransferBlock                        0x08002039   Thumb Code    94  dap.o(i.DAP_TransferBlock)
    i.DAP_TransferConfigure                  0x0800209c   Section        0  dap.o(i.DAP_TransferConfigure)
    DAP_TransferConfigure                    0x0800209d   Thumb Code    40  dap.o(i.DAP_TransferConfigure)
    i.DAP_WriteAbort                         0x080020cc   Section        0  dap.o(i.DAP_WriteAbort)
    DAP_WriteAbort                           0x080020cd   Thumb Code    60  dap.o(i.DAP_WriteAbort)
    i.DMA1_Channel1_Event                    0x0800210c   Section        0  dma_stm32f10x.o(i.DMA1_Channel1_Event)
    i.DMA1_Channel1_IRQHandler               0x08002110   Section        0  dma_stm32f10x.o(i.DMA1_Channel1_IRQHandler)
    i.DMA1_Channel2_Event                    0x0800212c   Section        0  dma_stm32f10x.o(i.DMA1_Channel2_Event)
    i.DMA1_Channel2_IRQHandler               0x08002130   Section        0  dma_stm32f10x.o(i.DMA1_Channel2_IRQHandler)
    i.DMA1_Channel3_Event                    0x0800214c   Section        0  dma_stm32f10x.o(i.DMA1_Channel3_Event)
    i.DMA1_Channel3_IRQHandler               0x08002150   Section        0  dma_stm32f10x.o(i.DMA1_Channel3_IRQHandler)
    i.DMA1_Channel4_Event                    0x0800216c   Section        0  dma_stm32f10x.o(i.DMA1_Channel4_Event)
    i.DMA1_Channel4_IRQHandler               0x08002170   Section        0  dma_stm32f10x.o(i.DMA1_Channel4_IRQHandler)
    i.DMA1_Channel5_Event                    0x0800218c   Section        0  dma_stm32f10x.o(i.DMA1_Channel5_Event)
    i.DMA1_Channel5_IRQHandler               0x08002190   Section        0  dma_stm32f10x.o(i.DMA1_Channel5_IRQHandler)
    i.DMA1_Channel6_Event                    0x080021ac   Section        0  usart_stm32f10x.o(i.DMA1_Channel6_Event)
    i.DMA1_Channel6_IRQHandler               0x080021bc   Section        0  dma_stm32f10x.o(i.DMA1_Channel6_IRQHandler)
    i.DMA1_Channel7_Event                    0x080021d8   Section        0  usart_stm32f10x.o(i.DMA1_Channel7_Event)
    i.DMA1_Channel7_IRQHandler               0x080021e8   Section        0  dma_stm32f10x.o(i.DMA1_Channel7_IRQHandler)
    i.DMA2_Channel1_Event                    0x08002204   Section        0  dma_stm32f10x.o(i.DMA2_Channel1_Event)
    i.DMA2_Channel1_IRQHandler               0x08002208   Section        0  dma_stm32f10x.o(i.DMA2_Channel1_IRQHandler)
    i.DMA2_Channel2_Event                    0x08002224   Section        0  dma_stm32f10x.o(i.DMA2_Channel2_Event)
    i.DMA2_Channel2_IRQHandler               0x08002228   Section        0  dma_stm32f10x.o(i.DMA2_Channel2_IRQHandler)
    i.DMA2_Channel3_Event                    0x08002248   Section        0  dma_stm32f10x.o(i.DMA2_Channel3_Event)
    i.DMA2_Channel3_IRQHandler               0x0800224c   Section        0  dma_stm32f10x.o(i.DMA2_Channel3_IRQHandler)
    i.DMA2_Channel4_5_IRQHandler             0x0800226c   Section        0  dma_stm32f10x.o(i.DMA2_Channel4_5_IRQHandler)
    i.DMA2_Channel4_Event                    0x080022a4   Section        0  dma_stm32f10x.o(i.DMA2_Channel4_Event)
    i.DMA2_Channel5_Event                    0x080022a6   Section        0  dma_stm32f10x.o(i.DMA2_Channel5_Event)
    i.DMA_ChannelInitialize                  0x080022a8   Section        0  dma_stm32f10x.o(i.DMA_ChannelInitialize)
    i.DMA_ChannelUninitialize                0x08002478   Section        0  dma_stm32f10x.o(i.DMA_ChannelUninitialize)
    i.DMA_ClearFlag                          0x080025dc   Section        0  stm32f10x_dma.o(i.DMA_ClearFlag)
    i.DMA_Cmd                                0x080025f8   Section        0  stm32f10x_dma.o(i.DMA_Cmd)
    i.DMA_DeInit                             0x08002610   Section        0  stm32f10x_dma.o(i.DMA_DeInit)
    i.DMA_GetCurrDataCounter                 0x0800275c   Section        0  stm32f10x_dma.o(i.DMA_GetCurrDataCounter)
    i.DMA_ITConfig                           0x08002764   Section        0  stm32f10x_dma.o(i.DMA_ITConfig)
    i.DMA_Init                               0x08002776   Section        0  stm32f10x_dma.o(i.DMA_Init)
    i.DMA_SetCurrDataCounter                 0x080027b2   Section        0  stm32f10x_dma.o(i.DMA_SetCurrDataCounter)
    i.DataStageIn                            0x080027b8   Section        0  usb_core.o(i.DataStageIn)
    DataStageIn                              0x080027b9   Thumb Code   166  usb_core.o(i.DataStageIn)
    i.DataStageOut                           0x08002878   Section        0  usb_core.o(i.DataStageOut)
    DataStageOut                             0x08002879   Thumb Code   166  usb_core.o(i.DataStageOut)
    i.Data_Setup0                            0x08002934   Section        0  usb_core.o(i.Data_Setup0)
    Data_Setup0                              0x08002935   Thumb Code   628  usb_core.o(i.Data_Setup0)
    i.Delayms                                0x08002bcc   Section        0  dap.o(i.Delayms)
    i.Do_DAPUSB                              0x08002bf8   Section        0  cmsis-dap.o(i.Do_DAPUSB)
    i.Draw_Logo                              0x08002c00   Section        0  main.o(i.Draw_Logo)
    i.Draw_Main                              0x08002c3c   Section        0  main.o(i.Draw_Main)
    i.Draw_Menu                              0x08004210   Section        0  main.o(i.Draw_Menu)
    i.EP1_IN_Callback                        0x08004408   Section        0  usb_endp.o(i.EP1_IN_Callback)
    i.EP2_OUT_Callback                       0x08004410   Section        0  usb_endp.o(i.EP2_OUT_Callback)
    i.EP4_IN_Callback                        0x08004418   Section        0  usb_endp.o(i.EP4_IN_Callback)
    i.EP6_OUT_Callback                       0x08004424   Section        0  usb_endp.o(i.EP6_OUT_Callback)
    i.EP_Reset                               0x0800447c   Section        0  usbd_stm32f103.o(i.EP_Reset)
    i.EP_Status                              0x080044bc   Section        0  usbd_stm32f103.o(i.EP_Status)
    i.EXTI_ClearITPendingBit                 0x08004508   Section        0  stm32f10x_exti.o(i.EXTI_ClearITPendingBit)
    i.EXTI_Init                              0x08004514   Section        0  stm32f10x_exti.o(i.EXTI_Init)
    i.FLASH_ErasePage                        0x080045a8   Section        0  stm32f10x_flash.o(i.FLASH_ErasePage)
    i.FLASH_GetBank1Status                   0x080045f4   Section        0  stm32f10x_flash.o(i.FLASH_GetBank1Status)
    i.FLASH_HEX_SWD                          0x08004628   Section        0  main.o(i.FLASH_HEX_SWD)
    i.FLASH_Lock                             0x08004ba8   Section        0  stm32f10x_flash.o(i.FLASH_Lock)
    i.FLASH_ProgramHalfWord                  0x08004bbc   Section        0  stm32f10x_flash.o(i.FLASH_ProgramHalfWord)
    i.FLASH_SWD                              0x08004bfc   Section        0  main.o(i.FLASH_SWD)
    i.FLASH_Unlock                           0x0800500c   Section        0  stm32f10x_flash.o(i.FLASH_Unlock)
    i.FLASH_WaitForLastOperation             0x08005024   Section        0  stm32f10x_flash.o(i.FLASH_WaitForLastOperation)
    i.GPIO_AFConfigure                       0x0800504c   Section        0  gpio_stm32f10x.o(i.GPIO_AFConfigure)
    i.GPIO_GetPortClockState                 0x080050e8   Section        0  gpio_stm32f10x.o(i.GPIO_GetPortClockState)
    i.GPIO_Init                              0x08005180   Section        0  stm32f10x_gpio.o(i.GPIO_Init)
    i.GPIO_PinConfigure                      0x08005296   Section        0  gpio_stm32f10x.o(i.GPIO_PinConfigure)
    i.GPIO_PinRemapConfig                    0x08005310   Section        0  stm32f10x_gpio.o(i.GPIO_PinRemapConfig)
    i.GPIO_PortClock                         0x080053a0   Section        0  gpio_stm32f10x.o(i.GPIO_PortClock)
    i.GPIO_ResetBits                         0x080054dc   Section        0  stm32f10x_gpio.o(i.GPIO_ResetBits)
    i.GPIO_SetBits                           0x080054e0   Section        0  stm32f10x_gpio.o(i.GPIO_SetBits)
    i.GetEPRxAddr                            0x080054e4   Section        0  usb_regs.o(i.GetEPRxAddr)
    i.GetEPRxCount                           0x08005504   Section        0  usb_regs.o(i.GetEPRxCount)
    i.GetEPTxAddr                            0x08005528   Section        0  usb_regs.o(i.GetEPTxAddr)
    i.GetTraceCount                          0x08005548   Section        0  swo.o(i.GetTraceCount)
    GetTraceCount                            0x08005549   Thumb Code    54  swo.o(i.GetTraceCount)
    i.GetTraceSpace                          0x08005590   Section        0  swo.o(i.GetTraceSpace)
    GetTraceSpace                            0x08005591   Thumb Code    36  swo.o(i.GetTraceSpace)
    i.GetTraceStatus                         0x080055bc   Section        0  swo.o(i.GetTraceStatus)
    GetTraceStatus                           0x080055bd   Thumb Code    34  swo.o(i.GetTraceStatus)
    i.Get_SerialNum                          0x080055ec   Section        0  hw_config.o(i.Get_SerialNum)
    i.HID_ProcessCommand                     0x08005634   Section        0  usbd_user_hid.o(i.HID_ProcessCommand)
    i.HardFault_Handler                      0x080057e4   Section        0  cmsis-dap.o(i.HardFault_Handler)
    i.In0_Process                            0x0800586c   Section        0  usb_core.o(i.In0_Process)
    i.Init_DAPUSB                            0x080058dc   Section        0  cmsis-dap.o(i.Init_DAPUSB)
    i.Init_device                            0x08005918   Section        0  main.o(i.Init_device)
    i.JTAG2SWD                               0x080059a0   Section        0  swd_host.o(i.JTAG2SWD)
    JTAG2SWD                                 0x080059a1   Thumb Code    56  swd_host.o(i.JTAG2SWD)
    i.JTAG_IR                                0x080059d8   Section        0  jtag_dp.o(i.JTAG_IR)
    i.JTAG_IR_Fast                           0x080059f8   Section        0  jtag_dp.o(i.JTAG_IR_Fast)
    i.JTAG_IR_Slow                           0x08005b3c   Section        0  jtag_dp.o(i.JTAG_IR_Slow)
    i.JTAG_ReadIDCode                        0x08005dcc   Section        0  jtag_dp.o(i.JTAG_ReadIDCode)
    i.JTAG_Sequence                          0x08005f74   Section        0  jtag_dp.o(i.JTAG_Sequence)
    i.JTAG_Transfer                          0x08006014   Section        0  jtag_dp.o(i.JTAG_Transfer)
    i.JTAG_TransferFast                      0x08006038   Section        0  jtag_dp.o(i.JTAG_TransferFast)
    i.JTAG_TransferSlow                      0x080062b0   Section        0  jtag_dp.o(i.JTAG_TransferSlow)
    i.JTAG_WriteAbort                        0x08006778   Section        0  jtag_dp.o(i.JTAG_WriteAbort)
    i.Key_Init                               0x08006a4c   Section        0  key.o(i.Key_Init)
    i.LEDS_SETUP                             0x08006a98   Section        0  cmsis-dap.o(i.LEDS_SETUP)
    i.LED_Init                               0x08006ae8   Section        0  led.o(i.LED_Init)
    i.LedConnectedOff                        0x08006b1c   Section        0  cmsis-dap.o(i.LedConnectedOff)
    i.LedConnectedOn                         0x08006b2c   Section        0  cmsis-dap.o(i.LedConnectedOn)
    i.LedConnectedOut                        0x08006b3c   Section        0  cmsis-dap.o(i.LedConnectedOut)
    i.LedRunningOff                          0x08006b68   Section        0  cmsis-dap.o(i.LedRunningOff)
    i.LedRunningOn                           0x08006b78   Section        0  cmsis-dap.o(i.LedRunningOn)
    i.LedRunningOut                          0x08006b88   Section        0  cmsis-dap.o(i.LedRunningOut)
    i.MAL_Config                             0x08006bd4   Section        0  hw_config.o(i.MAL_Config)
    i.MAL_GetStatus                          0x08006bde   Section        0  mass_mal.o(i.MAL_GetStatus)
    i.MAL_Init                               0x08006bf4   Section        0  mass_mal.o(i.MAL_Init)
    i.MAL_Read                               0x08006c38   Section        0  mass_mal.o(i.MAL_Read)
    i.MAL_Write                              0x08006c5e   Section        0  mass_mal.o(i.MAL_Write)
    i.MASS_Data_Setup                        0x08006c8c   Section        0  usb_prop.o(i.MASS_Data_Setup)
    i.MASS_GetConfigDescriptor               0x08006cf0   Section        0  usb_prop.o(i.MASS_GetConfigDescriptor)
    i.MASS_GetDeviceDescriptor               0x08006d04   Section        0  usb_prop.o(i.MASS_GetDeviceDescriptor)
    i.MASS_GetStringDescriptor               0x08006d18   Section        0  usb_prop.o(i.MASS_GetStringDescriptor)
    i.MASS_Get_Interface_Setting             0x08006d40   Section        0  usb_prop.o(i.MASS_Get_Interface_Setting)
    i.MASS_NoData_Setup                      0x08006d58   Section        0  usb_prop.o(i.MASS_NoData_Setup)
    i.MASS_Reset                             0x08006d80   Section        0  usb_prop.o(i.MASS_Reset)
    i.MASS_Status_In                         0x08006ee0   Section        0  usb_prop.o(i.MASS_Status_In)
    i.MASS_Status_Out                        0x08006f10   Section        0  usb_prop.o(i.MASS_Status_Out)
    i.MASS_init                              0x08006f14   Section        0  usb_prop.o(i.MASS_init)
    i.Mass_Storage_ClearFeature              0x08006f3c   Section        0  usb_prop.o(i.Mass_Storage_ClearFeature)
    i.Mass_Storage_In                        0x08006f58   Section        0  usb_bot.o(i.Mass_Storage_In)
    i.Mass_Storage_Out                       0x08006fcc   Section        0  usb_bot.o(i.Mass_Storage_Out)
    i.Mass_Storage_SetConfiguration          0x0800705c   Section        0  usb_prop.o(i.Mass_Storage_SetConfiguration)
    i.Mass_Storage_SetDeviceAddress          0x0800708c   Section        0  usb_prop.o(i.Mass_Storage_SetDeviceAddress)
    i.NOP_Process                            0x08007098   Section        0  usb_core.o(i.NOP_Process)
    i.NVIC_ClearPendingIRQ                   0x0800709c   Section        0  dma_stm32f10x.o(i.NVIC_ClearPendingIRQ)
    NVIC_ClearPendingIRQ                     0x0800709d   Thumb Code    18  dma_stm32f10x.o(i.NVIC_ClearPendingIRQ)
    i.NVIC_DisableIRQ                        0x080070b4   Section        0  dma_stm32f10x.o(i.NVIC_DisableIRQ)
    NVIC_DisableIRQ                          0x080070b5   Thumb Code    18  dma_stm32f10x.o(i.NVIC_DisableIRQ)
    i.NVIC_EnableIRQ                         0x080070cc   Section        0  dma_stm32f10x.o(i.NVIC_EnableIRQ)
    NVIC_EnableIRQ                           0x080070cd   Thumb Code    22  dma_stm32f10x.o(i.NVIC_EnableIRQ)
    i.NVIC_Init                              0x080070e4   Section        0  misc.o(i.NVIC_Init)
    i.NVIC_PriorityGroupConfig               0x08007154   Section        0  misc.o(i.NVIC_PriorityGroupConfig)
    i.NoData_Setup0                          0x08007168   Section        0  usb_core.o(i.NoData_Setup0)
    NoData_Setup0                            0x08007169   Thumb Code   290  usb_core.o(i.NoData_Setup0)
    i.OLED_Clear                             0x080072a0   Section        0  oled.o(i.OLED_Clear)
    i.OLED_DrawBMP                           0x080072e0   Section        0  oled.o(i.OLED_DrawBMP)
    i.OLED_Init                              0x08007358   Section        0  oled.o(i.OLED_Init)
    i.OLED_Set_Pos                           0x08007498   Section        0  oled.o(i.OLED_Set_Pos)
    i.OLED_ShowChar                          0x080074c8   Section        0  oled.o(i.OLED_ShowChar)
    i.OLED_ShowString                        0x0800753c   Section        0  oled.o(i.OLED_ShowString)
    i.OLED_WR_Byte                           0x080075a0   Section        0  oled.o(i.OLED_WR_Byte)
    i.Out0_Process                           0x08007614   Section        0  usb_core.o(i.Out0_Process)
    i.PIN_SWCLK_TCK_CLR                      0x08007664   Section        0  cmsis-dap.o(i.PIN_SWCLK_TCK_CLR)
    PIN_SWCLK_TCK_CLR                        0x08007665   Thumb Code    20  cmsis-dap.o(i.PIN_SWCLK_TCK_CLR)
    i.PIN_SWCLK_TCK_CLR                      0x08007680   Section        0  sw_dp.o(i.PIN_SWCLK_TCK_CLR)
    PIN_SWCLK_TCK_CLR                        0x08007681   Thumb Code    20  sw_dp.o(i.PIN_SWCLK_TCK_CLR)
    i.PIN_SWCLK_TCK_CLR                      0x0800769c   Section        0  jtag_dp.o(i.PIN_SWCLK_TCK_CLR)
    PIN_SWCLK_TCK_CLR                        0x0800769d   Thumb Code    20  jtag_dp.o(i.PIN_SWCLK_TCK_CLR)
    i.PIN_SWCLK_TCK_IN                       0x080076b8   Section        0  dap.o(i.PIN_SWCLK_TCK_IN)
    PIN_SWCLK_TCK_IN                         0x080076b9   Thumb Code    22  dap.o(i.PIN_SWCLK_TCK_IN)
    i.PIN_SWCLK_TCK_SET                      0x080076d8   Section        0  cmsis-dap.o(i.PIN_SWCLK_TCK_SET)
    PIN_SWCLK_TCK_SET                        0x080076d9   Thumb Code    20  cmsis-dap.o(i.PIN_SWCLK_TCK_SET)
    i.PIN_SWCLK_TCK_SET                      0x080076f4   Section        0  sw_dp.o(i.PIN_SWCLK_TCK_SET)
    PIN_SWCLK_TCK_SET                        0x080076f5   Thumb Code    20  sw_dp.o(i.PIN_SWCLK_TCK_SET)
    i.PIN_SWCLK_TCK_SET                      0x08007710   Section        0  jtag_dp.o(i.PIN_SWCLK_TCK_SET)
    PIN_SWCLK_TCK_SET                        0x08007711   Thumb Code    20  jtag_dp.o(i.PIN_SWCLK_TCK_SET)
    i.PIN_SWDIO_IN                           0x0800772c   Section        0  cmsis-dap.o(i.PIN_SWDIO_IN)
    PIN_SWDIO_IN                             0x0800772d   Thumb Code    40  cmsis-dap.o(i.PIN_SWDIO_IN)
    i.PIN_SWDIO_IN                           0x0800775c   Section        0  sw_dp.o(i.PIN_SWDIO_IN)
    PIN_SWDIO_IN                             0x0800775d   Thumb Code    40  sw_dp.o(i.PIN_SWDIO_IN)
    i.PIN_SWDIO_OUT                          0x0800778c   Section        0  cmsis-dap.o(i.PIN_SWDIO_OUT)
    PIN_SWDIO_OUT                            0x0800778d   Thumb Code    48  cmsis-dap.o(i.PIN_SWDIO_OUT)
    i.PIN_SWDIO_OUT                          0x080077c4   Section        0  sw_dp.o(i.PIN_SWDIO_OUT)
    PIN_SWDIO_OUT                            0x080077c5   Thumb Code    48  sw_dp.o(i.PIN_SWDIO_OUT)
    i.PIN_SWDIO_OUT_DISABLE                  0x080077fc   Section        0  sw_dp.o(i.PIN_SWDIO_OUT_DISABLE)
    PIN_SWDIO_OUT_DISABLE                    0x080077fd   Thumb Code    52  sw_dp.o(i.PIN_SWDIO_OUT_DISABLE)
    i.PIN_SWDIO_OUT_ENABLE                   0x08007838   Section        0  cmsis-dap.o(i.PIN_SWDIO_OUT_ENABLE)
    PIN_SWDIO_OUT_ENABLE                     0x08007839   Thumb Code    52  cmsis-dap.o(i.PIN_SWDIO_OUT_ENABLE)
    i.PIN_SWDIO_OUT_ENABLE                   0x08007874   Section        0  sw_dp.o(i.PIN_SWDIO_OUT_ENABLE)
    PIN_SWDIO_OUT_ENABLE                     0x08007875   Thumb Code    52  sw_dp.o(i.PIN_SWDIO_OUT_ENABLE)
    i.PIN_SWDIO_TMS_CLR                      0x080078b0   Section        0  jtag_dp.o(i.PIN_SWDIO_TMS_CLR)
    PIN_SWDIO_TMS_CLR                        0x080078b1   Thumb Code    30  jtag_dp.o(i.PIN_SWDIO_TMS_CLR)
    i.PIN_SWDIO_TMS_IN                       0x080078d8   Section        0  dap.o(i.PIN_SWDIO_TMS_IN)
    PIN_SWDIO_TMS_IN                         0x080078d9   Thumb Code    32  dap.o(i.PIN_SWDIO_TMS_IN)
    i.PIN_SWDIO_TMS_SET                      0x08007900   Section        0  jtag_dp.o(i.PIN_SWDIO_TMS_SET)
    PIN_SWDIO_TMS_SET                        0x08007901   Thumb Code    30  jtag_dp.o(i.PIN_SWDIO_TMS_SET)
    i.PIN_TDI_IN                             0x08007928   Section        0  dap.o(i.PIN_TDI_IN)
    PIN_TDI_IN                               0x08007929   Thumb Code    10  dap.o(i.PIN_TDI_IN)
    i.PIN_TDI_OUT                            0x08007938   Section        0  jtag_dp.o(i.PIN_TDI_OUT)
    PIN_TDI_OUT                              0x08007939   Thumb Code    24  jtag_dp.o(i.PIN_TDI_OUT)
    i.PIN_TDO_IN                             0x08007954   Section        0  jtag_dp.o(i.PIN_TDO_IN)
    PIN_TDO_IN                               0x08007955   Thumb Code    10  jtag_dp.o(i.PIN_TDO_IN)
    i.PMAToUserBufferCopy                    0x08007964   Section        0  usb_mem.o(i.PMAToUserBufferCopy)
    i.PORT_JTAG_SETUP                        0x0800798c   Section        0  cmsis-dap.o(i.PORT_JTAG_SETUP)
    i.PORT_OFF                               0x080079f4   Section        0  cmsis-dap.o(i.PORT_OFF)
    i.PORT_SWD_SETUP                         0x08007a4c   Section        0  cmsis-dap.o(i.PORT_SWD_SETUP)
    i.PORT_USB_CONNECT_SETUP                 0x08007ab4   Section        0  cmsis-dap.o(i.PORT_USB_CONNECT_SETUP)
    i.Post0_Process                          0x08007ae0   Section        0  usb_core.o(i.Post0_Process)
    i.PowerOn                                0x08007b28   Section        0  usb_pwr.o(i.PowerOn)
    i.RCC_AHBPeriphClockCmd                  0x08007b68   Section        0  stm32f10x_rcc.o(i.RCC_AHBPeriphClockCmd)
    i.RCC_APB1PeriphClockCmd                 0x08007b88   Section        0  stm32f10x_rcc.o(i.RCC_APB1PeriphClockCmd)
    i.RCC_APB2PeriphClockCmd                 0x08007ba8   Section        0  stm32f10x_rcc.o(i.RCC_APB2PeriphClockCmd)
    i.RCC_GetClocksFreq                      0x08007bc8   Section        0  stm32f10x_rcc.o(i.RCC_GetClocksFreq)
    i.RCC_USBCLKConfig                       0x08007c9c   Section        0  stm32f10x_rcc.o(i.RCC_USBCLKConfig)
    i.RST_Transfer                           0x08007ca8   Section        0  cmsis-dap.o(i.RST_Transfer)
    i.Read_Memory                            0x08008038   Section        0  memory.o(i.Read_Memory)
    i.SCSI_Address_Management                0x0800813c   Section        0  usb_scsi.o(i.SCSI_Address_Management)
    i.SCSI_Format_Cmd                        0x080081c8   Section        0  usb_scsi.o(i.SCSI_Format_Cmd)
    i.SCSI_Inquiry_Cmd                       0x080081f8   Section        0  usb_scsi.o(i.SCSI_Inquiry_Cmd)
    i.SCSI_Invalid_Cmd                       0x08008240   Section        0  usb_scsi.o(i.SCSI_Invalid_Cmd)
    i.SCSI_ModeSense10_Cmd                   0x08008284   Section        0  usb_scsi.o(i.SCSI_ModeSense10_Cmd)
    i.SCSI_ModeSense6_Cmd                    0x08008298   Section        0  usb_scsi.o(i.SCSI_ModeSense6_Cmd)
    i.SCSI_Read10_Cmd                        0x080082ac   Section        0  usb_scsi.o(i.SCSI_Read10_Cmd)
    i.SCSI_ReadCapacity10_Cmd                0x08008324   Section        0  usb_scsi.o(i.SCSI_ReadCapacity10_Cmd)
    i.SCSI_ReadFormatCapacity_Cmd            0x080083c0   Section        0  usb_scsi.o(i.SCSI_ReadFormatCapacity_Cmd)
    i.SCSI_RequestSense_Cmd                  0x08008448   Section        0  usb_scsi.o(i.SCSI_RequestSense_Cmd)
    i.SCSI_Start_Stop_Unit_Cmd               0x08008470   Section        0  usb_scsi.o(i.SCSI_Start_Stop_Unit_Cmd)
    i.SCSI_TestUnitReady_Cmd                 0x08008480   Section        0  usb_scsi.o(i.SCSI_TestUnitReady_Cmd)
    i.SCSI_Verify10_Cmd                      0x080084b8   Section        0  usb_scsi.o(i.SCSI_Verify10_Cmd)
    i.SCSI_Write10_Cmd                       0x080084f8   Section        0  usb_scsi.o(i.SCSI_Write10_Cmd)
    i.SPI2_Init                              0x08008570   Section        0  spi.o(i.SPI2_Init)
    i.SPI2_ReadWriteByte                     0x08008604   Section        0  spi.o(i.SPI2_ReadWriteByte)
    i.SPI2_SetSpeed                          0x08008658   Section        0  spi.o(i.SPI2_SetSpeed)
    i.SPI_Cmd                                0x08008680   Section        0  stm32f10x_spi.o(i.SPI_Cmd)
    i.SPI_I2S_GetFlagStatus                  0x08008698   Section        0  stm32f10x_spi.o(i.SPI_I2S_GetFlagStatus)
    i.SPI_I2S_ReceiveData                    0x080086aa   Section        0  stm32f10x_spi.o(i.SPI_I2S_ReceiveData)
    i.SPI_I2S_SendData                       0x080086b0   Section        0  stm32f10x_spi.o(i.SPI_I2S_SendData)
    i.SPI_Init                               0x080086b4   Section        0  stm32f10x_spi.o(i.SPI_Init)
    i.SWD_Transfer                           0x080086f0   Section        0  sw_dp.o(i.SWD_Transfer)
    i.SWD_TransferFast                       0x08008714   Section        0  sw_dp.o(i.SWD_TransferFast)
    i.SWD_TransferSlow                       0x08008a30   Section        0  sw_dp.o(i.SWD_TransferSlow)
    i.SWJ_Sequence                           0x08009208   Section        0  sw_dp.o(i.SWJ_Sequence)
    i.SWO_Baudrate                           0x080092b4   Section        0  swo.o(i.SWO_Baudrate)
    i.SWO_Control                            0x08009310   Section        0  swo.o(i.SWO_Control)
    i.SWO_Data                               0x08009370   Section        0  swo.o(i.SWO_Data)
    i.SWO_Mode                               0x08009440   Section        0  swo.o(i.SWO_Mode)
    i.SWO_Status                             0x080094b0   Section        0  swo.o(i.SWO_Status)
    i.SWO_Transport                          0x08009500   Section        0  swo.o(i.SWO_Transport)
    i.Scan_Key                               0x08009548   Section        0  main.o(i.Scan_Key)
    i.SetBTABLE                              0x080095c8   Section        0  usb_regs.o(i.SetBTABLE)
    i.SetDeviceAddress                       0x080095d8   Section        0  usb_core.o(i.SetDeviceAddress)
    i.SetEPRxAddr                            0x08009628   Section        0  usb_regs.o(i.SetEPRxAddr)
    i.SetEPRxCount                           0x0800964c   Section        0  usb_regs.o(i.SetEPRxCount)
    i.SetEPRxStatus                          0x08009698   Section        0  usb_regs.o(i.SetEPRxStatus)
    i.SetEPRxValid                           0x080096d8   Section        0  usb_regs.o(i.SetEPRxValid)
    i.SetEPTxAddr                            0x0800970c   Section        0  usb_regs.o(i.SetEPTxAddr)
    i.SetEPTxCount                           0x0800972c   Section        0  usb_regs.o(i.SetEPTxCount)
    i.SetEPTxStatus                          0x08009748   Section        0  usb_regs.o(i.SetEPTxStatus)
    i.SetEPTxValid                           0x08009788   Section        0  usb_regs.o(i.SetEPTxValid)
    i.SetEPType                              0x080097bc   Section        0  usb_regs.o(i.SetEPType)
    i.SetSysClock                            0x080097e0   Section        0  system_stm32f10x.o(i.SetSysClock)
    SetSysClock                              0x080097e1   Thumb Code     8  system_stm32f10x.o(i.SetSysClock)
    i.SetSysClockTo72                        0x080097e8   Section        0  system_stm32f10x.o(i.SetSysClockTo72)
    SetSysClockTo72                          0x080097e9   Thumb Code   214  system_stm32f10x.o(i.SetSysClockTo72)
    i.SetTraceError                          0x080098c8   Section        0  swo.o(i.SetTraceError)
    SetTraceError                            0x080098c9   Thumb Code    20  swo.o(i.SetTraceError)
    i.Set_CSW                                0x080098e4   Section        0  usb_bot.o(i.Set_CSW)
    i.Set_Scsi_Sense_Data                    0x08009920   Section        0  usb_scsi.o(i.Set_Scsi_Sense_Data)
    i.Set_System                             0x0800992c   Section        0  hw_config.o(i.Set_System)
    i.Set_USBClock                           0x08009948   Section        0  hw_config.o(i.Set_USBClock)
    i.Setup0_Process                         0x0800995c   Section        0  usb_core.o(i.Setup0_Process)
    i.Standard_ClearFeature                  0x08009a14   Section        0  usb_core.o(i.Standard_ClearFeature)
    i.Standard_GetConfiguration              0x08009b80   Section        0  usb_core.o(i.Standard_GetConfiguration)
    i.Standard_GetDescriptorData             0x08009bac   Section        0  usb_core.o(i.Standard_GetDescriptorData)
    i.Standard_GetInterface                  0x08009bd0   Section        0  usb_core.o(i.Standard_GetInterface)
    i.Standard_GetStatus                     0x08009bfc   Section        0  usb_core.o(i.Standard_GetStatus)
    i.Standard_SetConfiguration              0x08009cfc   Section        0  usb_core.o(i.Standard_SetConfiguration)
    i.Standard_SetDeviceFeature              0x08009d44   Section        0  usb_core.o(i.Standard_SetDeviceFeature)
    i.Standard_SetEndPointFeature            0x08009d6c   Section        0  usb_core.o(i.Standard_SetEndPointFeature)
    i.Standard_SetInterface                  0x08009e3c   Section        0  usb_core.o(i.Standard_SetInterface)
    i.SysTick_CLKSourceConfig                0x08009ea8   Section        0  misc.o(i.SysTick_CLKSourceConfig)
    i.SysTick_Handler                        0x08009ed0   Section        0  cmsis-dap.o(i.SysTick_Handler)
    i.SystemInit                             0x08009f44   Section        0  system_stm32f10x.o(i.SystemInit)
    i.Transfer_Data_Request                  0x08009fa4   Section        0  usb_bot.o(i.Transfer_Data_Request)
    i.UART_Callback                          0x08009fdc   Section        0  usbd_user_cdc_acm.o(i.UART_Callback)
    UART_Callback                            0x08009fdd   Thumb Code    80  usbd_user_cdc_acm.o(i.UART_Callback)
    i.UART_SWO_Baudrate                      0x0800a040   Section        0  swo.o(i.UART_SWO_Baudrate)
    i.UART_SWO_Capture                       0x0800a10c   Section        0  swo.o(i.UART_SWO_Capture)
    i.UART_SWO_Control                       0x0800a124   Section        0  swo.o(i.UART_SWO_Control)
    i.UART_SWO_Mode                          0x0800a1ac   Section        0  swo.o(i.UART_SWO_Mode)
    i.UART_SWO_Update                        0x0800a208   Section        0  swo.o(i.UART_SWO_Update)
    i.USART1_IRQHandler                      0x0800a220   Section        0  usart.o(i.USART1_IRQHandler)
    i.USART2_Control                         0x0800a278   Section        0  usart_stm32f10x.o(i.USART2_Control)
    USART2_Control                           0x0800a279   Thumb Code    18  usart_stm32f10x.o(i.USART2_Control)
    i.USART2_GetCapabilities                 0x0800a290   Section        0  usart_stm32f10x.o(i.USART2_GetCapabilities)
    USART2_GetCapabilities                   0x0800a291   Thumb Code    12  usart_stm32f10x.o(i.USART2_GetCapabilities)
    i.USART2_GetModemStatus                  0x0800a2a0   Section        0  usart_stm32f10x.o(i.USART2_GetModemStatus)
    USART2_GetModemStatus                    0x0800a2a1   Thumb Code    12  usart_stm32f10x.o(i.USART2_GetModemStatus)
    i.USART2_GetRxCount                      0x0800a2b0   Section        0  usart_stm32f10x.o(i.USART2_GetRxCount)
    USART2_GetRxCount                        0x0800a2b1   Thumb Code    10  usart_stm32f10x.o(i.USART2_GetRxCount)
    i.USART2_GetStatus                       0x0800a2c0   Section        0  usart_stm32f10x.o(i.USART2_GetStatus)
    USART2_GetStatus                         0x0800a2c1   Thumb Code    12  usart_stm32f10x.o(i.USART2_GetStatus)
    i.USART2_GetTxCount                      0x0800a2d0   Section        0  usart_stm32f10x.o(i.USART2_GetTxCount)
    USART2_GetTxCount                        0x0800a2d1   Thumb Code    10  usart_stm32f10x.o(i.USART2_GetTxCount)
    i.USART2_IRQHandler                      0x0800a2e0   Section        0  usart_stm32f10x.o(i.USART2_IRQHandler)
    i.USART2_Initialize                      0x0800a2f0   Section        0  usart_stm32f10x.o(i.USART2_Initialize)
    USART2_Initialize                        0x0800a2f1   Thumb Code    14  usart_stm32f10x.o(i.USART2_Initialize)
    i.USART2_PowerControl                    0x0800a304   Section        0  usart_stm32f10x.o(i.USART2_PowerControl)
    USART2_PowerControl                      0x0800a305   Thumb Code    14  usart_stm32f10x.o(i.USART2_PowerControl)
    i.USART2_Receive                         0x0800a318   Section        0  usart_stm32f10x.o(i.USART2_Receive)
    USART2_Receive                           0x0800a319   Thumb Code    18  usart_stm32f10x.o(i.USART2_Receive)
    i.USART2_Send                            0x0800a330   Section        0  usart_stm32f10x.o(i.USART2_Send)
    USART2_Send                              0x0800a331   Thumb Code    18  usart_stm32f10x.o(i.USART2_Send)
    i.USART2_SetModemControl                 0x0800a348   Section        0  usart_stm32f10x.o(i.USART2_SetModemControl)
    USART2_SetModemControl                   0x0800a349   Thumb Code    14  usart_stm32f10x.o(i.USART2_SetModemControl)
    i.USART2_Transfer                        0x0800a35c   Section        0  usart_stm32f10x.o(i.USART2_Transfer)
    USART2_Transfer                          0x0800a35d   Thumb Code    22  usart_stm32f10x.o(i.USART2_Transfer)
    i.USART2_Uninitialize                    0x0800a378   Section        0  usart_stm32f10x.o(i.USART2_Uninitialize)
    USART2_Uninitialize                      0x0800a379   Thumb Code    10  usart_stm32f10x.o(i.USART2_Uninitialize)
    i.USART_Callback                         0x0800a388   Section        0  swo.o(i.USART_Callback)
    USART_Callback                           0x0800a389   Thumb Code    94  swo.o(i.USART_Callback)
    i.USART_ClearITPendingBit                0x0800a3fc   Section        0  stm32f10x_usart.o(i.USART_ClearITPendingBit)
    i.USART_Cmd                              0x0800a41a   Section        0  stm32f10x_usart.o(i.USART_Cmd)
    i.USART_Control                          0x0800a434   Section        0  usart_stm32f10x.o(i.USART_Control)
    USART_Control                            0x0800a435   Thumb Code  2082  usart_stm32f10x.o(i.USART_Control)
    i.USART_DMACmd                           0x0800ac56   Section        0  stm32f10x_usart.o(i.USART_DMACmd)
    i.USART_GetCapabilities                  0x0800ac68   Section        0  usart_stm32f10x.o(i.USART_GetCapabilities)
    USART_GetCapabilities                    0x0800ac69   Thumb Code     6  usart_stm32f10x.o(i.USART_GetCapabilities)
    i.USART_GetITStatus                      0x0800ac6e   Section        0  stm32f10x_usart.o(i.USART_GetITStatus)
    i.USART_GetModemStatus                   0x0800acc2   Section        0  usart_stm32f10x.o(i.USART_GetModemStatus)
    USART_GetModemStatus                     0x0800acc3   Thumb Code   144  usart_stm32f10x.o(i.USART_GetModemStatus)
    i.USART_GetRxCount                       0x0800ad52   Section        0  usart_stm32f10x.o(i.USART_GetRxCount)
    USART_GetRxCount                         0x0800ad53   Thumb Code    26  usart_stm32f10x.o(i.USART_GetRxCount)
    i.USART_GetStatus                        0x0800ad6c   Section        0  usart_stm32f10x.o(i.USART_GetStatus)
    USART_GetStatus                          0x0800ad6d   Thumb Code   212  usart_stm32f10x.o(i.USART_GetStatus)
    i.USART_GetTxCount                       0x0800ae40   Section        0  usart_stm32f10x.o(i.USART_GetTxCount)
    USART_GetTxCount                         0x0800ae41   Thumb Code    26  usart_stm32f10x.o(i.USART_GetTxCount)
    i.USART_IRQHandler                       0x0800ae5a   Section        0  usart_stm32f10x.o(i.USART_IRQHandler)
    i.USART_ITConfig                         0x0800b0ca   Section        0  stm32f10x_usart.o(i.USART_ITConfig)
    i.USART_Init                             0x0800b114   Section        0  stm32f10x_usart.o(i.USART_Init)
    i.USART_Initialize                       0x0800b1ec   Section        0  usart_stm32f10x.o(i.USART_Initialize)
    USART_Initialize                         0x0800b1ed   Thumb Code   162  usart_stm32f10x.o(i.USART_Initialize)
    i.USART_PeripheralReset                  0x0800b290   Section        0  usart_stm32f10x.o(i.USART_PeripheralReset)
    USART_PeripheralReset                    0x0800b291   Thumb Code   190  usart_stm32f10x.o(i.USART_PeripheralReset)
    i.USART_PowerControl                     0x0800b368   Section        0  usart_stm32f10x.o(i.USART_PowerControl)
    USART_PowerControl                       0x0800b369   Thumb Code   530  usart_stm32f10x.o(i.USART_PowerControl)
    i.USART_RX_DMA_Complete                  0x0800b59c   Section        0  usart_stm32f10x.o(i.USART_RX_DMA_Complete)
    i.USART_Receive                          0x0800b61e   Section        0  usart_stm32f10x.o(i.USART_Receive)
    USART_Receive                            0x0800b61f   Thumb Code   290  usart_stm32f10x.o(i.USART_Receive)
    i.USART_ReceiveData                      0x0800b740   Section        0  stm32f10x_usart.o(i.USART_ReceiveData)
    i.USART_Send                             0x0800b74a   Section        0  usart_stm32f10x.o(i.USART_Send)
    USART_Send                               0x0800b74b   Thumb Code   246  usart_stm32f10x.o(i.USART_Send)
    i.USART_SetModemControl                  0x0800b840   Section        0  usart_stm32f10x.o(i.USART_SetModemControl)
    USART_SetModemControl                    0x0800b841   Thumb Code   156  usart_stm32f10x.o(i.USART_SetModemControl)
    i.USART_TX_DMA_Complete                  0x0800b8dc   Section        0  usart_stm32f10x.o(i.USART_TX_DMA_Complete)
    i.USART_Transfer                         0x0800b926   Section        0  usart_stm32f10x.o(i.USART_Transfer)
    USART_Transfer                           0x0800b927   Thumb Code   106  usart_stm32f10x.o(i.USART_Transfer)
    i.USART_Uninitialize                     0x0800b990   Section        0  usart_stm32f10x.o(i.USART_Uninitialize)
    USART_Uninitialize                       0x0800b991   Thumb Code   108  usart_stm32f10x.o(i.USART_Uninitialize)
    i.USARTx_GetVersion                      0x0800b9fc   Section        0  usart_stm32f10x.o(i.USARTx_GetVersion)
    USARTx_GetVersion                        0x0800b9fd   Thumb Code    10  usart_stm32f10x.o(i.USARTx_GetVersion)
    i.USBD_CDC_ACM_ClearCommFeature          0x0800ba0c   Section        0  usbd_cdc_acm.o(i.USBD_CDC_ACM_ClearCommFeature)
    i.USBD_CDC_ACM_DataRead                  0x0800ba10   Section        0  usbd_cdc_acm.o(i.USBD_CDC_ACM_DataRead)
    i.USBD_CDC_ACM_DataReceived              0x0800ba44   Section        0  usbd_user_cdc_acm.o(i.USBD_CDC_ACM_DataReceived)
    i.USBD_CDC_ACM_EP_BULKIN_Event           0x0800ba7c   Section        0  usbd_cdc_acm.o(i.USBD_CDC_ACM_EP_BULKIN_Event)
    i.USBD_CDC_ACM_EP_BULKIN_HandleData      0x0800ba98   Section        0  usbd_cdc_acm.o(i.USBD_CDC_ACM_EP_BULKIN_HandleData)
    USBD_CDC_ACM_EP_BULKIN_HandleData        0x0800ba99   Thumb Code   144  usbd_cdc_acm.o(i.USBD_CDC_ACM_EP_BULKIN_HandleData)
    i.USBD_CDC_ACM_EP_BULKOUT_Event          0x0800bb40   Section        0  usbd_cdc_acm.o(i.USBD_CDC_ACM_EP_BULKOUT_Event)
    i.USBD_CDC_ACM_EP_BULKOUT_HandleData     0x0800bb74   Section        0  usbd_cdc_acm.o(i.USBD_CDC_ACM_EP_BULKOUT_HandleData)
    USBD_CDC_ACM_EP_BULKOUT_HandleData       0x0800bb75   Thumb Code    78  usbd_cdc_acm.o(i.USBD_CDC_ACM_EP_BULKOUT_HandleData)
    i.USBD_CDC_ACM_EP_BULK_Event             0x0800bbdc   Section        0  usbd_cdc_acm.o(i.USBD_CDC_ACM_EP_BULK_Event)
    i.USBD_CDC_ACM_EP_INTIN_Event            0x0800bbfa   Section        0  usbd_cdc_acm.o(i.USBD_CDC_ACM_EP_INTIN_Event)
    i.USBD_CDC_ACM_GetCommFeature            0x0800bbfc   Section        0  usbd_cdc_acm.o(i.USBD_CDC_ACM_GetCommFeature)
    i.USBD_CDC_ACM_GetEncapsulatedResponse   0x0800bc00   Section        0  usbd_cdc_acm.o(i.USBD_CDC_ACM_GetEncapsulatedResponse)
    i.USBD_CDC_ACM_GetLineCoding             0x0800bc04   Section        0  usbd_cdc_acm.o(i.USBD_CDC_ACM_GetLineCoding)
    i.USBD_CDC_ACM_Initialize                0x0800bc3c   Section        0  usbd_cdc_acm.o(i.USBD_CDC_ACM_Initialize)
    i.USBD_CDC_ACM_PortGetLineCoding         0x0800bc44   Section        0  usbd_user_cdc_acm.o(i.USBD_CDC_ACM_PortGetLineCoding)
    i.USBD_CDC_ACM_PortInitialize            0x0800bc5c   Section        0  usbd_user_cdc_acm.o(i.USBD_CDC_ACM_PortInitialize)
    i.USBD_CDC_ACM_PortReset                 0x0800bc7c   Section        0  usbd_user_cdc_acm.o(i.USBD_CDC_ACM_PortReset)
    i.USBD_CDC_ACM_PortSetControlLineState   0x0800bc9c   Section        0  usbd_user_cdc_acm.o(i.USBD_CDC_ACM_PortSetControlLineState)
    i.USBD_CDC_ACM_PortSetLineCoding         0x0800bca4   Section        0  usbd_user_cdc_acm.o(i.USBD_CDC_ACM_PortSetLineCoding)
    i.USBD_CDC_ACM_Reset                     0x0800bdbc   Section        0  usbd_cdc_acm.o(i.USBD_CDC_ACM_Reset)
    i.USBD_CDC_ACM_Reset_Event               0x0800be0c   Section        0  usbd_cdc_acm.o(i.USBD_CDC_ACM_Reset_Event)
    i.USBD_CDC_ACM_SOF_Event                 0x0800be14   Section        0  usbd_cdc_acm.o(i.USBD_CDC_ACM_SOF_Event)
    i.USBD_CDC_ACM_SendBreak                 0x0800be7c   Section        0  usbd_cdc_acm.o(i.USBD_CDC_ACM_SendBreak)
    i.USBD_CDC_ACM_SendEncapsulatedCommand   0x0800be80   Section        0  usbd_cdc_acm.o(i.USBD_CDC_ACM_SendEncapsulatedCommand)
    i.USBD_CDC_ACM_SetCommFeature            0x0800be84   Section        0  usbd_cdc_acm.o(i.USBD_CDC_ACM_SetCommFeature)
    i.USBD_CDC_ACM_SetControlLineState       0x0800be88   Section        0  usbd_cdc_acm.o(i.USBD_CDC_ACM_SetControlLineState)
    i.USBD_CDC_ACM_SetLineCoding             0x0800be98   Section        0  usbd_cdc_acm.o(i.USBD_CDC_ACM_SetLineCoding)
    i.USBD_ClrStallEP                        0x0800bec4   Section        0  usbd_stm32f103.o(i.USBD_ClrStallEP)
    i.USBD_ConfigEP                          0x0800bedc   Section        0  usbd_stm32f103.o(i.USBD_ConfigEP)
    i.USBD_Configure                         0x0800bfa4   Section        0  usbd_stm32f103.o(i.USBD_Configure)
    i.USBD_Configure_Event                   0x0800bfbc   Section        0  usb_config.o(i.USBD_Configure_Event)
    i.USBD_Connect                           0x0800bfc0   Section        0  usbd_stm32f103.o(i.USBD_Connect)
    i.USBD_DataInStage                       0x0800bff8   Section        0  usbd_core.o(i.USBD_DataInStage)
    i.USBD_DataOutStage                      0x0800c030   Section        0  usbd_core.o(i.USBD_DataOutStage)
    i.USBD_DirCtrlEP                         0x0800c050   Section        0  usbd_stm32f103.o(i.USBD_DirCtrlEP)
    i.USBD_DisableEP                         0x0800c052   Section        0  usbd_stm32f103.o(i.USBD_DisableEP)
    i.USBD_EnableEP                          0x0800c060   Section        0  usbd_stm32f103.o(i.USBD_EnableEP)
    i.USBD_EndPoint0                         0x0800c070   Section        0  usbd_core.o(i.USBD_EndPoint0)
    i.USBD_EndPoint0_Out_ADC_ReqToEP         0x0800c2d4   Section        0  usb_config.o(i.USBD_EndPoint0_Out_ADC_ReqToEP)
    i.USBD_EndPoint0_Out_ADC_ReqToIF         0x0800c2d8   Section        0  usb_config.o(i.USBD_EndPoint0_Out_ADC_ReqToIF)
    i.USBD_EndPoint0_Out_CDC_ReqToIF         0x0800c2dc   Section        0  usbd_core_cdc.o(i.USBD_EndPoint0_Out_CDC_ReqToIF)
    i.USBD_EndPoint0_Out_CLS_ReqToDEV        0x0800c32c   Section        0  usb_config.o(i.USBD_EndPoint0_Out_CLS_ReqToDEV)
    i.USBD_EndPoint0_Out_CLS_ReqToEP         0x0800c330   Section        0  usb_config.o(i.USBD_EndPoint0_Out_CLS_ReqToEP)
    i.USBD_EndPoint0_Out_CLS_ReqToIF         0x0800c334   Section        0  usb_config.o(i.USBD_EndPoint0_Out_CLS_ReqToIF)
    i.USBD_EndPoint0_Out_HID_ReqToIF         0x0800c338   Section        0  usbd_core_hid.o(i.USBD_EndPoint0_Out_HID_ReqToIF)
    i.USBD_EndPoint0_Setup_ADC_ReqToEP       0x0800c368   Section        0  usb_config.o(i.USBD_EndPoint0_Setup_ADC_ReqToEP)
    i.USBD_EndPoint0_Setup_ADC_ReqToIF       0x0800c36c   Section        0  usb_config.o(i.USBD_EndPoint0_Setup_ADC_ReqToIF)
    i.USBD_EndPoint0_Setup_CDC_ReqToIF       0x0800c370   Section        0  usbd_core_cdc.o(i.USBD_EndPoint0_Setup_CDC_ReqToIF)
    i.USBD_EndPoint0_Setup_CLS_ReqToDEV      0x0800c410   Section        0  usb_config.o(i.USBD_EndPoint0_Setup_CLS_ReqToDEV)
    i.USBD_EndPoint0_Setup_CLS_ReqToEP       0x0800c414   Section        0  usb_config.o(i.USBD_EndPoint0_Setup_CLS_ReqToEP)
    i.USBD_EndPoint0_Setup_CLS_ReqToIF       0x0800c418   Section        0  usb_config.o(i.USBD_EndPoint0_Setup_CLS_ReqToIF)
    i.USBD_EndPoint0_Setup_HID_ReqToIF       0x0800c41c   Section        0  usbd_core_hid.o(i.USBD_EndPoint0_Setup_HID_ReqToIF)
    i.USBD_EndPoint0_Setup_MSC_ReqToIF       0x0800c4c8   Section        0  usb_config.o(i.USBD_EndPoint0_Setup_MSC_ReqToIF)
    i.USBD_HID_Configure_Event               0x0800c4cc   Section        0  usbd_hid.o(i.USBD_HID_Configure_Event)
    i.USBD_HID_EP_INTIN_Event                0x0800c4f4   Section        0  usbd_hid.o(i.USBD_HID_EP_INTIN_Event)
    i.USBD_HID_EP_INTOUT_Event               0x0800c658   Section        0  usbd_hid.o(i.USBD_HID_EP_INTOUT_Event)
    i.USBD_HID_EP_INT_Event                  0x0800c6dc   Section        0  usbd_hid.o(i.USBD_HID_EP_INT_Event)
    i.USBD_HID_GetIdle                       0x0800c6fc   Section        0  usbd_hid.o(i.USBD_HID_GetIdle)
    i.USBD_HID_GetProtocol                   0x0800c718   Section        0  usbd_hid.o(i.USBD_HID_GetProtocol)
    i.USBD_HID_GetReport                     0x0800c72c   Section        0  usbd_hid.o(i.USBD_HID_GetReport)
    i.USBD_HID_SOF_Event                     0x0800c768   Section        0  usbd_hid.o(i.USBD_HID_SOF_Event)
    i.USBD_HID_SetIdle                       0x0800c8b0   Section        0  usbd_hid.o(i.USBD_HID_SetIdle)
    i.USBD_HID_SetProtocol                   0x0800c8ec   Section        0  usbd_hid.o(i.USBD_HID_SetProtocol)
    i.USBD_HID_SetReport                     0x0800c900   Section        0  usbd_hid.o(i.USBD_HID_SetReport)
    i.USBD_Init                              0x0800c940   Section        0  usbd_stm32f103.o(i.USBD_Init)
    i.USBD_IntrEna                           0x0800c95c   Section        0  usbd_stm32f103.o(i.USBD_IntrEna)
    i.USBD_RTX_TaskInit                      0x0800c972   Section        0  usb_config.o(i.USBD_RTX_TaskInit)
    i.USBD_ReadEP                            0x0800c974   Section        0  usbd_stm32f103.o(i.USBD_ReadEP)
    i.USBD_ReqClrFeature_MSC                 0x0800c9d4   Section        0  usb_config.o(i.USBD_ReqClrFeature_MSC)
    i.USBD_ReqGetDescriptor                  0x0800c9d8   Section        0  usbd_core.o(i.USBD_ReqGetDescriptor)
    i.USBD_ReqGetDescriptor_HID              0x0800cb08   Section        0  usbd_core_hid.o(i.USBD_ReqGetDescriptor_HID)
    i.USBD_ReqGetStatus                      0x0800cb8c   Section        0  usbd_core.o(i.USBD_ReqGetStatus)
    i.USBD_ReqSetClrFeature                  0x0800cc08   Section        0  usbd_core.o(i.USBD_ReqSetClrFeature)
    i.USBD_ReqSetConfiguration               0x0800ccb4   Section        0  usbd_core.o(i.USBD_ReqSetConfiguration)
    i.USBD_ReqSetInterface                   0x0800ce44   Section        0  usbd_core.o(i.USBD_ReqSetInterface)
    i.USBD_Reset                             0x0800cf70   Section        0  usbd_stm32f103.o(i.USBD_Reset)
    i.USBD_ResetEP                           0x0800d024   Section        0  usbd_stm32f103.o(i.USBD_ResetEP)
    i.USBD_Reset_Event                       0x0800d030   Section        0  usb_config.o(i.USBD_Reset_Event)
    i.USBD_SOF_Event                         0x0800d034   Section        0  usb_config.o(i.USBD_SOF_Event)
    i.USBD_SetAddress                        0x0800d044   Section        0  usbd_stm32f103.o(i.USBD_SetAddress)
    i.USBD_SetStallEP                        0x0800d058   Section        0  usbd_stm32f103.o(i.USBD_SetStallEP)
    i.USBD_SetupStage                        0x0800d068   Section        0  usbd_core.o(i.USBD_SetupStage)
    i.USBD_StatusInStage                     0x0800d074   Section        0  usbd_core.o(i.USBD_StatusInStage)
    i.USBD_StatusOutStage                    0x0800d080   Section        0  usbd_core.o(i.USBD_StatusOutStage)
    i.USBD_Suspend                           0x0800d08c   Section        0  usbd_stm32f103.o(i.USBD_Suspend)
    i.USBD_WakeUp                            0x0800d0a8   Section        0  usbd_stm32f103.o(i.USBD_WakeUp)
    i.USBD_WakeUpCfg                         0x0800d0bc   Section        0  usbd_stm32f103.o(i.USBD_WakeUpCfg)
    i.USBD_WriteEP                           0x0800d0c0   Section        0  usbd_stm32f103.o(i.USBD_WriteEP)
    i.USBWakeUp_IRQHandler                   0x0800d134   Section        0  hw_config.o(i.USBWakeUp_IRQHandler)
    i.USB_Cable_Config                       0x0800d140   Section        0  hw_config.o(i.USB_Cable_Config)
    i.USB_HP_CAN1_TX_IRQHandler              0x0800d142   Section        0  hw_config.o(i.USB_HP_CAN1_TX_IRQHandler)
    i.USB_Init                               0x0800d14c   Section        0  usb_init.o(i.USB_Init)
    i.USB_Interrupts_Config                  0x0800d188   Section        0  hw_config.o(i.USB_Interrupts_Config)
    i.USB_Istr                               0x0800d1e8   Section        0  usb_istr.o(i.USB_Istr)
    i.USB_LP_CAN1_RX0_IRQHandler             0x0800d238   Section        0  usbd_stm32f103.o(i.USB_LP_CAN1_RX0_IRQHandler)
    i.USB_SIL_Init                           0x0800d3a0   Section        0  usb_sil.o(i.USB_SIL_Init)
    i.USB_SIL_Read                           0x0800d3c4   Section        0  usb_sil.o(i.USB_SIL_Read)
    i.USB_SIL_Write                          0x0800d3f2   Section        0  usb_sil.o(i.USB_SIL_Write)
    i.UserAppAbort                           0x0800d420   Section        0  cmsis-dap.o(i.UserAppAbort)
    i.UserAppInit                            0x0800d42c   Section        0  cmsis-dap.o(i.UserAppInit)
    i.UserToPMABufferCopy                    0x0800d440   Section        0  usb_mem.o(i.UserToPMABufferCopy)
    i.Virtual_Com_Port_GetLineCoding         0x0800d478   Section        0  usb_prop.o(i.Virtual_Com_Port_GetLineCoding)
    i.Virtual_Com_Port_SetLineCoding         0x0800d494   Section        0  usb_prop.o(i.Virtual_Com_Port_SetLineCoding)
    i.W25QXX_Erase_Sector                    0x0800d4b0   Section        0  w25qxx.o(i.W25QXX_Erase_Sector)
    i.W25QXX_Init                            0x0800d508   Section        0  w25qxx.o(i.W25QXX_Init)
    i.W25QXX_Read                            0x0800d55c   Section        0  w25qxx.o(i.W25QXX_Read)
    i.W25QXX_ReadID                          0x0800d5ac   Section        0  w25qxx.o(i.W25QXX_ReadID)
    i.W25QXX_ReadSR                          0x0800d5f4   Section        0  w25qxx.o(i.W25QXX_ReadSR)
    i.W25QXX_Wait_Busy                       0x0800d620   Section        0  w25qxx.o(i.W25QXX_Wait_Busy)
    i.W25QXX_Write                           0x0800d634   Section        0  w25qxx.o(i.W25QXX_Write)
    i.W25QXX_Write_Enable                    0x0800d6ec   Section        0  w25qxx.o(i.W25QXX_Write_Enable)
    i.W25QXX_Write_NoCheck                   0x0800d70c   Section        0  w25qxx.o(i.W25QXX_Write_NoCheck)
    i.W25QXX_Write_Page                      0x0800d754   Section        0  w25qxx.o(i.W25QXX_Write_Page)
    i.Write_Memory                           0x0800d7a8   Section        0  memory.o(i.Write_Memory)
    i.__0printf$5                            0x0800d8d0   Section        0  printf5.o(i.__0printf$5)
    i.__scatterload_copy                     0x0800d8f0   Section       14  handlers.o(i.__scatterload_copy)
    i.__scatterload_null                     0x0800d8fe   Section        2  handlers.o(i.__scatterload_null)
    i.__scatterload_zeroinit                 0x0800d900   Section       14  handlers.o(i.__scatterload_zeroinit)
    i._printf_core                           0x0800d910   Section        0  printf5.o(i._printf_core)
    _printf_core                             0x0800d911   Thumb Code   658  printf5.o(i._printf_core)
    i.check_fs                               0x0800dbd0   Section        0  ff.o(i.check_fs)
    check_fs                                 0x0800dbd1   Thumb Code   138  ff.o(i.check_fs)
    i.chk_chr                                0x0800dc60   Section        0  ff.o(i.chk_chr)
    chk_chr                                  0x0800dc61   Thumb Code    20  ff.o(i.chk_chr)
    i.chk_mounted                            0x0800dc74   Section        0  ff.o(i.chk_mounted)
    chk_mounted                              0x0800dc75   Thumb Code   898  ff.o(i.chk_mounted)
    i.clust2sect                             0x0800e008   Section        0  ff.o(i.clust2sect)
    i.cmp_lfn                                0x0800e024   Section        0  ff.o(i.cmp_lfn)
    cmp_lfn                                  0x0800e025   Thumb Code   138  ff.o(i.cmp_lfn)
    i.create_chain                           0x0800e0b4   Section        0  ff.o(i.create_chain)
    create_chain                             0x0800e0b5   Thumb Code   202  ff.o(i.create_chain)
    i.create_name                            0x0800e180   Section        0  ff.o(i.create_name)
    create_name                              0x0800e181   Thumb Code   534  ff.o(i.create_name)
    i.delay_init                             0x0800e3b0   Section        0  delay.o(i.delay_init)
    i.delay_ms                               0x0800e3f4   Section        0  delay.o(i.delay_ms)
    i.delaymS                                0x0800e440   Section        0  swd_host.o(i.delaymS)
    i.dir_find                               0x0800e464   Section        0  ff.o(i.dir_find)
    dir_find                                 0x0800e465   Thumb Code   222  ff.o(i.dir_find)
    i.dir_next                               0x0800e542   Section        0  ff.o(i.dir_next)
    dir_next                                 0x0800e543   Thumb Code   280  ff.o(i.dir_next)
    i.dir_read                               0x0800e65a   Section        0  ff.o(i.dir_read)
    dir_read                                 0x0800e65b   Thumb Code   190  ff.o(i.dir_read)
    i.dir_register                           0x0800e718   Section        0  ff.o(i.dir_register)
    dir_register                             0x0800e719   Thumb Code   396  ff.o(i.dir_register)
    i.dir_remove                             0x0800e8a4   Section        0  ff.o(i.dir_remove)
    dir_remove                               0x0800e8a5   Thumb Code    96  ff.o(i.dir_remove)
    i.dir_sdi                                0x0800e904   Section        0  ff.o(i.dir_sdi)
    dir_sdi                                  0x0800e905   Thumb Code   156  ff.o(i.dir_sdi)
    i.disk_initialize                        0x0800e9a0   Section        0  diskio.o(i.disk_initialize)
    i.disk_ioctl                             0x0800e9a6   Section        0  diskio.o(i.disk_ioctl)
    i.disk_read                              0x0800e9ac   Section        0  diskio.o(i.disk_read)
    i.disk_status                            0x0800e9f8   Section        0  diskio.o(i.disk_status)
    i.disk_write                             0x0800e9fe   Section        0  diskio.o(i.disk_write)
    i.f_gets                                 0x0800ea4a   Section        0  ff.o(i.f_gets)
    i.f_mount                                0x0800ea98   Section        0  ff.o(i.f_mount)
    i.f_open                                 0x0800eac4   Section        0  ff.o(i.f_open)
    i.f_opendir                              0x0800ec4e   Section        0  ff.o(i.f_opendir)
    i.f_read                                 0x0800ecd6   Section        0  ff.o(i.f_read)
    i.f_readdir                              0x0800eea4   Section        0  ff.o(i.f_readdir)
    i.f_unlink                               0x0800ef14   Section        0  ff.o(i.f_unlink)
    i.ff_convert                             0x0800efe0   Section        0  ccsbcs.o(i.ff_convert)
    i.ff_memalloc                            0x0800f02c   Section        0  syscall.o(i.ff_memalloc)
    i.ff_memfree                             0x0800f038   Section        0  syscall.o(i.ff_memfree)
    i.ff_wtoupper                            0x0800f044   Section        0  ccsbcs.o(i.ff_wtoupper)
    i.fit_lfn                                0x0800f07c   Section        0  ff.o(i.fit_lfn)
    fit_lfn                                  0x0800f07d   Thumb Code   122  ff.o(i.fit_lfn)
    i.follow_path                            0x0800f0fc   Section        0  ff.o(i.follow_path)
    follow_path                              0x0800f0fd   Thumb Code   158  ff.o(i.follow_path)
    i.fputc                                  0x0800f19c   Section        0  usart.o(i.fputc)
    i.free                                   0x0800f1b8   Section        0  malloc.o(i.free)
    i.gen_numname                            0x0800f208   Section        0  ff.o(i.gen_numname)
    i.get_fat                                0x0800f2b0   Section        0  ff.o(i.get_fat)
    i.get_fattime                            0x0800f394   Section        0  diskio.o(i.get_fattime)
    i.get_fileinfo                           0x0800f398   Section        0  ff.o(i.get_fileinfo)
    get_fileinfo                             0x0800f399   Thumb Code   296  ff.o(i.get_fileinfo)
    i.int2array                              0x0800f4c0   Section        0  swd_host.o(i.int2array)
    int2array                                0x0800f4c1   Thumb Code    28  swd_host.o(i.int2array)
    i.main                                   0x0800f4dc   Section        0  main.o(i.main)
    i.malloc                                 0x0800f4ec   Section        0  malloc.o(i.malloc)
    i.mem_cmp                                0x0800f558   Section        0  ff.o(i.mem_cmp)
    mem_cmp                                  0x0800f559   Thumb Code    38  ff.o(i.mem_cmp)
    i.mem_cpy                                0x0800f57e   Section        0  ff.o(i.mem_cpy)
    mem_cpy                                  0x0800f57f   Thumb Code    26  ff.o(i.mem_cpy)
    i.mem_set                                0x0800f598   Section        0  ff.o(i.mem_set)
    mem_set                                  0x0800f599   Thumb Code    20  ff.o(i.mem_set)
    i.move_window                            0x0800f5ac   Section        0  ff.o(i.move_window)
    move_window                              0x0800f5ad   Thumb Code   114  ff.o(i.move_window)
    i.pick_lfn                               0x0800f620   Section        0  ff.o(i.pick_lfn)
    pick_lfn                                 0x0800f621   Thumb Code   112  ff.o(i.pick_lfn)
    i.put_fat                                0x0800f694   Section        0  ff.o(i.put_fat)
    i.remove_chain                           0x0800f7ca   Section        0  ff.o(i.remove_chain)
    remove_chain                             0x0800f7cb   Thumb Code   104  ff.o(i.remove_chain)
    i.sum_sfn                                0x0800f832   Section        0  ff.o(i.sum_sfn)
    sum_sfn                                  0x0800f833   Thumb Code    32  ff.o(i.sum_sfn)
    i.swd_flash_syscall_exec                 0x0800f852   Section        0  swd_host.o(i.swd_flash_syscall_exec)
    i.swd_init                               0x0800f8c0   Section        0  swd_host.o(i.swd_init)
    i.swd_init_debug                         0x0800f8d0   Section        0  swd_host.o(i.swd_init_debug)
    i.swd_off                                0x0800f974   Section        0  swd_host.o(i.swd_off)
    i.swd_read_core_register                 0x0800f980   Section        0  swd_host.o(i.swd_read_core_register)
    swd_read_core_register                   0x0800f981   Thumb Code    94  swd_host.o(i.swd_read_core_register)
    i.swd_read_data                          0x0800f9e4   Section        0  swd_host.o(i.swd_read_data)
    swd_read_data                            0x0800f9e5   Thumb Code   136  swd_host.o(i.swd_read_data)
    i.swd_read_dp                            0x0800fa6c   Section        0  swd_host.o(i.swd_read_dp)
    i.swd_read_idcode                        0x0800fac8   Section        0  swd_host.o(i.swd_read_idcode)
    swd_read_idcode                          0x0800fac9   Thumb Code    66  swd_host.o(i.swd_read_idcode)
    i.swd_read_word                          0x0800fb0c   Section        0  swd_host.o(i.swd_read_word)
    swd_read_word                            0x0800fb0d   Thumb Code    38  swd_host.o(i.swd_read_word)
    i.swd_reset                              0x0800fb38   Section        0  swd_host.o(i.swd_reset)
    swd_reset                                0x0800fb39   Thumb Code    34  swd_host.o(i.swd_reset)
    i.swd_set_target_reset                   0x0800fb5c   Section        0  swd_host.o(i.swd_set_target_reset)
    i.swd_set_target_state_hw                0x0800fb80   Section        0  swd_host.o(i.swd_set_target_state_hw)
    i.swd_switch                             0x0800fd0c   Section        0  swd_host.o(i.swd_switch)
    swd_switch                               0x0800fd0d   Thumb Code    28  swd_host.o(i.swd_switch)
    i.swd_transfer_retry                     0x0800fd28   Section        0  swd_host.o(i.swd_transfer_retry)
    swd_transfer_retry                       0x0800fd29   Thumb Code    44  swd_host.o(i.swd_transfer_retry)
    i.swd_wait_until_halted                  0x0800fd54   Section        0  swd_host.o(i.swd_wait_until_halted)
    swd_wait_until_halted                    0x0800fd55   Thumb Code    44  swd_host.o(i.swd_wait_until_halted)
    i.swd_write_ap                           0x0800fd88   Section        0  swd_host.o(i.swd_write_ap)
    i.swd_write_block                        0x0800fe00   Section        0  swd_host.o(i.swd_write_block)
    swd_write_block                          0x0800fe01   Thumb Code   124  swd_host.o(i.swd_write_block)
    i.swd_write_byte                         0x0800fe80   Section        0  swd_host.o(i.swd_write_byte)
    swd_write_byte                           0x0800fe81   Thumb Code    46  swd_host.o(i.swd_write_byte)
    i.swd_write_core_register                0x0800feb4   Section        0  swd_host.o(i.swd_write_core_register)
    swd_write_core_register                  0x0800feb5   Thumb Code    82  swd_host.o(i.swd_write_core_register)
    i.swd_write_data                         0x0800ff0c   Section        0  swd_host.o(i.swd_write_data)
    swd_write_data                           0x0800ff0d   Thumb Code    84  swd_host.o(i.swd_write_data)
    i.swd_write_debug_state                  0x0800ff60   Section        0  swd_host.o(i.swd_write_debug_state)
    swd_write_debug_state                    0x0800ff61   Thumb Code   142  swd_host.o(i.swd_write_debug_state)
    i.swd_write_dp                           0x0800fff8   Section        0  swd_host.o(i.swd_write_dp)
    i.swd_write_memory                       0x08010040   Section        0  swd_host.o(i.swd_write_memory)
    i.swd_write_word                         0x080100c4   Section        0  swd_host.o(i.swd_write_word)
    swd_write_word                           0x080100c5   Thumb Code    38  swd_host.o(i.swd_write_word)
    i.sync                                   0x080100f0   Section        0  ff.o(i.sync)
    sync                                     0x080100f1   Thumb Code   202  ff.o(i.sync)
    i.target_flash_erase_chip                0x080101bc   Section        0  swd_flash.o(i.target_flash_erase_chip)
    i.target_flash_init                      0x080101e4   Section        0  swd_flash.o(i.target_flash_init)
    i.target_flash_program_page              0x08010228   Section        0  swd_flash.o(i.target_flash_program_page)
    i.target_flash_uninit                    0x0801028c   Section        0  swd_flash.o(i.target_flash_uninit)
    i.target_opt_erase_chip                  0x0801029c   Section        0  swd_opt.o(i.target_opt_erase_chip)
    i.target_opt_init                        0x080102c4   Section        0  swd_opt.o(i.target_opt_init)
    i.target_opt_uninit                      0x08010308   Section        0  swd_opt.o(i.target_opt_uninit)
    i.uart1_dma_enable                       0x0801032c   Section        0  usart.o(i.uart1_dma_enable)
    i.uart_init                              0x0801034c   Section        0  usart.o(i.uart_init)
    i.usart_config                           0x080104b0   Section        0  usart.o(i.usart_config)
    i.usart_receive_parse                    0x080104ec   Section        0  usart.o(i.usart_receive_parse)
    i.usart_sendCommand                      0x08010578   Section        0  usart.o(i.usart_sendCommand)
    i.usbd_class_init                        0x080105b4   Section        0  usb_config.o(i.usbd_class_init)
    i.usbd_configured                        0x080105c4   Section        0  usbd_core.o(i.usbd_configured)
    i.usbd_connect                           0x080105d4   Section        0  usbd_core.o(i.usbd_connect)
    i.usbd_hid_get_protocol                  0x080105d8   Section        0  usbd_hid.o(i.usbd_hid_get_protocol)
    i.usbd_hid_get_report                    0x080105dc   Section        0  usbd_user_hid.o(i.usbd_hid_get_report)
    i.usbd_hid_get_report_trigger            0x0801067c   Section        0  usbd_hid.o(i.usbd_hid_get_report_trigger)
    i.usbd_hid_init                          0x08010718   Section        0  usbd_user_hid.o(i.usbd_hid_init)
    i.usbd_hid_process                       0x08010758   Section        0  usbd_user_hid.o(i.usbd_hid_process)
    i.usbd_hid_set_protocol                  0x08010814   Section        0  usbd_hid.o(i.usbd_hid_set_protocol)
    i.usbd_hid_set_report                    0x08010818   Section        0  usbd_user_hid.o(i.usbd_hid_set_report)
    i.usbd_init                              0x080108b8   Section        0  usbd_core.o(i.usbd_init)
    i.usbd_os_evt_set                        0x080108d4   Section        0  usb_config.o(i.usbd_os_evt_set)
    i.usbd_reset_core                        0x080108d8   Section        0  usbd_core.o(i.usbd_reset_core)
    i.vResetTarget                           0x080108fc   Section        0  cmsis-dap.o(i.vResetTarget)
    i.validate                               0x08010998   Section        0  ff.o(i.validate)
    validate                                 0x08010999   Thumb Code    42  ff.o(i.validate)
    .constdata                               0x080109c4   Section       84  cmsis-dap.o(.constdata)
    .constdata                               0x08010a18   Section      141  ff.o(.constdata)
    LfnOfs                                   0x08010a18   Data          13  ff.o(.constdata)
    excvt                                    0x08010a25   Data         128  ff.o(.constdata)
    .constdata                               0x08010aa6   Section     1216  ccsbcs.o(.constdata)
    Tbl                                      0x08010aa6   Data         256  ccsbcs.o(.constdata)
    tbl_lower                                0x08010ba6   Data         480  ccsbcs.o(.constdata)
    tbl_upper                                0x08010d86   Data         480  ccsbcs.o(.constdata)
    .constdata                               0x08010f66   Section      195  usb_desc.o(.constdata)
    .constdata                               0x08011029   Section        5  dap.o(.constdata)
    .constdata                               0x08011030   Section      468  usb_config.o(.constdata)
    .constdata                               0x08011204   Section      148  usart_stm32f10x.o(.constdata)
    usart_driver_version                     0x08011204   Data           4  usart_stm32f10x.o(.constdata)
    USART2_tx                                0x08011208   Data           8  usart_stm32f10x.o(.constdata)
    USART2_rx                                0x08011210   Data           8  usart_stm32f10x.o(.constdata)
    USART2_DMA_Tx                            0x08011218   Data           8  usart_stm32f10x.o(.constdata)
    USART2_DMA_Rx                            0x08011220   Data           8  usart_stm32f10x.o(.constdata)
    USART2_Resources                         0x08011228   Data          56  usart_stm32f10x.o(.constdata)
    .constdata                               0x08011298   Section      384  stm32f10x_128.o(.constdata)
    flash_code                               0x08011298   Data         332  stm32f10x_128.o(.constdata)
    .constdata                               0x08011418   Section      492  stm32f10x_opt.o(.constdata)
    flash_code                               0x08011418   Data         440  stm32f10x_opt.o(.constdata)
    .constdata                               0x08011604   Section     2072  oled.o(.constdata)
    .conststring                             0x08011e1c   Section       69  main.o(.conststring)
    .data                                    0x20000000   Section      556  main.o(.data)
    .data                                    0x2000022c   Section       12  cmsis-dap.o(.data)
    .data                                    0x20000238   Section        7  usart.o(.data)
    .data                                    0x20000240   Section        4  delay.o(.data)
    fac_us                                   0x20000240   Data           1  delay.o(.data)
    fac_ms                                   0x20000242   Data           2  delay.o(.data)
    .data                                    0x20000244   Section       20  system_stm32f10x.o(.data)
    .data                                    0x20000258   Section       20  stm32f10x_rcc.o(.data)
    APBAHBPrescTable                         0x20000258   Data          16  stm32f10x_rcc.o(.data)
    ADCPrescTable                            0x20000268   Data           4  stm32f10x_rcc.o(.data)
    .data                                    0x2000026c   Section        6  ff.o(.data)
    FatFs                                    0x2000026c   Data           4  ff.o(.data)
    Fsid                                     0x20000270   Data           2  ff.o(.data)
    .data                                    0x20000274   Section       16  mass_mal.o(.data)
    .data                                    0x20000284   Section       36  memory.o(.data)
    Offset                                   0x20000298   Data           4  memory.o(.data)
    Length                                   0x2000029c   Data           4  memory.o(.data)
    W_Offset                                 0x200002a0   Data           4  memory.o(.data)
    W_Length                                 0x200002a4   Data           4  memory.o(.data)
    .data                                    0x200002a8   Section      113  scsi_data.o(.data)
    .data                                    0x2000031c   Section       12  usb_bot.o(.data)
    .data                                    0x20000328   Section       26  usb_desc.o(.data)
    .data                                    0x20000344   Section        9  usb_endp.o(.data)
    .data                                    0x20000350   Section       60  usb_istr.o(.data)
    .data                                    0x2000038c   Section      160  usb_prop.o(.data)
    .data                                    0x2000042c   Section        7  usb_pwr.o(.data)
    .data                                    0x20000434   Section        3  usb_core.o(.data)
    .data                                    0x20000438   Section       20  usb_init.o(.data)
    .data                                    0x2000044c   Section        4  usb_int.o(.data)
    .data                                    0x20000450   Section        1  dap.o(.data)
    .data                                    0x20000454   Section       20  swo.o(.data)
    USART_Ready                              0x20000454   Data           1  swo.o(.data)
    TraceTransport                           0x20000455   Data           1  swo.o(.data)
    TraceMode                                0x20000456   Data           1  swo.o(.data)
    TraceStatus                              0x20000457   Data           1  swo.o(.data)
    TraceError                               0x20000458   Data           2  swo.o(.data)
    TraceError_n                             0x2000045a   Data           1  swo.o(.data)
    TraceIn                                  0x2000045c   Data           4  swo.o(.data)
    TraceOut                                 0x20000460   Data           4  swo.o(.data)
    TracePending                             0x20000464   Data           4  swo.o(.data)
    .data                                    0x20000468   Section       11  usb_config.o(.data)
    .data                                    0x20000474   Section        6  usbd_stm32f103.o(.data)
    .data                                    0x2000047c   Section       24  usbd_user_hid.o(.data)
    USB_RequestFlag                          0x2000047c   Data           1  usbd_user_hid.o(.data)
    USB_RequestIn                            0x20000480   Data           4  usbd_user_hid.o(.data)
    USB_RequestOut                           0x20000484   Data           4  usbd_user_hid.o(.data)
    USB_ResponseIdle                         0x20000488   Data           1  usbd_user_hid.o(.data)
    USB_ResponseFlag                         0x20000489   Data           1  usbd_user_hid.o(.data)
    USB_ResponseIn                           0x2000048c   Data           4  usbd_user_hid.o(.data)
    USB_ResponseOut                          0x20000490   Data           4  usbd_user_hid.o(.data)
    .data                                    0x20000494   Section       15  usbd_user_cdc_acm.o(.data)
    uart_rx_cnt                              0x20000494   Data           4  usbd_user_cdc_acm.o(.data)
    usb_tx_cnt                               0x20000498   Data           4  usbd_user_cdc_acm.o(.data)
    cdc_acm_line_coding                      0x2000049c   Data           7  usbd_user_cdc_acm.o(.data)
    .data                                    0x200004a3   Section        2  dma_stm32f10x.o(.data)
    DMA1_Channel                             0x200004a3   Data           1  dma_stm32f10x.o(.data)
    DMA2_Channel                             0x200004a4   Data           1  dma_stm32f10x.o(.data)
    .data                                    0x200004a8   Section        8  swd_host.o(.data)
    dap_state                                0x200004a8   Data           8  swd_host.o(.data)
    .data                                    0x200004b0   Section        2  w25qxx.o(.data)
    .data                                    0x200004b4   Section       40  usbd_core.o(.data)
    .data                                    0x200004dc   Section       63  usbd_cdc_acm.o(.data)
    .data                                    0x2000051c   Section       48  usbd_hid.o(.data)
    cnt_for_4ms                              0x2000051c   Data           1  usbd_hid.o(.data)
    .data                                    0x2000054c   Section        4  mvars.o(.data)
    .data                                    0x20000550   Section        4  mvars.o(.data)
    .bss                                     0x20000554   Section     2455  main.o(.bss)
    .bss                                     0x20000eeb   Section      460  usart.o(.bss)
    .bss                                     0x200010b8   Section      512  memory.o(.bss)
    .bss                                     0x200012b8   Section      112  usb_bot.o(.bss)
    .bss                                     0x20001328   Section      124  usb_endp.o(.bss)
    .bss                                     0x200013a4   Section       28  usb_init.o(.bss)
    .bss                                     0x200013c0   Section       64  dap.o(.bss)
    .bss                                     0x20001400   Section     4096  swo.o(.bss)
    TraceBuf                                 0x20001400   Data        4096  swo.o(.bss)
    .bss                                     0x20002400   Section      332  usb_config.o(.bss)
    .bss                                     0x2000254c   Section     8192  usbd_user_hid.o(.bss)
    USB_Request                              0x2000254c   Data        4096  usbd_user_hid.o(.bss)
    USB_Response                             0x2000354c   Data        4096  usbd_user_hid.o(.bss)
    .bss                                     0x2000454c   Section     2048  usbd_user_cdc_acm.o(.bss)
    uart_rx_buf                              0x2000454c   Data        1024  usbd_user_cdc_acm.o(.bss)
    uart_tx_buf                              0x2000494c   Data        1024  usbd_user_cdc_acm.o(.bss)
    .bss                                     0x20004d4c   Section       56  usart_stm32f10x.o(.bss)
    USART2_Info                              0x20004d4c   Data          20  usart_stm32f10x.o(.bss)
    USART2_TransferInfo                      0x20004d60   Data          36  usart_stm32f10x.o(.bss)
    .bss                                     0x20004d84   Section     4096  w25qxx.o(.bss)
    HEAP                                     0x20005d88   Section     2048  startup_stm32f10x_hd.o(HEAP)
    STACK                                    0x20006588   Section     4096  startup_stm32f10x_hd.o(STACK)

    Global Symbols

    Symbol Name                              Value     Ov Type        Size  Object(Section)

    BuildAttributes$$THM_ISAv4$P$D$K$B$S$PE$A:L22UL41UL21$X:L11$S22US41US21$IEEE1$IW$~IW$USESV6$~STKCKD$USESV7$~SHL$OSPACE$ROPI$EBA8$MICROLIB$REQ8$PRES8$EABIv2 0x00000000   Number         0  anon$$obj.o ABSOLUTE
    __ARM_use_no_argv                        0x00000000   Number         0  main.o ABSOLUTE
    __use_no_errno                           0x00000000   Number         0  useno.o ABSOLUTE
    __use_no_exception_handling              0x00000000   Number         0  useno.o ABSOLUTE
    __use_no_fp                              0x00000000   Number         0  useno.o ABSOLUTE
    __use_no_heap                            0x00000000   Number         0  useno.o ABSOLUTE
    __use_no_heap_region                     0x00000000   Number         0  useno.o ABSOLUTE
    __use_no_semihosting                     0x00000000   Number         0  useno.o ABSOLUTE
    __use_no_semihosting_swi                 0x00000000   Number         0  useno.o ABSOLUTE
    __use_no_signal_handling                 0x00000000   Number         0  useno.o ABSOLUTE
    _printf_a                                0x00000000   Number         0  stubs.o ABSOLUTE
    _printf_c                                0x00000000   Number         0  stubs.o ABSOLUTE
    _printf_charcount                        0x00000000   Number         0  stubs.o ABSOLUTE
    _printf_d                                0x00000000   Number         0  stubs.o ABSOLUTE
    _printf_e                                0x00000000   Number         0  stubs.o ABSOLUTE
    _printf_f                                0x00000000   Number         0  stubs.o ABSOLUTE
    _printf_flags                            0x00000000   Number         0  stubs.o ABSOLUTE
    _printf_fp_dec                           0x00000000   Number         0  stubs.o ABSOLUTE
    _printf_fp_hex                           0x00000000   Number         0  stubs.o ABSOLUTE
    _printf_g                                0x00000000   Number         0  stubs.o ABSOLUTE
    _printf_i                                0x00000000   Number         0  stubs.o ABSOLUTE
    _printf_int_dec                          0x00000000   Number         0  stubs.o ABSOLUTE
    _printf_l                                0x00000000   Number         0  stubs.o ABSOLUTE
    _printf_lc                               0x00000000   Number         0  stubs.o ABSOLUTE
    _printf_ll                               0x00000000   Number         0  stubs.o ABSOLUTE
    _printf_lld                              0x00000000   Number         0  stubs.o ABSOLUTE
    _printf_lli                              0x00000000   Number         0  stubs.o ABSOLUTE
    _printf_llo                              0x00000000   Number         0  stubs.o ABSOLUTE
    _printf_llu                              0x00000000   Number         0  stubs.o ABSOLUTE
    _printf_llx                              0x00000000   Number         0  stubs.o ABSOLUTE
    _printf_longlong_dec                     0x00000000   Number         0  stubs.o ABSOLUTE
    _printf_longlong_hex                     0x00000000   Number         0  stubs.o ABSOLUTE
    _printf_longlong_oct                     0x00000000   Number         0  stubs.o ABSOLUTE
    _printf_ls                               0x00000000   Number         0  stubs.o ABSOLUTE
    _printf_mbtowc                           0x00000000   Number         0  stubs.o ABSOLUTE
    _printf_n                                0x00000000   Number         0  stubs.o ABSOLUTE
    _printf_o                                0x00000000   Number         0  stubs.o ABSOLUTE
    _printf_p                                0x00000000   Number         0  stubs.o ABSOLUTE
    _printf_percent                          0x00000000   Number         0  stubs.o ABSOLUTE
    _printf_pre_padding                      0x00000000   Number         0  stubs.o ABSOLUTE
    _printf_return_value                     0x00000000   Number         0  stubs.o ABSOLUTE
    _printf_s                                0x00000000   Number         0  stubs.o ABSOLUTE
    _printf_sizespec                         0x00000000   Number         0  stubs.o ABSOLUTE
    _printf_str                              0x00000000   Number         0  stubs.o ABSOLUTE
    _printf_truncate_signed                  0x00000000   Number         0  stubs.o ABSOLUTE
    _printf_truncate_unsigned                0x00000000   Number         0  stubs.o ABSOLUTE
    _printf_u                                0x00000000   Number         0  stubs.o ABSOLUTE
    _printf_wc                               0x00000000   Number         0  stubs.o ABSOLUTE
    _printf_wctomb                           0x00000000   Number         0  stubs.o ABSOLUTE
    _printf_widthprec                        0x00000000   Number         0  stubs.o ABSOLUTE
    _printf_x                                0x00000000   Number         0  stubs.o ABSOLUTE
    USBD_EndPoint10                           - Undefined Weak Reference
    USBD_EndPoint11                           - Undefined Weak Reference
    USBD_EndPoint12                           - Undefined Weak Reference
    USBD_EndPoint13                           - Undefined Weak Reference
    USBD_EndPoint14                           - Undefined Weak Reference
    USBD_EndPoint15                           - Undefined Weak Reference
    USBD_EndPoint4                            - Undefined Weak Reference
    USBD_EndPoint5                            - Undefined Weak Reference
    USBD_EndPoint6                            - Undefined Weak Reference
    USBD_EndPoint7                            - Undefined Weak Reference
    USBD_EndPoint8                            - Undefined Weak Reference
    USBD_EndPoint9                            - Undefined Weak Reference
    USBD_Feature_Event                        - Undefined Weak Reference
    USBD_Interface_Event                      - Undefined Weak Reference
    USBD_Power_Event                          - Undefined Weak Reference
    USBD_Resume_Event                         - Undefined Weak Reference
    USBD_Suspend_Event                        - Undefined Weak Reference
    USBD_WakeUp_Event                         - Undefined Weak Reference
    __cpp_initialize__aeabi_                  - Undefined Weak Reference
    __cxa_finalize                            - Undefined Weak Reference
    _clock_init                               - Undefined Weak Reference
    _microlib_exit                            - Undefined Weak Reference
    __Vectors_Size                           0x00000130   Number         0  startup_stm32f10x_hd.o ABSOLUTE
    __RL_USBD_VER                            0x00000475   Number         0  usbd_core.o ABSOLUTE
    __Vectors                                0x08000000   Data           4  startup_stm32f10x_hd.o(RESET)
    __Vectors_End                            0x08000130   Data           0  startup_stm32f10x_hd.o(RESET)
    __main                                   0x08000131   Thumb Code     0  entry.o(.ARM.Collect$$$$00000000)
    _main_stk                                0x08000131   Thumb Code     0  entry2.o(.ARM.Collect$$$$00000001)
    _main_scatterload                        0x08000135   Thumb Code     0  entry5.o(.ARM.Collect$$$$00000004)
    __main_after_scatterload                 0x08000139   Thumb Code     0  entry5.o(.ARM.Collect$$$$00000004)
    _main_clock                              0x08000139   Thumb Code     0  entry7b.o(.ARM.Collect$$$$00000008)
    _main_cpp_init                           0x08000139   Thumb Code     0  entry8b.o(.ARM.Collect$$$$0000000A)
    _main_init                               0x08000139   Thumb Code     0  entry9a.o(.ARM.Collect$$$$0000000B)
    __rt_final_cpp                           0x08000141   Thumb Code     0  entry10a.o(.ARM.Collect$$$$0000000D)
    __rt_final_exit                          0x08000141   Thumb Code     0  entry11a.o(.ARM.Collect$$$$0000000F)
    Reset_Handler                            0x08000145   Thumb Code     8  startup_stm32f10x_hd.o(.text)
    ADC1_2_IRQHandler                        0x0800015f   Thumb Code     0  startup_stm32f10x_hd.o(.text)
    ADC3_IRQHandler                          0x0800015f   Thumb Code     0  startup_stm32f10x_hd.o(.text)
    CAN1_RX1_IRQHandler                      0x0800015f   Thumb Code     0  startup_stm32f10x_hd.o(.text)
    CAN1_SCE_IRQHandler                      0x0800015f   Thumb Code     0  startup_stm32f10x_hd.o(.text)
    EXTI0_IRQHandler                         0x0800015f   Thumb Code     0  startup_stm32f10x_hd.o(.text)
    EXTI15_10_IRQHandler                     0x0800015f   Thumb Code     0  startup_stm32f10x_hd.o(.text)
    EXTI1_IRQHandler                         0x0800015f   Thumb Code     0  startup_stm32f10x_hd.o(.text)
    EXTI2_IRQHandler                         0x0800015f   Thumb Code     0  startup_stm32f10x_hd.o(.text)
    EXTI3_IRQHandler                         0x0800015f   Thumb Code     0  startup_stm32f10x_hd.o(.text)
    EXTI4_IRQHandler                         0x0800015f   Thumb Code     0  startup_stm32f10x_hd.o(.text)
    EXTI9_5_IRQHandler                       0x0800015f   Thumb Code     0  startup_stm32f10x_hd.o(.text)
    FLASH_IRQHandler                         0x0800015f   Thumb Code     0  startup_stm32f10x_hd.o(.text)
    FSMC_IRQHandler                          0x0800015f   Thumb Code     0  startup_stm32f10x_hd.o(.text)
    I2C1_ER_IRQHandler                       0x0800015f   Thumb Code     0  startup_stm32f10x_hd.o(.text)
    I2C1_EV_IRQHandler                       0x0800015f   Thumb Code     0  startup_stm32f10x_hd.o(.text)
    I2C2_ER_IRQHandler                       0x0800015f   Thumb Code     0  startup_stm32f10x_hd.o(.text)
    I2C2_EV_IRQHandler                       0x0800015f   Thumb Code     0  startup_stm32f10x_hd.o(.text)
    PVD_IRQHandler                           0x0800015f   Thumb Code     0  startup_stm32f10x_hd.o(.text)
    RCC_IRQHandler                           0x0800015f   Thumb Code     0  startup_stm32f10x_hd.o(.text)
    RTCAlarm_IRQHandler                      0x0800015f   Thumb Code     0  startup_stm32f10x_hd.o(.text)
    RTC_IRQHandler                           0x0800015f   Thumb Code     0  startup_stm32f10x_hd.o(.text)
    SDIO_IRQHandler                          0x0800015f   Thumb Code     0  startup_stm32f10x_hd.o(.text)
    SPI1_IRQHandler                          0x0800015f   Thumb Code     0  startup_stm32f10x_hd.o(.text)
    SPI2_IRQHandler                          0x0800015f   Thumb Code     0  startup_stm32f10x_hd.o(.text)
    SPI3_IRQHandler                          0x0800015f   Thumb Code     0  startup_stm32f10x_hd.o(.text)
    TAMPER_IRQHandler                        0x0800015f   Thumb Code     0  startup_stm32f10x_hd.o(.text)
    TIM1_BRK_IRQHandler                      0x0800015f   Thumb Code     0  startup_stm32f10x_hd.o(.text)
    TIM1_CC_IRQHandler                       0x0800015f   Thumb Code     0  startup_stm32f10x_hd.o(.text)
    TIM1_TRG_COM_IRQHandler                  0x0800015f   Thumb Code     0  startup_stm32f10x_hd.o(.text)
    TIM1_UP_IRQHandler                       0x0800015f   Thumb Code     0  startup_stm32f10x_hd.o(.text)
    TIM2_IRQHandler                          0x0800015f   Thumb Code     0  startup_stm32f10x_hd.o(.text)
    TIM3_IRQHandler                          0x0800015f   Thumb Code     0  startup_stm32f10x_hd.o(.text)
    TIM4_IRQHandler                          0x0800015f   Thumb Code     0  startup_stm32f10x_hd.o(.text)
    TIM5_IRQHandler                          0x0800015f   Thumb Code     0  startup_stm32f10x_hd.o(.text)
    TIM6_IRQHandler                          0x0800015f   Thumb Code     0  startup_stm32f10x_hd.o(.text)
    TIM7_IRQHandler                          0x0800015f   Thumb Code     0  startup_stm32f10x_hd.o(.text)
    TIM8_BRK_IRQHandler                      0x0800015f   Thumb Code     0  startup_stm32f10x_hd.o(.text)
    TIM8_CC_IRQHandler                       0x0800015f   Thumb Code     0  startup_stm32f10x_hd.o(.text)
    TIM8_TRG_COM_IRQHandler                  0x0800015f   Thumb Code     0  startup_stm32f10x_hd.o(.text)
    TIM8_UP_IRQHandler                       0x0800015f   Thumb Code     0  startup_stm32f10x_hd.o(.text)
    UART4_IRQHandler                         0x0800015f   Thumb Code     0  startup_stm32f10x_hd.o(.text)
    UART5_IRQHandler                         0x0800015f   Thumb Code     0  startup_stm32f10x_hd.o(.text)
    USART3_IRQHandler                        0x0800015f   Thumb Code     0  startup_stm32f10x_hd.o(.text)
    WWDG_IRQHandler                          0x0800015f   Thumb Code     0  startup_stm32f10x_hd.o(.text)
    __aeabi_uldivmod                         0x08000169   Thumb Code    98  uldiv.o(.text)
    __aeabi_memcpy                           0x080001cb   Thumb Code    36  memcpya.o(.text)
    __aeabi_memcpy4                          0x080001cb   Thumb Code     0  memcpya.o(.text)
    __aeabi_memcpy8                          0x080001cb   Thumb Code     0  memcpya.o(.text)
    __aeabi_memset                           0x080001ef   Thumb Code    14  memseta.o(.text)
    __aeabi_memset4                          0x080001ef   Thumb Code     0  memseta.o(.text)
    __aeabi_memset8                          0x080001ef   Thumb Code     0  memseta.o(.text)
    __aeabi_memclr                           0x080001fd   Thumb Code     4  memseta.o(.text)
    __aeabi_memclr4                          0x080001fd   Thumb Code     0  memseta.o(.text)
    __aeabi_memclr8                          0x080001fd   Thumb Code     0  memseta.o(.text)
    _memset$wrapper                          0x08000201   Thumb Code    18  memseta.o(.text)
    strstr                                   0x08000213   Thumb Code    36  strstr.o(.text)
    strncpy                                  0x08000237   Thumb Code    24  strncpy.o(.text)
    strlen                                   0x0800024f   Thumb Code    14  strlen.o(.text)
    __aeabi_dmul                             0x0800025d   Thumb Code   228  dmul.o(.text)
    __aeabi_ddiv                             0x08000341   Thumb Code   222  ddiv.o(.text)
    __aeabi_ui2d                             0x0800041f   Thumb Code    26  dfltui.o(.text)
    __aeabi_d2uiz                            0x08000439   Thumb Code    50  dfixui.o(.text)
    __aeabi_llsl                             0x0800046b   Thumb Code    30  llshl.o(.text)
    _ll_shift_l                              0x0800046b   Thumb Code     0  llshl.o(.text)
    __aeabi_llsr                             0x08000489   Thumb Code    32  llushr.o(.text)
    _ll_ushift_r                             0x08000489   Thumb Code     0  llushr.o(.text)
    __I$use$fp                               0x080004a9   Thumb Code     0  iusefp.o(.text)
    _double_round                            0x080004a9   Thumb Code    30  depilogue.o(.text)
    _double_epilogue                         0x080004c7   Thumb Code   156  depilogue.o(.text)
    __scatterload                            0x08000565   Thumb Code    28  init.o(.text)
    __scatterload_rt2                        0x08000565   Thumb Code     0  init.o(.text)
    __decompress                             0x08000589   Thumb Code     0  __dczerorl2.o(.text)
    __decompress1                            0x08000589   Thumb Code    86  __dczerorl2.o(.text)
    Bot_Abort                                0x080005df   Thumb Code    64  usb_bot.o(i.Bot_Abort)
    ByteSwap                                 0x0800061f   Thumb Code    12  usb_regs.o(i.ByteSwap)
    CBW_Decode                               0x0800062d   Thumb Code   676  usb_bot.o(i.CBW_Decode)
    CTR_HP                                   0x080008f1   Thumb Code   174  usb_int.o(i.CTR_HP)
    CTR_LP                                   0x080009b9   Thumb Code   616  usb_int.o(i.CTR_LP)
    Char2toByte                              0x08000c41   Thumb Code    26  hex2bin.o(i.Char2toByte)
    ChartoByte                               0x08000c5b   Thumb Code    38  hex2bin.o(i.ChartoByte)
    ClearDTOG_RX                             0x08000c81   Thumb Code    48  usb_regs.o(i.ClearDTOG_RX)
    ClearDTOG_TX                             0x08000cb5   Thumb Code    48  usb_regs.o(i.ClearDTOG_TX)
    Clear_Status_Out                         0x08000d19   Thumb Code    34  usb_regs.o(i.Clear_Status_Out)
    DAP_ProcessCommand                       0x08001591   Thumb Code   374  dap.o(i.DAP_ProcessCommand)
    DAP_ProcessVendorCommand                 0x08001707   Thumb Code   128  dap_vendor.o(i.DAP_ProcessVendorCommand)
    DAP_Setup                                0x08001fa5   Thumb Code    68  dap.o(i.DAP_Setup)
    DMA1_Channel1_Event                      0x0800210d   Thumb Code     2  dma_stm32f10x.o(i.DMA1_Channel1_Event)
    DMA1_Channel1_IRQHandler                 0x08002111   Thumb Code    22  dma_stm32f10x.o(i.DMA1_Channel1_IRQHandler)
    DMA1_Channel2_Event                      0x0800212d   Thumb Code     2  dma_stm32f10x.o(i.DMA1_Channel2_Event)
    DMA1_Channel2_IRQHandler                 0x08002131   Thumb Code    24  dma_stm32f10x.o(i.DMA1_Channel2_IRQHandler)
    DMA1_Channel3_Event                      0x0800214d   Thumb Code     2  dma_stm32f10x.o(i.DMA1_Channel3_Event)
    DMA1_Channel3_IRQHandler                 0x08002151   Thumb Code    24  dma_stm32f10x.o(i.DMA1_Channel3_IRQHandler)
    DMA1_Channel4_Event                      0x0800216d   Thumb Code     2  dma_stm32f10x.o(i.DMA1_Channel4_Event)
    DMA1_Channel4_IRQHandler                 0x08002171   Thumb Code    24  dma_stm32f10x.o(i.DMA1_Channel4_IRQHandler)
    DMA1_Channel5_Event                      0x0800218d   Thumb Code     2  dma_stm32f10x.o(i.DMA1_Channel5_Event)
    DMA1_Channel5_IRQHandler                 0x08002191   Thumb Code    24  dma_stm32f10x.o(i.DMA1_Channel5_IRQHandler)
    DMA1_Channel6_Event                      0x080021ad   Thumb Code    12  usart_stm32f10x.o(i.DMA1_Channel6_Event)
    DMA1_Channel6_IRQHandler                 0x080021bd   Thumb Code    24  dma_stm32f10x.o(i.DMA1_Channel6_IRQHandler)
    DMA1_Channel7_Event                      0x080021d9   Thumb Code    12  usart_stm32f10x.o(i.DMA1_Channel7_Event)
    DMA1_Channel7_IRQHandler                 0x080021e9   Thumb Code    24  dma_stm32f10x.o(i.DMA1_Channel7_IRQHandler)
    DMA2_Channel1_Event                      0x08002205   Thumb Code     2  dma_stm32f10x.o(i.DMA2_Channel1_Event)
    DMA2_Channel1_IRQHandler                 0x08002209   Thumb Code    24  dma_stm32f10x.o(i.DMA2_Channel1_IRQHandler)
    DMA2_Channel2_Event                      0x08002225   Thumb Code     2  dma_stm32f10x.o(i.DMA2_Channel2_Event)
    DMA2_Channel2_IRQHandler                 0x08002229   Thumb Code    26  dma_stm32f10x.o(i.DMA2_Channel2_IRQHandler)
    DMA2_Channel3_Event                      0x08002249   Thumb Code     2  dma_stm32f10x.o(i.DMA2_Channel3_Event)
    DMA2_Channel3_IRQHandler                 0x0800224d   Thumb Code    26  dma_stm32f10x.o(i.DMA2_Channel3_IRQHandler)
    DMA2_Channel4_5_IRQHandler               0x0800226d   Thumb Code    52  dma_stm32f10x.o(i.DMA2_Channel4_5_IRQHandler)
    DMA2_Channel4_Event                      0x080022a5   Thumb Code     2  dma_stm32f10x.o(i.DMA2_Channel4_Event)
    DMA2_Channel5_Event                      0x080022a7   Thumb Code     2  dma_stm32f10x.o(i.DMA2_Channel5_Event)
    DMA_ChannelInitialize                    0x080022a9   Thumb Code   444  dma_stm32f10x.o(i.DMA_ChannelInitialize)
    DMA_ChannelUninitialize                  0x08002479   Thumb Code   334  dma_stm32f10x.o(i.DMA_ChannelUninitialize)
    DMA_ClearFlag                            0x080025dd   Thumb Code    18  stm32f10x_dma.o(i.DMA_ClearFlag)
    DMA_Cmd                                  0x080025f9   Thumb Code    24  stm32f10x_dma.o(i.DMA_Cmd)
    DMA_DeInit                               0x08002611   Thumb Code   324  stm32f10x_dma.o(i.DMA_DeInit)
    DMA_GetCurrDataCounter                   0x0800275d   Thumb Code     8  stm32f10x_dma.o(i.DMA_GetCurrDataCounter)
    DMA_ITConfig                             0x08002765   Thumb Code    18  stm32f10x_dma.o(i.DMA_ITConfig)
    DMA_Init                                 0x08002777   Thumb Code    60  stm32f10x_dma.o(i.DMA_Init)
    DMA_SetCurrDataCounter                   0x080027b3   Thumb Code     4  stm32f10x_dma.o(i.DMA_SetCurrDataCounter)
    Delayms                                  0x08002bcd   Thumb Code    40  dap.o(i.Delayms)
    Do_DAPUSB                                0x08002bf9   Thumb Code     8  cmsis-dap.o(i.Do_DAPUSB)
    Draw_Logo                                0x08002c01   Thumb Code    54  main.o(i.Draw_Logo)
    Draw_Main                                0x08002c3d   Thumb Code  5578  main.o(i.Draw_Main)
    Draw_Menu                                0x08004211   Thumb Code   396  main.o(i.Draw_Menu)
    EP1_IN_Callback                          0x08004409   Thumb Code     8  usb_endp.o(i.EP1_IN_Callback)
    EP2_OUT_Callback                         0x08004411   Thumb Code     8  usb_endp.o(i.EP2_OUT_Callback)
    EP4_IN_Callback                          0x08004419   Thumb Code     8  usb_endp.o(i.EP4_IN_Callback)
    EP6_OUT_Callback                         0x08004425   Thumb Code    76  usb_endp.o(i.EP6_OUT_Callback)
    EP_Reset                                 0x0800447d   Thumb Code    58  usbd_stm32f103.o(i.EP_Reset)
    EP_Status                                0x080044bd   Thumb Code    70  usbd_stm32f103.o(i.EP_Status)
    EXTI_ClearITPendingBit                   0x08004509   Thumb Code     6  stm32f10x_exti.o(i.EXTI_ClearITPendingBit)
    EXTI_Init                                0x08004515   Thumb Code   142  stm32f10x_exti.o(i.EXTI_Init)
    FLASH_ErasePage                          0x080045a9   Thumb Code    72  stm32f10x_flash.o(i.FLASH_ErasePage)
    FLASH_GetBank1Status                     0x080045f5   Thumb Code    48  stm32f10x_flash.o(i.FLASH_GetBank1Status)
    FLASH_HEX_SWD                            0x08004629   Thumb Code  1366  main.o(i.FLASH_HEX_SWD)
    FLASH_Lock                               0x08004ba9   Thumb Code    14  stm32f10x_flash.o(i.FLASH_Lock)
    FLASH_ProgramHalfWord                    0x08004bbd   Thumb Code    60  stm32f10x_flash.o(i.FLASH_ProgramHalfWord)
    FLASH_SWD                                0x08004bfd   Thumb Code   882  main.o(i.FLASH_SWD)
    FLASH_Unlock                             0x0800500d   Thumb Code    12  stm32f10x_flash.o(i.FLASH_Unlock)
    FLASH_WaitForLastOperation               0x08005025   Thumb Code    38  stm32f10x_flash.o(i.FLASH_WaitForLastOperation)
    GPIO_AFConfigure                         0x0800504d   Thumb Code   146  gpio_stm32f10x.o(i.GPIO_AFConfigure)
    GPIO_GetPortClockState                   0x080050e9   Thumb Code   118  gpio_stm32f10x.o(i.GPIO_GetPortClockState)
    GPIO_Init                                0x08005181   Thumb Code   278  stm32f10x_gpio.o(i.GPIO_Init)
    GPIO_PinConfigure                        0x08005297   Thumb Code   120  gpio_stm32f10x.o(i.GPIO_PinConfigure)
    GPIO_PinRemapConfig                      0x08005311   Thumb Code   138  stm32f10x_gpio.o(i.GPIO_PinRemapConfig)
    GPIO_PortClock                           0x080053a1   Thumb Code   284  gpio_stm32f10x.o(i.GPIO_PortClock)
    GPIO_ResetBits                           0x080054dd   Thumb Code     4  stm32f10x_gpio.o(i.GPIO_ResetBits)
    GPIO_SetBits                             0x080054e1   Thumb Code     4  stm32f10x_gpio.o(i.GPIO_SetBits)
    GetEPRxAddr                              0x080054e5   Thumb Code    24  usb_regs.o(i.GetEPRxAddr)
    GetEPRxCount                             0x08005505   Thumb Code    26  usb_regs.o(i.GetEPRxCount)
    GetEPTxAddr                              0x08005529   Thumb Code    22  usb_regs.o(i.GetEPTxAddr)
    Get_SerialNum                            0x080055ed   Thumb Code    62  hw_config.o(i.Get_SerialNum)
    HID_ProcessCommand                       0x08005635   Thumb Code   400  usbd_user_hid.o(i.HID_ProcessCommand)
    BusFault_Handler                         0x080057e5   Thumb Code     0  cmsis-dap.o(i.HardFault_Handler)
    DebugMon_Handler                         0x080057e5   Thumb Code     0  cmsis-dap.o(i.HardFault_Handler)
    HardFault_Handler                        0x080057e5   Thumb Code   122  cmsis-dap.o(i.HardFault_Handler)
    MemManage_Handler                        0x080057e5   Thumb Code     0  cmsis-dap.o(i.HardFault_Handler)
    NMI_Handler                              0x080057e5   Thumb Code     0  cmsis-dap.o(i.HardFault_Handler)
    PendSV_Handler                           0x080057e5   Thumb Code     0  cmsis-dap.o(i.HardFault_Handler)
    SVC_Handler                              0x080057e5   Thumb Code     0  cmsis-dap.o(i.HardFault_Handler)
    UsageFault_Handler                       0x080057e5   Thumb Code     0  cmsis-dap.o(i.HardFault_Handler)
    In0_Process                              0x0800586d   Thumb Code    98  usb_core.o(i.In0_Process)
    Init_DAPUSB                              0x080058dd   Thumb Code    46  cmsis-dap.o(i.Init_DAPUSB)
    Init_device                              0x08005919   Thumb Code   114  main.o(i.Init_device)
    JTAG_IR                                  0x080059d9   Thumb Code    26  jtag_dp.o(i.JTAG_IR)
    JTAG_IR_Fast                             0x080059f9   Thumb Code   318  jtag_dp.o(i.JTAG_IR_Fast)
    JTAG_IR_Slow                             0x08005b3d   Thumb Code   652  jtag_dp.o(i.JTAG_IR_Slow)
    JTAG_ReadIDCode                          0x08005dcd   Thumb Code   420  jtag_dp.o(i.JTAG_ReadIDCode)
    JTAG_Sequence                            0x08005f75   Thumb Code   154  jtag_dp.o(i.JTAG_Sequence)
    JTAG_Transfer                            0x08006015   Thumb Code    32  jtag_dp.o(i.JTAG_Transfer)
    JTAG_TransferFast                        0x08006039   Thumb Code   628  jtag_dp.o(i.JTAG_TransferFast)
    JTAG_TransferSlow                        0x080062b1   Thumb Code  1218  jtag_dp.o(i.JTAG_TransferSlow)
    JTAG_WriteAbort                          0x08006779   Thumb Code   720  jtag_dp.o(i.JTAG_WriteAbort)
    Key_Init                                 0x08006a4d   Thumb Code    66  key.o(i.Key_Init)
    LEDS_SETUP                               0x08006a99   Thumb Code    64  cmsis-dap.o(i.LEDS_SETUP)
    LED_Init                                 0x08006ae9   Thumb Code    44  led.o(i.LED_Init)
    LedConnectedOff                          0x08006b1d   Thumb Code    10  cmsis-dap.o(i.LedConnectedOff)
    LedConnectedOn                           0x08006b2d   Thumb Code    10  cmsis-dap.o(i.LedConnectedOn)
    LedConnectedOut                          0x08006b3d   Thumb Code    38  cmsis-dap.o(i.LedConnectedOut)
    LedRunningOff                            0x08006b69   Thumb Code    10  cmsis-dap.o(i.LedRunningOff)
    LedRunningOn                             0x08006b79   Thumb Code    10  cmsis-dap.o(i.LedRunningOn)
    LedRunningOut                            0x08006b89   Thumb Code    70  cmsis-dap.o(i.LedRunningOut)
    MAL_Config                               0x08006bd5   Thumb Code    10  hw_config.o(i.MAL_Config)
    MAL_GetStatus                            0x08006bdf   Thumb Code    22  mass_mal.o(i.MAL_GetStatus)
    MAL_Init                                 0x08006bf5   Thumb Code    54  mass_mal.o(i.MAL_Init)
    MAL_Read                                 0x08006c39   Thumb Code    38  mass_mal.o(i.MAL_Read)
    MAL_Write                                0x08006c5f   Thumb Code    46  mass_mal.o(i.MAL_Write)
    MASS_Data_Setup                          0x08006c8d   Thumb Code    84  usb_prop.o(i.MASS_Data_Setup)
    MASS_GetConfigDescriptor                 0x08006cf1   Thumb Code    14  usb_prop.o(i.MASS_GetConfigDescriptor)
    MASS_GetDeviceDescriptor                 0x08006d05   Thumb Code    14  usb_prop.o(i.MASS_GetDeviceDescriptor)
    MASS_GetStringDescriptor                 0x08006d19   Thumb Code    32  usb_prop.o(i.MASS_GetStringDescriptor)
    MASS_Get_Interface_Setting               0x08006d41   Thumb Code    22  usb_prop.o(i.MASS_Get_Interface_Setting)
    MASS_NoData_Setup                        0x08006d59   Thumb Code    36  usb_prop.o(i.MASS_NoData_Setup)
    MASS_Reset                               0x08006d81   Thumb Code   320  usb_prop.o(i.MASS_Reset)
    MASS_Status_In                           0x08006ee1   Thumb Code    34  usb_prop.o(i.MASS_Status_In)
    MASS_Status_Out                          0x08006f11   Thumb Code     2  usb_prop.o(i.MASS_Status_Out)
    MASS_init                                0x08006f15   Thumb Code    30  usb_prop.o(i.MASS_init)
    Mass_Storage_ClearFeature                0x08006f3d   Thumb Code    20  usb_prop.o(i.Mass_Storage_ClearFeature)
    Mass_Storage_In                          0x08006f59   Thumb Code   100  usb_bot.o(i.Mass_Storage_In)
    Mass_Storage_Out                         0x08006fcd   Thumb Code   118  usb_bot.o(i.Mass_Storage_Out)
    Mass_Storage_SetConfiguration            0x0800705d   Thumb Code    36  usb_prop.o(i.Mass_Storage_SetConfiguration)
    Mass_Storage_SetDeviceAddress            0x0800708d   Thumb Code     8  usb_prop.o(i.Mass_Storage_SetDeviceAddress)
    NOP_Process                              0x08007099   Thumb Code     2  usb_core.o(i.NOP_Process)
    NVIC_Init                                0x080070e5   Thumb Code   100  misc.o(i.NVIC_Init)
    NVIC_PriorityGroupConfig                 0x08007155   Thumb Code    10  misc.o(i.NVIC_PriorityGroupConfig)
    OLED_Clear                               0x080072a1   Thumb Code    64  oled.o(i.OLED_Clear)
    OLED_DrawBMP                             0x080072e1   Thumb Code   118  oled.o(i.OLED_DrawBMP)
    OLED_Init                                0x08007359   Thumb Code   312  oled.o(i.OLED_Init)
    OLED_Set_Pos                             0x08007499   Thumb Code    46  oled.o(i.OLED_Set_Pos)
    OLED_ShowChar                            0x080074c9   Thumb Code   110  oled.o(i.OLED_ShowChar)
    OLED_ShowString                          0x0800753d   Thumb Code   100  oled.o(i.OLED_ShowString)
    OLED_WR_Byte                             0x080075a1   Thumb Code   108  oled.o(i.OLED_WR_Byte)
    Out0_Process                             0x08007615   Thumb Code    70  usb_core.o(i.Out0_Process)
    PMAToUserBufferCopy                      0x08007965   Thumb Code    34  usb_mem.o(i.PMAToUserBufferCopy)
    PORT_JTAG_SETUP                          0x0800798d   Thumb Code    78  cmsis-dap.o(i.PORT_JTAG_SETUP)
    PORT_OFF                                 0x080079f5   Thumb Code    58  cmsis-dap.o(i.PORT_OFF)
    PORT_SWD_SETUP                           0x08007a4d   Thumb Code    78  cmsis-dap.o(i.PORT_SWD_SETUP)
    PORT_USB_CONNECT_SETUP                   0x08007ab5   Thumb Code    32  cmsis-dap.o(i.PORT_USB_CONNECT_SETUP)
    Post0_Process                            0x08007ae1   Thumb Code    54  usb_core.o(i.Post0_Process)
    PowerOn                                  0x08007b29   Thumb Code    54  usb_pwr.o(i.PowerOn)
    RCC_AHBPeriphClockCmd                    0x08007b69   Thumb Code    26  stm32f10x_rcc.o(i.RCC_AHBPeriphClockCmd)
    RCC_APB1PeriphClockCmd                   0x08007b89   Thumb Code    26  stm32f10x_rcc.o(i.RCC_APB1PeriphClockCmd)
    RCC_APB2PeriphClockCmd                   0x08007ba9   Thumb Code    26  stm32f10x_rcc.o(i.RCC_APB2PeriphClockCmd)
    RCC_GetClocksFreq                        0x08007bc9   Thumb Code   192  stm32f10x_rcc.o(i.RCC_GetClocksFreq)
    RCC_USBCLKConfig                         0x08007c9d   Thumb Code     6  stm32f10x_rcc.o(i.RCC_USBCLKConfig)
    RST_Transfer                             0x08007ca9   Thumb Code   898  cmsis-dap.o(i.RST_Transfer)
    Read_Memory                              0x08008039   Thumb Code   224  memory.o(i.Read_Memory)
    SCSI_Address_Management                  0x0800813d   Thumb Code   126  usb_scsi.o(i.SCSI_Address_Management)
    SCSI_Format_Cmd                          0x080081c9   Thumb Code    44  usb_scsi.o(i.SCSI_Format_Cmd)
    SCSI_Inquiry_Cmd                         0x080081f9   Thumb Code    54  usb_scsi.o(i.SCSI_Inquiry_Cmd)
    SCSI_Invalid_Cmd                         0x08008241   Thumb Code    64  usb_scsi.o(i.SCSI_Invalid_Cmd)
    SCSI_ModeSense10_Cmd                     0x08008285   Thumb Code    14  usb_scsi.o(i.SCSI_ModeSense10_Cmd)
    SCSI_ModeSense6_Cmd                      0x08008299   Thumb Code    14  usb_scsi.o(i.SCSI_ModeSense6_Cmd)
    SCSI_Read10_Cmd                          0x080082ad   Thumb Code   110  usb_scsi.o(i.SCSI_Read10_Cmd)
    SCSI_ReadCapacity10_Cmd                  0x08008325   Thumb Code   138  usb_scsi.o(i.SCSI_ReadCapacity10_Cmd)
    SCSI_ReadFormatCapacity_Cmd              0x080083c1   Thumb Code   120  usb_scsi.o(i.SCSI_ReadFormatCapacity_Cmd)
    SCSI_RequestSense_Cmd                    0x08008449   Thumb Code    30  usb_scsi.o(i.SCSI_RequestSense_Cmd)
    SCSI_Start_Stop_Unit_Cmd                 0x08008471   Thumb Code    14  usb_scsi.o(i.SCSI_Start_Stop_Unit_Cmd)
    SCSI_TestUnitReady_Cmd                   0x08008481   Thumb Code    52  usb_scsi.o(i.SCSI_TestUnitReady_Cmd)
    SCSI_Verify10_Cmd                        0x080084b9   Thumb Code    58  usb_scsi.o(i.SCSI_Verify10_Cmd)
    SCSI_Write10_Cmd                         0x080084f9   Thumb Code   110  usb_scsi.o(i.SCSI_Write10_Cmd)
    SPI2_Init                                0x08008571   Thumb Code   140  spi.o(i.SPI2_Init)
    SPI2_ReadWriteByte                       0x08008605   Thumb Code    78  spi.o(i.SPI2_ReadWriteByte)
    SPI2_SetSpeed                            0x08008659   Thumb Code    36  spi.o(i.SPI2_SetSpeed)
    SPI_Cmd                                  0x08008681   Thumb Code    24  stm32f10x_spi.o(i.SPI_Cmd)
    SPI_I2S_GetFlagStatus                    0x08008699   Thumb Code    18  stm32f10x_spi.o(i.SPI_I2S_GetFlagStatus)
    SPI_I2S_ReceiveData                      0x080086ab   Thumb Code     6  stm32f10x_spi.o(i.SPI_I2S_ReceiveData)
    SPI_I2S_SendData                         0x080086b1   Thumb Code     4  stm32f10x_spi.o(i.SPI_I2S_SendData)
    SPI_Init                                 0x080086b5   Thumb Code    60  stm32f10x_spi.o(i.SPI_Init)
    SWD_Transfer                             0x080086f1   Thumb Code    32  sw_dp.o(i.SWD_Transfer)
    SWD_TransferFast                         0x08008715   Thumb Code   790  sw_dp.o(i.SWD_TransferFast)
    SWD_TransferSlow                         0x08008a31   Thumb Code  2002  sw_dp.o(i.SWD_TransferSlow)
    SWJ_Sequence                             0x08009209   Thumb Code   158  sw_dp.o(i.SWJ_Sequence)
    SWO_Baudrate                             0x080092b5   Thumb Code    84  swo.o(i.SWO_Baudrate)
    SWO_Control                              0x08009311   Thumb Code    86  swo.o(i.SWO_Control)
    SWO_Data                                 0x08009371   Thumb Code   182  swo.o(i.SWO_Data)
    SWO_Mode                                 0x08009441   Thumb Code   102  swo.o(i.SWO_Mode)
    SWO_Status                               0x080094b1   Thumb Code    70  swo.o(i.SWO_Status)
    SWO_Transport                            0x08009501   Thumb Code    62  swo.o(i.SWO_Transport)
    Scan_Key                                 0x08009549   Thumb Code   110  main.o(i.Scan_Key)
    SetBTABLE                                0x080095c9   Thumb Code    12  usb_regs.o(i.SetBTABLE)
    SetDeviceAddress                         0x080095d9   Thumb Code    68  usb_core.o(i.SetDeviceAddress)
    SetEPRxAddr                              0x08009629   Thumb Code    26  usb_regs.o(i.SetEPRxAddr)
    SetEPRxCount                             0x0800964d   Thumb Code    68  usb_regs.o(i.SetEPRxCount)
    SetEPRxStatus                            0x08009699   Thumb Code    60  usb_regs.o(i.SetEPRxStatus)
    SetEPRxValid                             0x080096d9   Thumb Code    48  usb_regs.o(i.SetEPRxValid)
    SetEPTxAddr                              0x0800970d   Thumb Code    24  usb_regs.o(i.SetEPTxAddr)
    SetEPTxCount                             0x0800972d   Thumb Code    20  usb_regs.o(i.SetEPTxCount)
    SetEPTxStatus                            0x08009749   Thumb Code    60  usb_regs.o(i.SetEPTxStatus)
    SetEPTxValid                             0x08009789   Thumb Code    48  usb_regs.o(i.SetEPTxValid)
    SetEPType                                0x080097bd   Thumb Code    32  usb_regs.o(i.SetEPType)
    Set_CSW                                  0x080098e5   Thumb Code    46  usb_bot.o(i.Set_CSW)
    Set_Scsi_Sense_Data                      0x08009921   Thumb Code     8  usb_scsi.o(i.Set_Scsi_Sense_Data)
    Set_System                               0x0800992d   Thumb Code    24  hw_config.o(i.Set_System)
    Set_USBClock                             0x08009949   Thumb Code    18  hw_config.o(i.Set_USBClock)
    Setup0_Process                           0x0800995d   Thumb Code   170  usb_core.o(i.Setup0_Process)
    Standard_ClearFeature                    0x08009a15   Thumb Code   342  usb_core.o(i.Standard_ClearFeature)
    Standard_GetConfiguration                0x08009b81   Thumb Code    34  usb_core.o(i.Standard_GetConfiguration)
    Standard_GetDescriptorData               0x08009bad   Thumb Code    32  usb_core.o(i.Standard_GetDescriptorData)
    Standard_GetInterface                    0x08009bd1   Thumb Code    34  usb_core.o(i.Standard_GetInterface)
    Standard_GetStatus                       0x08009bfd   Thumb Code   238  usb_core.o(i.Standard_GetStatus)
    Standard_SetConfiguration                0x08009cfd   Thumb Code    60  usb_core.o(i.Standard_SetConfiguration)
    Standard_SetDeviceFeature                0x08009d45   Thumb Code    30  usb_core.o(i.Standard_SetDeviceFeature)
    Standard_SetEndPointFeature              0x08009d6d   Thumb Code   192  usb_core.o(i.Standard_SetEndPointFeature)
    Standard_SetInterface                    0x08009e3d   Thumb Code    96  usb_core.o(i.Standard_SetInterface)
    SysTick_CLKSourceConfig                  0x08009ea9   Thumb Code    40  misc.o(i.SysTick_CLKSourceConfig)
    SysTick_Handler                          0x08009ed1   Thumb Code   108  cmsis-dap.o(i.SysTick_Handler)
    SystemInit                               0x08009f45   Thumb Code    78  system_stm32f10x.o(i.SystemInit)
    Transfer_Data_Request                    0x08009fa5   Thumb Code    46  usb_bot.o(i.Transfer_Data_Request)
    UART_SWO_Baudrate                        0x0800a041   Thumb Code   174  swo.o(i.UART_SWO_Baudrate)
    UART_SWO_Capture                         0x0800a10d   Thumb Code    18  swo.o(i.UART_SWO_Capture)
    UART_SWO_Control                         0x0800a125   Thumb Code   114  swo.o(i.UART_SWO_Control)
    UART_SWO_Mode                            0x0800a1ad   Thumb Code    78  swo.o(i.UART_SWO_Mode)
    UART_SWO_Update                          0x0800a209   Thumb Code    14  swo.o(i.UART_SWO_Update)
    USART1_IRQHandler                        0x0800a221   Thumb Code    72  usart.o(i.USART1_IRQHandler)
    USART2_IRQHandler                        0x0800a2e1   Thumb Code    10  usart_stm32f10x.o(i.USART2_IRQHandler)
    USART_ClearITPendingBit                  0x0800a3fd   Thumb Code    30  stm32f10x_usart.o(i.USART_ClearITPendingBit)
    USART_Cmd                                0x0800a41b   Thumb Code    24  stm32f10x_usart.o(i.USART_Cmd)
    USART_DMACmd                             0x0800ac57   Thumb Code    18  stm32f10x_usart.o(i.USART_DMACmd)
    USART_GetITStatus                        0x0800ac6f   Thumb Code    84  stm32f10x_usart.o(i.USART_GetITStatus)
    USART_IRQHandler                         0x0800ae5b   Thumb Code   624  usart_stm32f10x.o(i.USART_IRQHandler)
    USART_ITConfig                           0x0800b0cb   Thumb Code    74  stm32f10x_usart.o(i.USART_ITConfig)
    USART_Init                               0x0800b115   Thumb Code   210  stm32f10x_usart.o(i.USART_Init)
    USART_RX_DMA_Complete                    0x0800b59d   Thumb Code   130  usart_stm32f10x.o(i.USART_RX_DMA_Complete)
    USART_ReceiveData                        0x0800b741   Thumb Code    10  stm32f10x_usart.o(i.USART_ReceiveData)
    USART_TX_DMA_Complete                    0x0800b8dd   Thumb Code    74  usart_stm32f10x.o(i.USART_TX_DMA_Complete)
    USBD_CDC_ACM_ClearCommFeature            0x0800ba0d   Thumb Code     4  usbd_cdc_acm.o(i.USBD_CDC_ACM_ClearCommFeature)
    USBD_CDC_ACM_DataRead                    0x0800ba11   Thumb Code    46  usbd_cdc_acm.o(i.USBD_CDC_ACM_DataRead)
    USBD_CDC_ACM_DataReceived                0x0800ba45   Thumb Code    46  usbd_user_cdc_acm.o(i.USBD_CDC_ACM_DataReceived)
    USBD_CDC_ACM_EP_BULKIN_Event             0x0800ba7d   Thumb Code    24  usbd_cdc_acm.o(i.USBD_CDC_ACM_EP_BULKIN_Event)
    USBD_CDC_ACM_EP_BULKOUT_Event            0x0800bb41   Thumb Code    48  usbd_cdc_acm.o(i.USBD_CDC_ACM_EP_BULKOUT_Event)
    USBD_CDC_ACM_EP_BULK_Event               0x0800bbdd   Thumb Code    30  usbd_cdc_acm.o(i.USBD_CDC_ACM_EP_BULK_Event)
    USBD_CDC_ACM_EP_INTIN_Event              0x0800bbfb   Thumb Code     2  usbd_cdc_acm.o(i.USBD_CDC_ACM_EP_INTIN_Event)
    USBD_CDC_ACM_GetCommFeature              0x0800bbfd   Thumb Code     4  usbd_cdc_acm.o(i.USBD_CDC_ACM_GetCommFeature)
    USBD_CDC_ACM_GetEncapsulatedResponse     0x0800bc01   Thumb Code     4  usbd_cdc_acm.o(i.USBD_CDC_ACM_GetEncapsulatedResponse)
    USBD_CDC_ACM_GetLineCoding               0x0800bc05   Thumb Code    48  usbd_cdc_acm.o(i.USBD_CDC_ACM_GetLineCoding)
    USBD_CDC_ACM_Initialize                  0x0800bc3d   Thumb Code     8  usbd_cdc_acm.o(i.USBD_CDC_ACM_Initialize)
    USBD_CDC_ACM_PortGetLineCoding           0x0800bc45   Thumb Code    20  usbd_user_cdc_acm.o(i.USBD_CDC_ACM_PortGetLineCoding)
    USBD_CDC_ACM_PortInitialize              0x0800bc5d   Thumb Code    22  usbd_user_cdc_acm.o(i.USBD_CDC_ACM_PortInitialize)
    USBD_CDC_ACM_PortReset                   0x0800bc7d   Thumb Code    26  usbd_user_cdc_acm.o(i.USBD_CDC_ACM_PortReset)
    USBD_CDC_ACM_PortSetControlLineState     0x0800bc9d   Thumb Code     6  usbd_user_cdc_acm.o(i.USBD_CDC_ACM_PortSetControlLineState)
    USBD_CDC_ACM_PortSetLineCoding           0x0800bca5   Thumb Code   258  usbd_user_cdc_acm.o(i.USBD_CDC_ACM_PortSetLineCoding)
    USBD_CDC_ACM_Reset                       0x0800bdbd   Thumb Code    66  usbd_cdc_acm.o(i.USBD_CDC_ACM_Reset)
    USBD_CDC_ACM_Reset_Event                 0x0800be0d   Thumb Code     8  usbd_cdc_acm.o(i.USBD_CDC_ACM_Reset_Event)
    USBD_CDC_ACM_SOF_Event                   0x0800be15   Thumb Code    96  usbd_cdc_acm.o(i.USBD_CDC_ACM_SOF_Event)
    USBD_CDC_ACM_SendBreak                   0x0800be7d   Thumb Code     4  usbd_cdc_acm.o(i.USBD_CDC_ACM_SendBreak)
    USBD_CDC_ACM_SendEncapsulatedCommand     0x0800be81   Thumb Code     4  usbd_cdc_acm.o(i.USBD_CDC_ACM_SendEncapsulatedCommand)
    USBD_CDC_ACM_SetCommFeature              0x0800be85   Thumb Code     4  usbd_cdc_acm.o(i.USBD_CDC_ACM_SetCommFeature)
    USBD_CDC_ACM_SetControlLineState         0x0800be89   Thumb Code    12  usbd_cdc_acm.o(i.USBD_CDC_ACM_SetControlLineState)
    USBD_CDC_ACM_SetLineCoding               0x0800be99   Thumb Code    36  usbd_cdc_acm.o(i.USBD_CDC_ACM_SetLineCoding)
    USBD_ClrStallEP                          0x0800bec5   Thumb Code    22  usbd_stm32f103.o(i.USBD_ClrStallEP)
    USBD_ConfigEP                            0x0800bedd   Thumb Code   186  usbd_stm32f103.o(i.USBD_ConfigEP)
    USBD_Configure                           0x0800bfa5   Thumb Code    18  usbd_stm32f103.o(i.USBD_Configure)
    USBD_Configure_Event                     0x0800bfbd   Thumb Code     4  usb_config.o(i.USBD_Configure_Event)
    USBD_Connect                             0x0800bfc1   Thumb Code    48  usbd_stm32f103.o(i.USBD_Connect)
    USBD_DataInStage                         0x0800bff9   Thumb Code    48  usbd_core.o(i.USBD_DataInStage)
    USBD_DataOutStage                        0x0800c031   Thumb Code    26  usbd_core.o(i.USBD_DataOutStage)
    USBD_DirCtrlEP                           0x0800c051   Thumb Code     2  usbd_stm32f103.o(i.USBD_DirCtrlEP)
    USBD_DisableEP                           0x0800c053   Thumb Code    14  usbd_stm32f103.o(i.USBD_DisableEP)
    USBD_EnableEP                            0x0800c061   Thumb Code    16  usbd_stm32f103.o(i.USBD_EnableEP)
    USBD_EndPoint0                           0x0800c071   Thumb Code   588  usbd_core.o(i.USBD_EndPoint0)
    USBD_EndPoint0_Out_ADC_ReqToEP           0x0800c2d5   Thumb Code     4  usb_config.o(i.USBD_EndPoint0_Out_ADC_ReqToEP)
    USBD_EndPoint0_Out_ADC_ReqToIF           0x0800c2d9   Thumb Code     4  usb_config.o(i.USBD_EndPoint0_Out_ADC_ReqToIF)
    USBD_EndPoint0_Out_CDC_ReqToIF           0x0800c2dd   Thumb Code    68  usbd_core_cdc.o(i.USBD_EndPoint0_Out_CDC_ReqToIF)
    USBD_EndPoint0_Out_CLS_ReqToDEV          0x0800c32d   Thumb Code     4  usb_config.o(i.USBD_EndPoint0_Out_CLS_ReqToDEV)
    USBD_EndPoint0_Out_CLS_ReqToEP           0x0800c331   Thumb Code     4  usb_config.o(i.USBD_EndPoint0_Out_CLS_ReqToEP)
    USBD_EndPoint0_Out_CLS_ReqToIF           0x0800c335   Thumb Code     4  usb_config.o(i.USBD_EndPoint0_Out_CLS_ReqToIF)
    USBD_EndPoint0_Out_HID_ReqToIF           0x0800c339   Thumb Code    38  usbd_core_hid.o(i.USBD_EndPoint0_Out_HID_ReqToIF)
    USBD_EndPoint0_Setup_ADC_ReqToEP         0x0800c369   Thumb Code     4  usb_config.o(i.USBD_EndPoint0_Setup_ADC_ReqToEP)
    USBD_EndPoint0_Setup_ADC_ReqToIF         0x0800c36d   Thumb Code     4  usb_config.o(i.USBD_EndPoint0_Setup_ADC_ReqToIF)
    USBD_EndPoint0_Setup_CDC_ReqToIF         0x0800c371   Thumb Code   140  usbd_core_cdc.o(i.USBD_EndPoint0_Setup_CDC_ReqToIF)
    USBD_EndPoint0_Setup_CLS_ReqToDEV        0x0800c411   Thumb Code     4  usb_config.o(i.USBD_EndPoint0_Setup_CLS_ReqToDEV)
    USBD_EndPoint0_Setup_CLS_ReqToEP         0x0800c415   Thumb Code     4  usb_config.o(i.USBD_EndPoint0_Setup_CLS_ReqToEP)
    USBD_EndPoint0_Setup_CLS_ReqToIF         0x0800c419   Thumb Code     4  usb_config.o(i.USBD_EndPoint0_Setup_CLS_ReqToIF)
    USBD_EndPoint0_Setup_HID_ReqToIF         0x0800c41d   Thumb Code   144  usbd_core_hid.o(i.USBD_EndPoint0_Setup_HID_ReqToIF)
    USBD_EndPoint0_Setup_MSC_ReqToIF         0x0800c4c9   Thumb Code     4  usb_config.o(i.USBD_EndPoint0_Setup_MSC_ReqToIF)
    USBD_HID_Configure_Event                 0x0800c4cd   Thumb Code    34  usbd_hid.o(i.USBD_HID_Configure_Event)
    USBD_HID_EP_INTIN_Event                  0x0800c4f5   Thumb Code   326  usbd_hid.o(i.USBD_HID_EP_INTIN_Event)
    USBD_HID_EP_INTOUT_Event                 0x0800c659   Thumb Code   102  usbd_hid.o(i.USBD_HID_EP_INTOUT_Event)
    USBD_HID_EP_INT_Event                    0x0800c6dd   Thumb Code    30  usbd_hid.o(i.USBD_HID_EP_INT_Event)
    USBD_HID_GetIdle                         0x0800c6fd   Thumb Code    16  usbd_hid.o(i.USBD_HID_GetIdle)
    USBD_HID_GetProtocol                     0x0800c719   Thumb Code    14  usbd_hid.o(i.USBD_HID_GetProtocol)
    USBD_HID_GetReport                       0x0800c72d   Thumb Code    46  usbd_hid.o(i.USBD_HID_GetReport)
    USBD_HID_SOF_Event                       0x0800c769   Thumb Code   288  usbd_hid.o(i.USBD_HID_SOF_Event)
    USBD_HID_SetIdle                         0x0800c8b1   Thumb Code    42  usbd_hid.o(i.USBD_HID_SetIdle)
    USBD_HID_SetProtocol                     0x0800c8ed   Thumb Code    14  usbd_hid.o(i.USBD_HID_SetProtocol)
    USBD_HID_SetReport                       0x0800c901   Thumb Code    50  usbd_hid.o(i.USBD_HID_SetReport)
    USBD_Init                                0x0800c941   Thumb Code    24  usbd_stm32f103.o(i.USBD_Init)
    USBD_IntrEna                             0x0800c95d   Thumb Code    22  usbd_stm32f103.o(i.USBD_IntrEna)
    USBD_RTX_TaskInit                        0x0800c973   Thumb Code     2  usb_config.o(i.USBD_RTX_TaskInit)
    USBD_ReadEP                              0x0800c975   Thumb Code    86  usbd_stm32f103.o(i.USBD_ReadEP)
    USBD_ReqClrFeature_MSC                   0x0800c9d5   Thumb Code     2  usb_config.o(i.USBD_ReqClrFeature_MSC)
    USBD_ReqGetDescriptor                    0x0800c9d9   Thumb Code   260  usbd_core.o(i.USBD_ReqGetDescriptor)
    USBD_ReqGetDescriptor_HID                0x0800cb09   Thumb Code    90  usbd_core_hid.o(i.USBD_ReqGetDescriptor_HID)
    USBD_ReqGetStatus                        0x0800cb8d   Thumb Code   116  usbd_core.o(i.USBD_ReqGetStatus)
    USBD_ReqSetClrFeature                    0x0800cc09   Thumb Code   168  usbd_core.o(i.USBD_ReqSetClrFeature)
    USBD_ReqSetConfiguration                 0x0800ccb5   Thumb Code   376  usbd_core.o(i.USBD_ReqSetConfiguration)
    USBD_ReqSetInterface                     0x0800ce45   Thumb Code   280  usbd_core.o(i.USBD_ReqSetInterface)
    USBD_Reset                               0x0800cf71   Thumb Code   160  usbd_stm32f103.o(i.USBD_Reset)
    USBD_ResetEP                             0x0800d025   Thumb Code    12  usbd_stm32f103.o(i.USBD_ResetEP)
    USBD_Reset_Event                         0x0800d031   Thumb Code     4  usb_config.o(i.USBD_Reset_Event)
    USBD_SOF_Event                           0x0800d035   Thumb Code    14  usb_config.o(i.USBD_SOF_Event)
    USBD_SetAddress                          0x0800d045   Thumb Code    16  usbd_stm32f103.o(i.USBD_SetAddress)
    USBD_SetStallEP                          0x0800d059   Thumb Code    16  usbd_stm32f103.o(i.USBD_SetStallEP)
    USBD_SetupStage                          0x0800d069   Thumb Code     8  usbd_core.o(i.USBD_SetupStage)
    USBD_StatusInStage                       0x0800d075   Thumb Code    10  usbd_core.o(i.USBD_StatusInStage)
    USBD_StatusOutStage                      0x0800d081   Thumb Code     8  usbd_core.o(i.USBD_StatusOutStage)
    USBD_Suspend                             0x0800d08d   Thumb Code    24  usbd_stm32f103.o(i.USBD_Suspend)
    USBD_WakeUp                              0x0800d0a9   Thumb Code    14  usbd_stm32f103.o(i.USBD_WakeUp)
    USBD_WakeUpCfg                           0x0800d0bd   Thumb Code     2  usbd_stm32f103.o(i.USBD_WakeUpCfg)
    USBD_WriteEP                             0x0800d0c1   Thumb Code   104  usbd_stm32f103.o(i.USBD_WriteEP)
    USBWakeUp_IRQHandler                     0x0800d135   Thumb Code    12  hw_config.o(i.USBWakeUp_IRQHandler)
    USB_Cable_Config                         0x0800d141   Thumb Code     2  hw_config.o(i.USB_Cable_Config)
    USB_HP_CAN1_TX_IRQHandler                0x0800d143   Thumb Code     8  hw_config.o(i.USB_HP_CAN1_TX_IRQHandler)
    USB_Init                                 0x0800d14d   Thumb Code    36  usb_init.o(i.USB_Init)
    USB_Interrupts_Config                    0x0800d189   Thumb Code    94  hw_config.o(i.USB_Interrupts_Config)
    USB_Istr                                 0x0800d1e9   Thumb Code    62  usb_istr.o(i.USB_Istr)
    USB_LP_CAN1_RX0_IRQHandler               0x0800d239   Thumb Code   326  usbd_stm32f103.o(i.USB_LP_CAN1_RX0_IRQHandler)
    USB_SIL_Init                             0x0800d3a1   Thumb Code    28  usb_sil.o(i.USB_SIL_Init)
    USB_SIL_Read                             0x0800d3c5   Thumb Code    46  usb_sil.o(i.USB_SIL_Read)
    USB_SIL_Write                            0x0800d3f3   Thumb Code    46  usb_sil.o(i.USB_SIL_Write)
    UserAppAbort                             0x0800d421   Thumb Code     8  cmsis-dap.o(i.UserAppAbort)
    UserAppInit                              0x0800d42d   Thumb Code    14  cmsis-dap.o(i.UserAppInit)
    UserToPMABufferCopy                      0x0800d441   Thumb Code    52  usb_mem.o(i.UserToPMABufferCopy)
    Virtual_Com_Port_GetLineCoding           0x0800d479   Thumb Code    20  usb_prop.o(i.Virtual_Com_Port_GetLineCoding)
    Virtual_Com_Port_SetLineCoding           0x0800d495   Thumb Code    20  usb_prop.o(i.Virtual_Com_Port_SetLineCoding)
    W25QXX_Erase_Sector                      0x0800d4b1   Thumb Code    70  w25qxx.o(i.W25QXX_Erase_Sector)
    W25QXX_Init                              0x0800d509   Thumb Code    70  w25qxx.o(i.W25QXX_Init)
    W25QXX_Read                              0x0800d55d   Thumb Code    74  w25qxx.o(i.W25QXX_Read)
    W25QXX_ReadID                            0x0800d5ad   Thumb Code    64  w25qxx.o(i.W25QXX_ReadID)
    W25QXX_ReadSR                            0x0800d5f5   Thumb Code    36  w25qxx.o(i.W25QXX_ReadSR)
    W25QXX_Wait_Busy                         0x0800d621   Thumb Code    18  w25qxx.o(i.W25QXX_Wait_Busy)
    W25QXX_Write                             0x0800d635   Thumb Code   180  w25qxx.o(i.W25QXX_Write)
    W25QXX_Write_Enable                      0x0800d6ed   Thumb Code    24  w25qxx.o(i.W25QXX_Write_Enable)
    W25QXX_Write_NoCheck                     0x0800d70d   Thumb Code    70  w25qxx.o(i.W25QXX_Write_NoCheck)
    W25QXX_Write_Page                        0x0800d755   Thumb Code    80  w25qxx.o(i.W25QXX_Write_Page)
    Write_Memory                             0x0800d7a9   Thumb Code   252  memory.o(i.Write_Memory)
    __0printf$5                              0x0800d8d1   Thumb Code    22  printf5.o(i.__0printf$5)
    __1printf$5                              0x0800d8d1   Thumb Code     0  printf5.o(i.__0printf$5)
    __2printf                                0x0800d8d1   Thumb Code     0  printf5.o(i.__0printf$5)
    __scatterload_copy                       0x0800d8f1   Thumb Code    14  handlers.o(i.__scatterload_copy)
    __scatterload_null                       0x0800d8ff   Thumb Code     2  handlers.o(i.__scatterload_null)
    __scatterload_zeroinit                   0x0800d901   Thumb Code    14  handlers.o(i.__scatterload_zeroinit)
    clust2sect                               0x0800e009   Thumb Code    26  ff.o(i.clust2sect)
    delay_init                               0x0800e3b1   Thumb Code    50  delay.o(i.delay_init)
    delay_ms                                 0x0800e3f5   Thumb Code    72  delay.o(i.delay_ms)
    delaymS                                  0x0800e441   Thumb Code    32  swd_host.o(i.delaymS)
    disk_initialize                          0x0800e9a1   Thumb Code     6  diskio.o(i.disk_initialize)
    disk_ioctl                               0x0800e9a7   Thumb Code     6  diskio.o(i.disk_ioctl)
    disk_read                                0x0800e9ad   Thumb Code    76  diskio.o(i.disk_read)
    disk_status                              0x0800e9f9   Thumb Code     6  diskio.o(i.disk_status)
    disk_write                               0x0800e9ff   Thumb Code    76  diskio.o(i.disk_write)
    f_gets                                   0x0800ea4b   Thumb Code    78  ff.o(i.f_gets)
    f_mount                                  0x0800ea99   Thumb Code    38  ff.o(i.f_mount)
    f_open                                   0x0800eac5   Thumb Code   394  ff.o(i.f_open)
    f_opendir                                0x0800ec4f   Thumb Code   136  ff.o(i.f_opendir)
    f_read                                   0x0800ecd7   Thumb Code   462  ff.o(i.f_read)
    f_readdir                                0x0800eea5   Thumb Code   112  ff.o(i.f_readdir)
    f_unlink                                 0x0800ef15   Thumb Code   202  ff.o(i.f_unlink)
    ff_convert                               0x0800efe1   Thumb Code    70  ccsbcs.o(i.ff_convert)
    ff_memalloc                              0x0800f02d   Thumb Code    12  syscall.o(i.ff_memalloc)
    ff_memfree                               0x0800f039   Thumb Code    12  syscall.o(i.ff_memfree)
    ff_wtoupper                              0x0800f045   Thumb Code    46  ccsbcs.o(i.ff_wtoupper)
    fputc                                    0x0800f19d   Thumb Code    24  usart.o(i.fputc)
    free                                     0x0800f1b9   Thumb Code    76  malloc.o(i.free)
    gen_numname                              0x0800f209   Thumb Code   168  ff.o(i.gen_numname)
    get_fat                                  0x0800f2b1   Thumb Code   228  ff.o(i.get_fat)
    get_fattime                              0x0800f395   Thumb Code     4  diskio.o(i.get_fattime)
    main                                     0x0800f4dd   Thumb Code    16  main.o(i.main)
    malloc                                   0x0800f4ed   Thumb Code    92  malloc.o(i.malloc)
    put_fat                                  0x0800f695   Thumb Code   310  ff.o(i.put_fat)
    swd_flash_syscall_exec                   0x0800f853   Thumb Code   110  swd_host.o(i.swd_flash_syscall_exec)
    swd_init                                 0x0800f8c1   Thumb Code    14  swd_host.o(i.swd_init)
    swd_init_debug                           0x0800f8d1   Thumb Code   156  swd_host.o(i.swd_init_debug)
    swd_off                                  0x0800f975   Thumb Code    10  swd_host.o(i.swd_off)
    swd_read_dp                              0x0800fa6d   Thumb Code    92  swd_host.o(i.swd_read_dp)
    swd_set_target_reset                     0x0800fb5d   Thumb Code    28  swd_host.o(i.swd_set_target_reset)
    swd_set_target_state_hw                  0x0800fb81   Thumb Code   388  swd_host.o(i.swd_set_target_state_hw)
    swd_write_ap                             0x0800fd89   Thumb Code   114  swd_host.o(i.swd_write_ap)
    swd_write_dp                             0x0800fff9   Thumb Code    66  swd_host.o(i.swd_write_dp)
    swd_write_memory                         0x08010041   Thumb Code   126  swd_host.o(i.swd_write_memory)
    target_flash_erase_chip                  0x080101bd   Thumb Code    34  swd_flash.o(i.target_flash_erase_chip)
    target_flash_init                        0x080101e5   Thumb Code    64  swd_flash.o(i.target_flash_init)
    target_flash_program_page                0x08010229   Thumb Code    96  swd_flash.o(i.target_flash_program_page)
    target_flash_uninit                      0x0801028d   Thumb Code    16  swd_flash.o(i.target_flash_uninit)
    target_opt_erase_chip                    0x0801029d   Thumb Code    34  swd_opt.o(i.target_opt_erase_chip)
    target_opt_init                          0x080102c5   Thumb Code    62  swd_opt.o(i.target_opt_init)
    target_opt_uninit                        0x08010309   Thumb Code    32  swd_opt.o(i.target_opt_uninit)
    uart1_dma_enable                         0x0801032d   Thumb Code    30  usart.o(i.uart1_dma_enable)
    uart_init                                0x0801034d   Thumb Code   334  usart.o(i.uart_init)
    usart_config                             0x080104b1   Thumb Code    56  usart.o(i.usart_config)
    usart_receive_parse                      0x080104ed   Thumb Code   108  usart.o(i.usart_receive_parse)
    usart_sendCommand                        0x08010579   Thumb Code    50  usart.o(i.usart_sendCommand)
    usbd_class_init                          0x080105b5   Thumb Code    14  usb_config.o(i.usbd_class_init)
    usbd_configured                          0x080105c5   Thumb Code    12  usbd_core.o(i.usbd_configured)
    usbd_connect                             0x080105d5   Thumb Code     4  usbd_core.o(i.usbd_connect)
    usbd_hid_get_protocol                    0x080105d9   Thumb Code     4  usbd_hid.o(i.usbd_hid_get_protocol)
    usbd_hid_get_report                      0x080105dd   Thumb Code   140  usbd_user_hid.o(i.usbd_hid_get_report)
    usbd_hid_get_report_trigger              0x0801067d   Thumb Code   132  usbd_hid.o(i.usbd_hid_get_report_trigger)
    usbd_hid_init                            0x08010719   Thumb Code    36  usbd_user_hid.o(i.usbd_hid_init)
    usbd_hid_process                         0x08010759   Thumb Code   150  usbd_user_hid.o(i.usbd_hid_process)
    usbd_hid_set_protocol                    0x08010815   Thumb Code     2  usbd_hid.o(i.usbd_hid_set_protocol)
    usbd_hid_set_report                      0x08010819   Thumb Code   138  usbd_user_hid.o(i.usbd_hid_set_report)
    usbd_init                                0x080108b9   Thumb Code    24  usbd_core.o(i.usbd_init)
    usbd_os_evt_set                          0x080108d5   Thumb Code     2  usb_config.o(i.usbd_os_evt_set)
    usbd_reset_core                          0x080108d9   Thumb Code    26  usbd_core.o(i.usbd_reset_core)
    vResetTarget                             0x080108fd   Thumb Code   142  cmsis-dap.o(i.vResetTarget)
    INIT_LED_CONNECTED                       0x080109c4   Data           4  cmsis-dap.o(.constdata)
    INIT_LED_RUNNING                         0x080109c8   Data           4  cmsis-dap.o(.constdata)
    CoreDescriptor                           0x080109cc   Data           8  cmsis-dap.o(.constdata)
    UserAppDescriptor                        0x080109d4   Data          12  cmsis-dap.o(.constdata)
    INIT_PIN_USB_CONNECT                     0x080109e0   Data           4  cmsis-dap.o(.constdata)
    INIT_SWD_TDI                             0x080109e4   Data           4  cmsis-dap.o(.constdata)
    INIT_SWD_TDO                             0x080109e8   Data           4  cmsis-dap.o(.constdata)
    INIT_SWD_SWCLK_SWDIO                     0x080109ec   Data           4  cmsis-dap.o(.constdata)
    INIT_JTAG_TDO                            0x080109f0   Data           4  cmsis-dap.o(.constdata)
    INIT_JTAG_TCK_TMS                        0x080109f4   Data           4  cmsis-dap.o(.constdata)
    INIT_JTAG_TDI                            0x080109f8   Data           4  cmsis-dap.o(.constdata)
    INIT_OFF_TDI                             0x080109fc   Data           4  cmsis-dap.o(.constdata)
    INIT_OFF_TCK_TMS                         0x08010a00   Data           4  cmsis-dap.o(.constdata)
    INIT_OFF_TDO                             0x08010a04   Data           4  cmsis-dap.o(.constdata)
    INIT_OFF_nRESET                          0x08010a08   Data           4  cmsis-dap.o(.constdata)
    INIT_PINS_A                              0x08010a0c   Data           4  cmsis-dap.o(.constdata)
    INIT_PINS_B                              0x08010a10   Data           4  cmsis-dap.o(.constdata)
    INIT_PINS_C                              0x08010a14   Data           4  cmsis-dap.o(.constdata)
    MASS_DeviceDescriptor                    0x08010f66   Data          18  usb_desc.o(.constdata)
    MASS_ConfigDescriptor                    0x08010f78   Data          81  usb_desc.o(.constdata)
    MASS_StringLangID                        0x08010fc9   Data           4  usb_desc.o(.constdata)
    MASS_StringVendor                        0x08010fcd   Data          38  usb_desc.o(.constdata)
    MASS_StringProduct                       0x08010ff3   Data          38  usb_desc.o(.constdata)
    MASS_StringInterface                     0x08011019   Data          16  usb_desc.o(.constdata)
    DAP_FW_Ver                               0x08011029   Data           5  dap.o(.constdata)
    usbd_power                               0x08011030   Data           1  usb_config.o(.constdata)
    usbd_hs_enable                           0x08011031   Data           1  usb_config.o(.constdata)
    usbd_if_num                              0x08011032   Data           2  usb_config.o(.constdata)
    usbd_ep_num                              0x08011034   Data           1  usb_config.o(.constdata)
    usbd_max_packet0                         0x08011035   Data           1  usb_config.o(.constdata)
    usbd_hid_if_num                          0x08011036   Data           1  usb_config.o(.constdata)
    usbd_hid_ep_intin                        0x08011037   Data           1  usb_config.o(.constdata)
    usbd_hid_ep_intout                       0x08011038   Data           1  usb_config.o(.constdata)
    usbd_hid_interval                        0x0801103a   Data           4  usb_config.o(.constdata)
    usbd_hid_maxpacketsize                   0x0801103e   Data           4  usb_config.o(.constdata)
    usbd_hid_inreport_num                    0x08011042   Data           1  usb_config.o(.constdata)
    usbd_hid_outreport_num                   0x08011043   Data           1  usb_config.o(.constdata)
    usbd_hid_inreport_max_sz                 0x08011044   Data           2  usb_config.o(.constdata)
    usbd_hid_outreport_max_sz                0x08011046   Data           2  usb_config.o(.constdata)
    usbd_hid_featreport_max_sz               0x08011048   Data           2  usb_config.o(.constdata)
    usbd_cdc_acm_cif_num                     0x0801104a   Data           1  usb_config.o(.constdata)
    usbd_cdc_acm_dif_num                     0x0801104b   Data           1  usb_config.o(.constdata)
    usbd_cdc_acm_ep_intin                    0x0801104c   Data           1  usb_config.o(.constdata)
    usbd_cdc_acm_ep_bulkin                   0x0801104d   Data           1  usb_config.o(.constdata)
    usbd_cdc_acm_ep_bulkout                  0x0801104e   Data           1  usb_config.o(.constdata)
    usbd_cdc_acm_sendbuf_sz                  0x08011050   Data           2  usb_config.o(.constdata)
    usbd_cdc_acm_receivebuf_sz               0x08011052   Data           2  usb_config.o(.constdata)
    usbd_cdc_acm_maxpacketsize               0x08011054   Data           4  usb_config.o(.constdata)
    usbd_cdc_acm_maxpacketsize1              0x08011058   Data           4  usb_config.o(.constdata)
    USBD_P_Power_Event                       0x0801105c   Data           4  usb_config.o(.constdata)
    USBD_P_Reset_Event                       0x08011060   Data           4  usb_config.o(.constdata)
    USBD_P_Suspend_Event                     0x08011064   Data           4  usb_config.o(.constdata)
    USBD_P_Resume_Event                      0x08011068   Data           4  usb_config.o(.constdata)
    USBD_P_WakeUp_Event                      0x0801106c   Data           4  usb_config.o(.constdata)
    USBD_P_SOF_Event                         0x08011070   Data           4  usb_config.o(.constdata)
    USBD_P_Error_Event                       0x08011074   Data           4  usb_config.o(.constdata)
    USBD_P_EP                                0x08011078   Data          64  usb_config.o(.constdata)
    USBD_P_Configure_Event                   0x080110b8   Data           4  usb_config.o(.constdata)
    USBD_P_Interface_Event                   0x080110bc   Data           4  usb_config.o(.constdata)
    USBD_P_Feature_Event                     0x080110c0   Data           4  usb_config.o(.constdata)
    __rtx                                    0x080110c4   Data           4  usb_config.o(.constdata)
    USBD_HID_ReportDescriptor                0x080110c8   Data          33  usb_config.o(.constdata)
    USBD_HID_ReportDescriptorSize            0x080110ea   Data           2  usb_config.o(.constdata)
    USBD_HID_DescriptorOffset                0x080110ec   Data           2  usb_config.o(.constdata)
    USBD_DeviceDescriptor                    0x080110ee   Data          18  usb_config.o(.constdata)
    USBD_DeviceQualifier                     0x08011100   Data           1  usb_config.o(.constdata)
    USBD_DeviceQualifier_HS                  0x08011101   Data           1  usb_config.o(.constdata)
    USBD_ConfigDescriptor                    0x08011102   Data         108  usb_config.o(.constdata)
    USBD_ConfigDescriptor_HS                 0x0801116e   Data           1  usb_config.o(.constdata)
    USBD_OtherSpeedConfigDescriptor          0x0801116f   Data           1  usb_config.o(.constdata)
    USBD_OtherSpeedConfigDescriptor_HS       0x08011170   Data           1  usb_config.o(.constdata)
    USBD_StringDescriptor                    0x08011172   Data         146  usb_config.o(.constdata)
    Driver_USART2                            0x08011260   Data          56  usart_stm32f10x.o(.constdata)
    flash_algo                               0x080113e4   Data          52  stm32f10x_128.o(.constdata)
    flash_opt                                0x080115d0   Data          52  stm32f10x_opt.o(.constdata)
    F6x8                                     0x08011604   Data         552  oled.o(.constdata)
    F8X16                                    0x0801182c   Data        1520  oled.o(.constdata)
    Region$$Table$$Base                      0x08011e64   Number         0  anon$$obj.o(Region$$Table)
    Region$$Table$$Limit                     0x08011e84   Number         0  anon$$obj.o(Region$$Table)
    USBLogo                                  0x20000000   Data         170  main.o(.data)
    FlashLogo                                0x200000aa   Data         165  main.o(.data)
    DebugLogo                                0x2000014f   Data         128  main.o(.data)
    Flash_Page_Size                          0x200001d0   Data           4  main.o(.data)
    MENU_TYPE                                0x200001d4   Data           1  main.o(.data)
    Res                                      0x200001d5   Data           1  main.o(.data)
    br                                       0x200001d8   Data           4  main.o(.data)
    bw                                       0x200001dc   Data           4  main.o(.data)
    readflag                                 0x200001e0   Data           1  main.o(.data)
    addr                                     0x200001e4   Data           4  main.o(.data)
    i                                        0x200001e8   Data           4  main.o(.data)
    select                                   0x200001ec   Data           4  main.o(.data)
    fileCount                                0x200001f0   Data           4  main.o(.data)
    fileChangeCount                          0x200001f4   Data           4  main.o(.data)
    breakDebug                               0x200001f8   Data           1  main.o(.data)
    debugMode                                0x200001f9   Data           1  main.o(.data)
    menuType                                 0x200001fa   Data           1  main.o(.data)
    debugBaud                                0x200001fc   Data          36  main.o(.data)
    debugSelect                              0x20000220   Data           1  main.o(.data)
    bytesread                                0x20000222   Data           2  main.o(.data)
    Logo                                     0x20000224   Data           8  main.o(.data)
    u8SysTick_Counter                        0x2000022c   Data           1  cmsis-dap.o(.data)
    u8LedMode                                0x2000022d   Data           1  cmsis-dap.o(.data)
    pCoreDescriptor                          0x20000230   Data           4  cmsis-dap.o(.data)
    pUserAppDescriptor                       0x20000234   Data           4  cmsis-dap.o(.data)
    __stdout                                 0x20000238   Data           4  usart.o(.data)
    USART_RX_STA                             0x2000023c   Data           2  usart.o(.data)
    uart1_rev_len                            0x2000023e   Data           1  usart.o(.data)
    SystemCoreClock                          0x20000244   Data           4  system_stm32f10x.o(.data)
    AHBPrescTable                            0x20000248   Data          16  system_stm32f10x.o(.data)
    Mass_Memory_Size                         0x20000274   Data           4  mass_mal.o(.data)
    Mass_Block_Size                          0x20000278   Data           4  mass_mal.o(.data)
    Mass_Block_Count                         0x2000027c   Data           4  mass_mal.o(.data)
    Status                                   0x20000280   Data           4  mass_mal.o(.data)
    Block_Read_count                         0x20000284   Data           4  memory.o(.data)
    Block_offset                             0x20000288   Data           4  memory.o(.data)
    Counter                                  0x2000028c   Data           4  memory.o(.data)
    Idx                                      0x20000290   Data           4  memory.o(.data)
    TransferState                            0x20000294   Data           1  memory.o(.data)
    Page00_Inquiry_Data                      0x200002a8   Data           5  scsi_data.o(.data)
    Standard_Inquiry_Data                    0x200002ad   Data          22  scsi_data.o(.data)
    Standard_Inquiry_Data2                   0x200002c3   Data          36  scsi_data.o(.data)
    Mode_Sense6_data                         0x200002e7   Data           4  scsi_data.o(.data)
    Mode_Sense10_data                        0x200002eb   Data           8  scsi_data.o(.data)
    Scsi_Sense_Data                          0x200002f3   Data          18  scsi_data.o(.data)
    ReadCapacity10_Data                      0x20000305   Data           8  scsi_data.o(.data)
    ReadFormatCapacity_Data                  0x2000030d   Data          12  scsi_data.o(.data)
    Bot_State                                0x2000031c   Data           1  usb_bot.o(.data)
    Data_Len                                 0x2000031e   Data           2  usb_bot.o(.data)
    SCSI_LBA                                 0x20000320   Data           4  usb_bot.o(.data)
    SCSI_BlkLen                              0x20000324   Data           4  usb_bot.o(.data)
    MASS_StringSerial                        0x20000328   Data          26  usb_desc.o(.data)
    count_out                                0x20000344   Data           4  usb_endp.o(.data)
    count_in                                 0x20000348   Data           4  usb_endp.o(.data)
    temp_cnt                                 0x2000034c   Data           1  usb_endp.o(.data)
    wIstr                                    0x20000350   Data           2  usb_istr.o(.data)
    bIntPackSOF                              0x20000352   Data           1  usb_istr.o(.data)
    pEpInt_IN                                0x20000354   Data          28  usb_istr.o(.data)
    pEpInt_OUT                               0x20000370   Data          28  usb_istr.o(.data)
    Max_Lun                                  0x2000038c   Data           4  usb_prop.o(.data)
    Request                                  0x20000390   Data           1  usb_prop.o(.data)
    linecoding                               0x20000394   Data           8  usb_prop.o(.data)
    Device_Table                             0x2000039c   Data           2  usb_prop.o(.data)
    Device_Property                          0x200003a0   Data          48  usb_prop.o(.data)
    User_Standard_Requests                   0x200003d0   Data          36  usb_prop.o(.data)
    Device_Descriptor                        0x200003f4   Data           8  usb_prop.o(.data)
    Config_Descriptor                        0x200003fc   Data           8  usb_prop.o(.data)
    String_Descriptor                        0x20000404   Data          40  usb_prop.o(.data)
    bDeviceState                             0x2000042c   Data           4  usb_pwr.o(.data)
    fSuspendEnabled                          0x20000430   Data           1  usb_pwr.o(.data)
    ResumeS                                  0x20000431   Data           2  usb_pwr.o(.data)
    StatusInfo                               0x20000434   Data           2  usb_core.o(.data)
    Data_Mul_MaxPacketSize                   0x20000436   Data           1  usb_core.o(.data)
    EPindex                                  0x20000438   Data           1  usb_init.o(.data)
    pInformation                             0x2000043c   Data           4  usb_init.o(.data)
    pProperty                                0x20000440   Data           4  usb_init.o(.data)
    SaveState                                0x20000444   Data           2  usb_init.o(.data)
    wInterrupt_Mask                          0x20000446   Data           2  usb_init.o(.data)
    pUser_Standard_Requests                  0x20000448   Data           4  usb_init.o(.data)
    SaveRState                               0x2000044c   Data           2  usb_int.o(.data)
    SaveTState                               0x2000044e   Data           2  usb_int.o(.data)
    DAP_TransferAbort                        0x20000450   Data           1  dap.o(.data)
    USBD_AltSetting                          0x20000468   Data           3  usb_config.o(.data)
    USBD_HID_PollingCnt                      0x2000046c   Data           2  usb_config.o(.data)
    USBD_HID_IdleCnt                         0x2000046e   Data           1  usb_config.o(.data)
    USBD_HID_IdleReload                      0x2000046f   Data           1  usb_config.o(.data)
    USBD_HID_IdleSet                         0x20000470   Data           1  usb_config.o(.data)
    USBD_HID_FeatReport                      0x20000471   Data           2  usb_config.o(.data)
    pBUF_DSCR                                0x20000474   Data           4  usbd_stm32f103.o(.data)
    FreeBufAddr                              0x20000478   Data           2  usbd_stm32f103.o(.data)
    W25QXX_TYPE                              0x200004b0   Data           2  w25qxx.o(.data)
    USBD_DeviceAddress                       0x200004b4   Data           1  usbd_core.o(.data)
    USBD_Configuration                       0x200004b5   Data           1  usbd_core.o(.data)
    USBD_NumInterfaces                       0x200004b6   Data           1  usbd_core.o(.data)
    USBD_HighSpeed                           0x200004b7   Data           1  usbd_core.o(.data)
    USBD_ZLP                                 0x200004b8   Data           1  usbd_core.o(.data)
    USBD_DeviceStatus                        0x200004ba   Data           2  usbd_core.o(.data)
    USBD_EndPointMask                        0x200004bc   Data           4  usbd_core.o(.data)
    USBD_EndPointHalt                        0x200004c0   Data           4  usbd_core.o(.data)
    USBD_EndPointNoHaltClr                   0x200004c4   Data           4  usbd_core.o(.data)
    USBD_RTX_CoreTask                        0x200004c8   Data           4  usbd_core.o(.data)
    USBD_EP0Data                             0x200004cc   Data           8  usbd_core.o(.data)
    USBD_SetupPacket                         0x200004d4   Data           8  usbd_core.o(.data)
    control_line_state                       0x200004dc   Data           2  usbd_cdc_acm.o(.data)
    data_send_access                         0x200004e0   Data           4  usbd_cdc_acm.o(.data)
    data_send_active                         0x200004e4   Data           4  usbd_cdc_acm.o(.data)
    data_send_zlp                            0x200004e8   Data           4  usbd_cdc_acm.o(.data)
    data_to_send_wr                          0x200004ec   Data           4  usbd_cdc_acm.o(.data)
    data_to_send_rd                          0x200004f0   Data           4  usbd_cdc_acm.o(.data)
    ptr_data_to_send                         0x200004f4   Data           4  usbd_cdc_acm.o(.data)
    ptr_data_sent                            0x200004f8   Data           4  usbd_cdc_acm.o(.data)
    data_read_access                         0x200004fc   Data           4  usbd_cdc_acm.o(.data)
    data_receive_int_access                  0x20000500   Data           4  usbd_cdc_acm.o(.data)
    data_received_pending_pckts              0x20000504   Data           4  usbd_cdc_acm.o(.data)
    data_no_space_for_receive                0x20000508   Data           4  usbd_cdc_acm.o(.data)
    ptr_data_received                        0x2000050c   Data           4  usbd_cdc_acm.o(.data)
    ptr_data_read                            0x20000510   Data           4  usbd_cdc_acm.o(.data)
    line_coding                              0x20000514   Data           7  usbd_cdc_acm.o(.data)
    USBD_HID_Protocol                        0x2000051d   Data           1  usbd_hid.o(.data)
    DataOutToSendLen                         0x2000051e   Data           2  usbd_hid.o(.data)
    DataOutSentLen                           0x20000520   Data           2  usbd_hid.o(.data)
    DataInReceLen                            0x20000522   Data           2  usbd_hid.o(.data)
    DataFeatReceLen                          0x20000524   Data           2  usbd_hid.o(.data)
    DataOutAsyncReq                          0x20000528   Data           4  usbd_hid.o(.data)
    DataOutUpdateReqMask                     0x2000052c   Data           4  usbd_hid.o(.data)
    DataOutProcessing                        0x20000530   Data           4  usbd_hid.o(.data)
    DataOutProcessPending                    0x20000534   Data           4  usbd_hid.o(.data)
    ptrDataOut                               0x20000538   Data           4  usbd_hid.o(.data)
    DataOutEndWithShortPacket                0x2000053c   Data           4  usbd_hid.o(.data)
    DataOutInProgress                        0x20000540   Data           4  usbd_hid.o(.data)
    ptrDataIn                                0x20000544   Data           4  usbd_hid.o(.data)
    ptrDataFeat                              0x20000548   Data           4  usbd_hid.o(.data)
    __microlib_freelist                      0x2000054c   Data           4  mvars.o(.data)
    __microlib_freelist_initialised          0x20000550   Data           4  mvars.o(.data)
    fnew                                     0x20000554   Data         548  main.o(.bss)
    FileInfo                                 0x20000778   Data          32  main.o(.bss)
    DirInfo                                  0x20000798   Data          36  main.o(.bss)
    fs                                       0x200007bc   Data         560  main.o(.bss)
    lFileName                                0x200009ec   Data         255  main.o(.bss)
    rData                                    0x20000aeb   Data        1024  main.o(.bss)
    USART_RX_BUF                             0x20000eeb   Data         200  usart.o(.bss)
    USART_TX_BUF                             0x20000fb3   Data         200  usart.o(.bss)
    usart_rx_data                            0x2000107b   Data          60  usart.o(.bss)
    Data_Buffer                              0x200010b8   Data         512  memory.o(.bss)
    Bulk_Data_Buff                           0x200012b8   Data          64  usb_bot.o(.bss)
    CBW                                      0x200012f8   Data          32  usb_bot.o(.bss)
    CSW                                      0x20001318   Data          16  usb_bot.o(.bss)
    buffer_out                               0x20001328   Data          64  usb_endp.o(.bss)
    temp                                     0x20001368   Data          60  usb_endp.o(.bss)
    Device_Info                              0x200013a4   Data          28  usb_init.o(.bss)
    DAP_Data                                 0x200013c0   Data          64  dap.o(.bss)
    USBD_EP0Buf                              0x20002400   Data          64  usb_config.o(.bss)
    USBD_HID_InReport                        0x20002440   Data          65  usb_config.o(.bss)
    USBD_HID_OutReport                       0x20002481   Data          65  usb_config.o(.bss)
    USBD_CDC_ACM_SendBuf                     0x200024c2   Data          64  usb_config.o(.bss)
    USBD_CDC_ACM_ReceiveBuf                  0x20002502   Data          64  usb_config.o(.bss)
    USBD_CDC_ACM_NotifyBuf                   0x20002542   Data          10  usb_config.o(.bss)
    W25QXX_BUFFER                            0x20004d84   Data        4096  w25qxx.o(.bss)
    __heap_base                              0x20005d88   Data           0  startup_stm32f10x_hd.o(HEAP)
    __heap_limit                             0x20006588   Data           0  startup_stm32f10x_hd.o(HEAP)
    __initial_sp                             0x20007588   Data           0  startup_stm32f10x_hd.o(STACK)



==============================================================================

Memory Map of the image

  Image Entry point : 0x08000131

  Load Region LR_IROM1 (Base: 0x08000000, Size: 0x000123d8, Max: 0x00080000, ABSOLUTE, COMPRESSED[0x000120a8])

    Execution Region ER_IROM1 (Exec base: 0x08000000, Load base: 0x08000000, Size: 0x00011e84, Max: 0x00080000, ABSOLUTE)

    Exec Addr    Load Addr    Size         Type   Attr      Idx    E Section Name        Object

    0x08000000   0x08000000   0x00000130   Data   RO          764    RESET               startup_stm32f10x_hd.o
    0x08000130   0x08000130   0x00000000   Code   RO         6733  * .ARM.Collect$$$$00000000  mc_w.l(entry.o)
    0x08000130   0x08000130   0x00000004   Code   RO         7047    .ARM.Collect$$$$00000001  mc_w.l(entry2.o)
    0x08000134   0x08000134   0x00000004   Code   RO         7050    .ARM.Collect$$$$00000004  mc_w.l(entry5.o)
    0x08000138   0x08000138   0x00000000   Code   RO         7052    .ARM.Collect$$$$00000008  mc_w.l(entry7b.o)
    0x08000138   0x08000138   0x00000000   Code   RO         7054    .ARM.Collect$$$$0000000A  mc_w.l(entry8b.o)
    0x08000138   0x08000138   0x00000008   Code   RO         7055    .ARM.Collect$$$$0000000B  mc_w.l(entry9a.o)
    0x08000140   0x08000140   0x00000000   Code   RO         7057    .ARM.Collect$$$$0000000D  mc_w.l(entry10a.o)
    0x08000140   0x08000140   0x00000000   Code   RO         7059    .ARM.Collect$$$$0000000F  mc_w.l(entry11a.o)
    0x08000140   0x08000140   0x00000004   Code   RO         7048    .ARM.Collect$$$$00002712  mc_w.l(entry2.o)
    0x08000144   0x08000144   0x00000024   Code   RO          765    .text               startup_stm32f10x_hd.o
    0x08000168   0x08000168   0x00000062   Code   RO         6736    .text               mc_w.l(uldiv.o)
    0x080001ca   0x080001ca   0x00000024   Code   RO         6738    .text               mc_w.l(memcpya.o)
    0x080001ee   0x080001ee   0x00000024   Code   RO         6740    .text               mc_w.l(memseta.o)
    0x08000212   0x08000212   0x00000024   Code   RO         6742    .text               mc_w.l(strstr.o)
    0x08000236   0x08000236   0x00000018   Code   RO         6744    .text               mc_w.l(strncpy.o)
    0x0800024e   0x0800024e   0x0000000e   Code   RO         6746    .text               mc_w.l(strlen.o)
    0x0800025c   0x0800025c   0x000000e4   Code   RO         7039    .text               mf_w.l(dmul.o)
    0x08000340   0x08000340   0x000000de   Code   RO         7041    .text               mf_w.l(ddiv.o)
    0x0800041e   0x0800041e   0x0000001a   Code   RO         7043    .text               mf_w.l(dfltui.o)
    0x08000438   0x08000438   0x00000032   Code   RO         7045    .text               mf_w.l(dfixui.o)
    0x0800046a   0x0800046a   0x0000001e   Code   RO         7063    .text               mc_w.l(llshl.o)
    0x08000488   0x08000488   0x00000020   Code   RO         7065    .text               mc_w.l(llushr.o)
    0x080004a8   0x080004a8   0x00000000   Code   RO         7069    .text               mc_w.l(iusefp.o)
    0x080004a8   0x080004a8   0x000000ba   Code   RO         7070    .text               mf_w.l(depilogue.o)
    0x08000562   0x08000562   0x00000002   PAD
    0x08000564   0x08000564   0x00000024   Code   RO         7078    .text               mc_w.l(init.o)
    0x08000588   0x08000588   0x00000056   Code   RO         7089    .text               mc_w.l(__dczerorl2.o)
    0x080005de   0x080005de   0x00000040   Code   RO         3360    i.Bot_Abort         usb_bot.o
    0x0800061e   0x0800061e   0x0000000c   Code   RO         4074    i.ByteSwap          usb_regs.o
    0x0800062a   0x0800062a   0x00000002   PAD
    0x0800062c   0x0800062c   0x000002c4   Code   RO         3361    i.CBW_Decode        usb_bot.o
    0x080008f0   0x080008f0   0x000000c8   Code   RO         4002    i.CTR_HP            usb_int.o
    0x080009b8   0x080009b8   0x00000288   Code   RO         4003    i.CTR_LP            usb_int.o
    0x08000c40   0x08000c40   0x0000001a   Code   RO         2638    i.Char2toByte       hex2bin.o
    0x08000c5a   0x08000c5a   0x00000026   Code   RO         2639    i.ChartoByte        hex2bin.o
    0x08000c80   0x08000c80   0x00000034   Code   RO         4075    i.ClearDTOG_RX      usb_regs.o
    0x08000cb4   0x08000cb4   0x00000034   Code   RO         4076    i.ClearDTOG_TX      usb_regs.o
    0x08000ce8   0x08000ce8   0x00000030   Code   RO         4898    i.ClearTrace        swo.o
    0x08000d18   0x08000d18   0x00000028   Code   RO         4081    i.Clear_Status_Out  usb_regs.o
    0x08000d40   0x08000d40   0x00000044   Code   RO         4482    i.DAP_Connect       dap.o
    0x08000d84   0x08000d84   0x00000048   Code   RO         4483    i.DAP_Delay         dap.o
    0x08000dcc   0x08000dcc   0x0000001c   Code   RO         4484    i.DAP_Disconnect    dap.o
    0x08000de8   0x08000de8   0x00000038   Code   RO         4485    i.DAP_Dummy_Transfer  dap.o
    0x08000e20   0x08000e20   0x0000004c   Code   RO         4487    i.DAP_HostStatus    dap.o
    0x08000e6c   0x08000e6c   0x0000007c   Code   RO         4488    i.DAP_Info          dap.o
    0x08000ee8   0x08000ee8   0x00000058   Code   RO         4489    i.DAP_JTAG_Configure  dap.o
    0x08000f40   0x08000f40   0x00000058   Code   RO         4490    i.DAP_JTAG_IDCode   dap.o
    0x08000f98   0x08000f98   0x0000005a   Code   RO         4491    i.DAP_JTAG_Sequence  dap.o
    0x08000ff2   0x08000ff2   0x00000002   PAD
    0x08000ff4   0x08000ff4   0x000003b0   Code   RO         4492    i.DAP_JTAG_Transfer  dap.o
    0x080013a4   0x080013a4   0x000001a0   Code   RO         4493    i.DAP_JTAG_TransferBlock  dap.o
    0x08001544   0x08001544   0x0000004c   Code   RO         4494    i.DAP_JTAG_WriteAbort  dap.o
    0x08001590   0x08001590   0x00000176   Code   RO         4495    i.DAP_ProcessCommand  dap.o
    0x08001706   0x08001706   0x00000080   Code   RO         4764    i.DAP_ProcessVendorCommand  dap_vendor.o
    0x08001786   0x08001786   0x00000010   Code   RO         4497    i.DAP_ResetTarget   dap.o
    0x08001796   0x08001796   0x00000002   PAD
    0x08001798   0x08001798   0x00000028   Code   RO         4498    i.DAP_SWD_Configure  dap.o
    0x080017c0   0x080017c0   0x000003a0   Code   RO         4499    i.DAP_SWD_Transfer  dap.o
    0x08001b60   0x08001b60   0x00000178   Code   RO         4500    i.DAP_SWD_TransferBlock  dap.o
    0x08001cd8   0x08001cd8   0x0000002c   Code   RO         4501    i.DAP_SWD_WriteAbort  dap.o
    0x08001d04   0x08001d04   0x00000078   Code   RO         4502    i.DAP_SWJ_Clock     dap.o
    0x08001d7c   0x08001d7c   0x00000200   Code   RO         4503    i.DAP_SWJ_Pins      dap.o
    0x08001f7c   0x08001f7c   0x00000028   Code   RO         4504    i.DAP_SWJ_Sequence  dap.o
    0x08001fa4   0x08001fa4   0x00000050   Code   RO         4505    i.DAP_Setup         dap.o
    0x08001ff4   0x08001ff4   0x00000044   Code   RO         4506    i.DAP_Transfer      dap.o
    0x08002038   0x08002038   0x00000064   Code   RO         4507    i.DAP_TransferBlock  dap.o
    0x0800209c   0x0800209c   0x00000030   Code   RO         4508    i.DAP_TransferConfigure  dap.o
    0x080020cc   0x080020cc   0x00000040   Code   RO         4509    i.DAP_WriteAbort    dap.o
    0x0800210c   0x0800210c   0x00000002   Code   RO         5555    i.DMA1_Channel1_Event  dma_stm32f10x.o
    0x0800210e   0x0800210e   0x00000002   PAD
    0x08002110   0x08002110   0x0000001c   Code   RO         5556    i.DMA1_Channel1_IRQHandler  dma_stm32f10x.o
    0x0800212c   0x0800212c   0x00000002   Code   RO         5557    i.DMA1_Channel2_Event  dma_stm32f10x.o
    0x0800212e   0x0800212e   0x00000002   PAD
    0x08002130   0x08002130   0x0000001c   Code   RO         5558    i.DMA1_Channel2_IRQHandler  dma_stm32f10x.o
    0x0800214c   0x0800214c   0x00000002   Code   RO         5559    i.DMA1_Channel3_Event  dma_stm32f10x.o
    0x0800214e   0x0800214e   0x00000002   PAD
    0x08002150   0x08002150   0x0000001c   Code   RO         5560    i.DMA1_Channel3_IRQHandler  dma_stm32f10x.o
    0x0800216c   0x0800216c   0x00000002   Code   RO         5561    i.DMA1_Channel4_Event  dma_stm32f10x.o
    0x0800216e   0x0800216e   0x00000002   PAD
    0x08002170   0x08002170   0x0000001c   Code   RO         5562    i.DMA1_Channel4_IRQHandler  dma_stm32f10x.o
    0x0800218c   0x0800218c   0x00000002   Code   RO         5563    i.DMA1_Channel5_Event  dma_stm32f10x.o
    0x0800218e   0x0800218e   0x00000002   PAD
    0x08002190   0x08002190   0x0000001c   Code   RO         5564    i.DMA1_Channel5_IRQHandler  dma_stm32f10x.o
    0x080021ac   0x080021ac   0x00000010   Code   RO         5813    i.DMA1_Channel6_Event  usart_stm32f10x.o
    0x080021bc   0x080021bc   0x0000001c   Code   RO         5566    i.DMA1_Channel6_IRQHandler  dma_stm32f10x.o
    0x080021d8   0x080021d8   0x00000010   Code   RO         5814    i.DMA1_Channel7_Event  usart_stm32f10x.o
    0x080021e8   0x080021e8   0x0000001c   Code   RO         5568    i.DMA1_Channel7_IRQHandler  dma_stm32f10x.o
    0x08002204   0x08002204   0x00000002   Code   RO         5569    i.DMA2_Channel1_Event  dma_stm32f10x.o
    0x08002206   0x08002206   0x00000002   PAD
    0x08002208   0x08002208   0x0000001c   Code   RO         5570    i.DMA2_Channel1_IRQHandler  dma_stm32f10x.o
    0x08002224   0x08002224   0x00000002   Code   RO         5571    i.DMA2_Channel2_Event  dma_stm32f10x.o
    0x08002226   0x08002226   0x00000002   PAD
    0x08002228   0x08002228   0x00000020   Code   RO         5572    i.DMA2_Channel2_IRQHandler  dma_stm32f10x.o
    0x08002248   0x08002248   0x00000002   Code   RO         5573    i.DMA2_Channel3_Event  dma_stm32f10x.o
    0x0800224a   0x0800224a   0x00000002   PAD
    0x0800224c   0x0800224c   0x00000020   Code   RO         5574    i.DMA2_Channel3_IRQHandler  dma_stm32f10x.o
    0x0800226c   0x0800226c   0x00000038   Code   RO         5575    i.DMA2_Channel4_5_IRQHandler  dma_stm32f10x.o
    0x080022a4   0x080022a4   0x00000002   Code   RO         5576    i.DMA2_Channel4_Event  dma_stm32f10x.o
    0x080022a6   0x080022a6   0x00000002   Code   RO         5578    i.DMA2_Channel5_Event  dma_stm32f10x.o
    0x080022a8   0x080022a8   0x000001d0   Code   RO         5579    i.DMA_ChannelInitialize  dma_stm32f10x.o
    0x08002478   0x08002478   0x00000164   Code   RO         5580    i.DMA_ChannelUninitialize  dma_stm32f10x.o
    0x080025dc   0x080025dc   0x0000001c   Code   RO         1760    i.DMA_ClearFlag     stm32f10x_dma.o
    0x080025f8   0x080025f8   0x00000018   Code   RO         1762    i.DMA_Cmd           stm32f10x_dma.o
    0x08002610   0x08002610   0x0000014c   Code   RO         1763    i.DMA_DeInit        stm32f10x_dma.o
